{
	"contracts/test.sol": {
		"EtherWallet": {
			"abi": [
				{
					"inputs": [],
					"stateMutability": "nonpayable",
					"type": "constructor"
				},
				{
					"anonymous": false,
					"inputs": [
						{
							"indexed": false,
							"internalType": "string",
							"name": "message",
							"type": "string"
						}
					],
					"name": "Print",
					"type": "event"
				},
				{
					"inputs": [
						{
							"internalType": "uint256",
							"name": "inputMoney",
							"type": "uint256"
						}
					],
					"name": "inputWallet",
					"outputs": [],
					"stateMutability": "nonpayable",
					"type": "function"
				},
				{
					"inputs": [],
					"name": "walletAddress",
					"outputs": [
						{
							"internalType": "address",
							"name": "",
							"type": "address"
						}
					],
					"stateMutability": "view",
					"type": "function"
				},
				{
					"inputs": [],
					"name": "walletEther",
					"outputs": [
						{
							"internalType": "uint256",
							"name": "",
							"type": "uint256"
						}
					],
					"stateMutability": "view",
					"type": "function"
				},
				{
					"stateMutability": "payable",
					"type": "receive"
				}
			],
			"devdoc": {
				"kind": "dev",
				"methods": {},
				"version": 1
			},
			"evm": {
				"assembly": "    /* \"contracts/test.sol\":0:565  contract EtherWallet {... */\n  mstore(0x40, 0x80)\n    /* \"contracts/test.sol\":99:184  constructor (){... */\n  callvalue\n  dup1\n  iszero\n  tag_1\n  jumpi\n  0x00\n  dup1\n  revert\ntag_1:\n  pop\n    /* \"contracts/test.sol\":138:139  0 */\n  0x00\n    /* \"contracts/test.sol\":124:135  walletEther */\n  dup1\n    /* \"contracts/test.sol\":124:139  walletEther = 0 */\n  dup2\n  swap1\n  sstore\n  pop\n    /* \"contracts/test.sol\":166:176  msg.sender */\n  caller\n    /* \"contracts/test.sol\":150:163  walletAddress */\n  0x01\n  0x00\n    /* \"contracts/test.sol\":150:176  walletAddress = msg.sender */\n  0x0100\n  exp\n  dup2\n  sload\n  dup2\n  0xffffffffffffffffffffffffffffffffffffffff\n  mul\n  not\n  and\n  swap1\n  dup4\n  0xffffffffffffffffffffffffffffffffffffffff\n  and\n  mul\n  or\n  swap1\n  sstore\n  pop\n    /* \"contracts/test.sol\":0:565  contract EtherWallet {... */\n  dataSize(sub_0)\n  dup1\n  dataOffset(sub_0)\n  0x00\n  codecopy\n  0x00\n  return\nstop\n\nsub_0: assembly {\n        /* \"contracts/test.sol\":0:565  contract EtherWallet {... */\n      mstore(0x40, 0x80)\n      jumpi(tag_1, lt(calldatasize, 0x04))\n      shr(0xe0, calldataload(0x00))\n      dup1\n      0x264fad5f\n      eq\n      tag_3\n      jumpi\n      dup1\n      0x6ad5b3ea\n      eq\n      tag_4\n      jumpi\n      dup1\n      0xd9803282\n      eq\n      tag_5\n      jumpi\n      jump(tag_2)\n    tag_1:\n      jumpi(tag_2, calldatasize)\n      stop\n    tag_2:\n      0x00\n      dup1\n      revert\n        /* \"contracts/test.sol\":262:560  function inputWallet(uint inputMoney) public {... */\n    tag_3:\n      callvalue\n      dup1\n      iszero\n      tag_8\n      jumpi\n      0x00\n      dup1\n      revert\n    tag_8:\n      pop\n      tag_9\n      0x04\n      dup1\n      calldatasize\n      sub\n      dup2\n      add\n      swap1\n      tag_10\n      swap2\n      swap1\n      tag_11\n      jump\t// in\n    tag_10:\n      tag_12\n      jump\t// in\n    tag_9:\n      stop\n        /* \"contracts/test.sol\":58:86  address public walletAddress */\n    tag_4:\n      callvalue\n      dup1\n      iszero\n      tag_13\n      jumpi\n      0x00\n      dup1\n      revert\n    tag_13:\n      pop\n      tag_14\n      tag_15\n      jump\t// in\n    tag_14:\n      mload(0x40)\n      tag_16\n      swap2\n      swap1\n      tag_17\n      jump\t// in\n    tag_16:\n      mload(0x40)\n      dup1\n      swap2\n      sub\n      swap1\n      return\n        /* \"contracts/test.sol\":28:51  uint public walletEther */\n    tag_5:\n      callvalue\n      dup1\n      iszero\n      tag_18\n      jumpi\n      0x00\n      dup1\n      revert\n    tag_18:\n      pop\n      tag_19\n      tag_20\n      jump\t// in\n    tag_19:\n      mload(0x40)\n      tag_21\n      swap2\n      swap1\n      tag_22\n      jump\t// in\n    tag_21:\n      mload(0x40)\n      dup1\n      swap2\n      sub\n      swap1\n      return\n        /* \"contracts/test.sol\":262:560  function inputWallet(uint inputMoney) public {... */\n    tag_12:\n        /* \"contracts/test.sol\":338:348  msg.sender */\n      caller\n        /* \"contracts/test.sol\":321:348  walletAddress == msg.sender */\n      0xffffffffffffffffffffffffffffffffffffffff\n      and\n        /* \"contracts/test.sol\":321:334  walletAddress */\n      0x01\n      0x00\n      swap1\n      sload\n      swap1\n      0x0100\n      exp\n      swap1\n      div\n      0xffffffffffffffffffffffffffffffffffffffff\n      and\n        /* \"contracts/test.sol\":321:348  walletAddress == msg.sender */\n      0xffffffffffffffffffffffffffffffffffffffff\n      and\n      sub\n        /* \"contracts/test.sol\":318:553  if(walletAddress == msg.sender ){emit Print (unicode\"지갑주소가 맞습니다\");... */\n      tag_24\n      jumpi\n        /* \"contracts/test.sol\":356:401  Print (unicode\"지갑주소가 맞습니다\") */\n      0x241ba3bafc919fb4308284ce03a8f4867a8ec2f0401445d3cf41a468e7db4ae0\n      mload(0x40)\n      tag_25\n      swap1\n      tag_26\n      jump\t// in\n    tag_25:\n      mload(0x40)\n      dup1\n      swap2\n      sub\n      swap1\n      log1\n        /* \"contracts/test.sol\":431:441  inputMoney */\n      dup1\n        /* \"contracts/test.sol\":416:427  walletEther */\n      0x00\n      dup1\n        /* \"contracts/test.sol\":416:441  walletEther += inputMoney */\n      dup3\n      dup3\n      sload\n      tag_27\n      swap2\n      swap1\n      tag_28\n      jump\t// in\n    tag_27:\n      swap3\n      pop\n      pop\n      dup2\n      swap1\n      sstore\n      pop\n        /* \"contracts/test.sol\":318:553  if(walletAddress == msg.sender ){emit Print (unicode\"지갑주소가 맞습니다\");... */\n      jump(tag_29)\n    tag_24:\n        /* \"contracts/test.sol\":478:488  msg.sender */\n      caller\n        /* \"contracts/test.sol\":461:488  walletAddress != msg.sender */\n      0xffffffffffffffffffffffffffffffffffffffff\n      and\n        /* \"contracts/test.sol\":461:474  walletAddress */\n      0x01\n      0x00\n      swap1\n      sload\n      swap1\n      0x0100\n      exp\n      swap1\n      div\n      0xffffffffffffffffffffffffffffffffffffffff\n      and\n        /* \"contracts/test.sol\":461:488  walletAddress != msg.sender */\n      0xffffffffffffffffffffffffffffffffffffffff\n      and\n      eq\n        /* \"contracts/test.sol\":458:553  if(walletAddress != msg.sender) { emit Print(unicode\"지갑주소가 아닙니다\");... */\n      tag_30\n      jumpi\n        /* \"contracts/test.sol\":497:541  Print(unicode\"지갑주소가 아닙니다\") */\n      0x241ba3bafc919fb4308284ce03a8f4867a8ec2f0401445d3cf41a468e7db4ae0\n      mload(0x40)\n      tag_31\n      swap1\n      tag_32\n      jump\t// in\n    tag_31:\n      mload(0x40)\n      dup1\n      swap2\n      sub\n      swap1\n      log1\n        /* \"contracts/test.sol\":458:553  if(walletAddress != msg.sender) { emit Print(unicode\"지갑주소가 아닙니다\");... */\n    tag_30:\n        /* \"contracts/test.sol\":318:553  if(walletAddress == msg.sender ){emit Print (unicode\"지갑주소가 맞습니다\");... */\n    tag_29:\n        /* \"contracts/test.sol\":262:560  function inputWallet(uint inputMoney) public {... */\n      pop\n      jump\t// out\n        /* \"contracts/test.sol\":58:86  address public walletAddress */\n    tag_15:\n      0x01\n      0x00\n      swap1\n      sload\n      swap1\n      0x0100\n      exp\n      swap1\n      div\n      0xffffffffffffffffffffffffffffffffffffffff\n      and\n      dup2\n      jump\t// out\n        /* \"contracts/test.sol\":28:51  uint public walletEther */\n    tag_20:\n      sload(0x00)\n      dup2\n      jump\t// out\n        /* \"#utility.yul\":88:205   */\n    tag_34:\n        /* \"#utility.yul\":197:198   */\n      0x00\n        /* \"#utility.yul\":194:195   */\n      dup1\n        /* \"#utility.yul\":187:199   */\n      revert\n        /* \"#utility.yul\":334:411   */\n    tag_36:\n        /* \"#utility.yul\":371:378   */\n      0x00\n        /* \"#utility.yul\":400:405   */\n      dup2\n        /* \"#utility.yul\":389:405   */\n      swap1\n      pop\n        /* \"#utility.yul\":334:411   */\n      swap2\n      swap1\n      pop\n      jump\t// out\n        /* \"#utility.yul\":417:539   */\n    tag_37:\n        /* \"#utility.yul\":490:514   */\n      tag_55\n        /* \"#utility.yul\":508:513   */\n      dup2\n        /* \"#utility.yul\":490:514   */\n      tag_36\n      jump\t// in\n    tag_55:\n        /* \"#utility.yul\":483:488   */\n      dup2\n        /* \"#utility.yul\":480:515   */\n      eq\n        /* \"#utility.yul\":470:533   */\n      tag_56\n      jumpi\n        /* \"#utility.yul\":529:530   */\n      0x00\n        /* \"#utility.yul\":526:527   */\n      dup1\n        /* \"#utility.yul\":519:531   */\n      revert\n        /* \"#utility.yul\":470:533   */\n    tag_56:\n        /* \"#utility.yul\":417:539   */\n      pop\n      jump\t// out\n        /* \"#utility.yul\":545:684   */\n    tag_38:\n        /* \"#utility.yul\":591:596   */\n      0x00\n        /* \"#utility.yul\":629:635   */\n      dup2\n        /* \"#utility.yul\":616:636   */\n      calldataload\n        /* \"#utility.yul\":607:636   */\n      swap1\n      pop\n        /* \"#utility.yul\":645:678   */\n      tag_58\n        /* \"#utility.yul\":672:677   */\n      dup2\n        /* \"#utility.yul\":645:678   */\n      tag_37\n      jump\t// in\n    tag_58:\n        /* \"#utility.yul\":545:684   */\n      swap3\n      swap2\n      pop\n      pop\n      jump\t// out\n        /* \"#utility.yul\":690:1019   */\n    tag_11:\n        /* \"#utility.yul\":749:755   */\n      0x00\n        /* \"#utility.yul\":798:800   */\n      0x20\n        /* \"#utility.yul\":786:795   */\n      dup3\n        /* \"#utility.yul\":777:784   */\n      dup5\n        /* \"#utility.yul\":773:796   */\n      sub\n        /* \"#utility.yul\":769:801   */\n      slt\n        /* \"#utility.yul\":766:885   */\n      iszero\n      tag_60\n      jumpi\n        /* \"#utility.yul\":804:883   */\n      tag_61\n      tag_34\n      jump\t// in\n    tag_61:\n        /* \"#utility.yul\":766:885   */\n    tag_60:\n        /* \"#utility.yul\":924:925   */\n      0x00\n        /* \"#utility.yul\":949:1002   */\n      tag_62\n        /* \"#utility.yul\":994:1001   */\n      dup5\n        /* \"#utility.yul\":985:991   */\n      dup3\n        /* \"#utility.yul\":974:983   */\n      dup6\n        /* \"#utility.yul\":970:992   */\n      add\n        /* \"#utility.yul\":949:1002   */\n      tag_38\n      jump\t// in\n    tag_62:\n        /* \"#utility.yul\":939:1002   */\n      swap2\n      pop\n        /* \"#utility.yul\":895:1012   */\n      pop\n        /* \"#utility.yul\":690:1019   */\n      swap3\n      swap2\n      pop\n      pop\n      jump\t// out\n        /* \"#utility.yul\":1025:1151   */\n    tag_39:\n        /* \"#utility.yul\":1062:1069   */\n      0x00\n        /* \"#utility.yul\":1102:1144   */\n      0xffffffffffffffffffffffffffffffffffffffff\n        /* \"#utility.yul\":1095:1100   */\n      dup3\n        /* \"#utility.yul\":1091:1145   */\n      and\n        /* \"#utility.yul\":1080:1145   */\n      swap1\n      pop\n        /* \"#utility.yul\":1025:1151   */\n      swap2\n      swap1\n      pop\n      jump\t// out\n        /* \"#utility.yul\":1157:1253   */\n    tag_40:\n        /* \"#utility.yul\":1194:1201   */\n      0x00\n        /* \"#utility.yul\":1223:1247   */\n      tag_65\n        /* \"#utility.yul\":1241:1246   */\n      dup3\n        /* \"#utility.yul\":1223:1247   */\n      tag_39\n      jump\t// in\n    tag_65:\n        /* \"#utility.yul\":1212:1247   */\n      swap1\n      pop\n        /* \"#utility.yul\":1157:1253   */\n      swap2\n      swap1\n      pop\n      jump\t// out\n        /* \"#utility.yul\":1259:1377   */\n    tag_41:\n        /* \"#utility.yul\":1346:1370   */\n      tag_67\n        /* \"#utility.yul\":1364:1369   */\n      dup2\n        /* \"#utility.yul\":1346:1370   */\n      tag_40\n      jump\t// in\n    tag_67:\n        /* \"#utility.yul\":1341:1344   */\n      dup3\n        /* \"#utility.yul\":1334:1371   */\n      mstore\n        /* \"#utility.yul\":1259:1377   */\n      pop\n      pop\n      jump\t// out\n        /* \"#utility.yul\":1383:1605   */\n    tag_17:\n        /* \"#utility.yul\":1476:1480   */\n      0x00\n        /* \"#utility.yul\":1514:1516   */\n      0x20\n        /* \"#utility.yul\":1503:1512   */\n      dup3\n        /* \"#utility.yul\":1499:1517   */\n      add\n        /* \"#utility.yul\":1491:1517   */\n      swap1\n      pop\n        /* \"#utility.yul\":1527:1598   */\n      tag_69\n        /* \"#utility.yul\":1595:1596   */\n      0x00\n        /* \"#utility.yul\":1584:1593   */\n      dup4\n        /* \"#utility.yul\":1580:1597   */\n      add\n        /* \"#utility.yul\":1571:1577   */\n      dup5\n        /* \"#utility.yul\":1527:1598   */\n      tag_41\n      jump\t// in\n    tag_69:\n        /* \"#utility.yul\":1383:1605   */\n      swap3\n      swap2\n      pop\n      pop\n      jump\t// out\n        /* \"#utility.yul\":1611:1729   */\n    tag_42:\n        /* \"#utility.yul\":1698:1722   */\n      tag_71\n        /* \"#utility.yul\":1716:1721   */\n      dup2\n        /* \"#utility.yul\":1698:1722   */\n      tag_36\n      jump\t// in\n    tag_71:\n        /* \"#utility.yul\":1693:1696   */\n      dup3\n        /* \"#utility.yul\":1686:1723   */\n      mstore\n        /* \"#utility.yul\":1611:1729   */\n      pop\n      pop\n      jump\t// out\n        /* \"#utility.yul\":1735:1957   */\n    tag_22:\n        /* \"#utility.yul\":1828:1832   */\n      0x00\n        /* \"#utility.yul\":1866:1868   */\n      0x20\n        /* \"#utility.yul\":1855:1864   */\n      dup3\n        /* \"#utility.yul\":1851:1869   */\n      add\n        /* \"#utility.yul\":1843:1869   */\n      swap1\n      pop\n        /* \"#utility.yul\":1879:1950   */\n      tag_73\n        /* \"#utility.yul\":1947:1948   */\n      0x00\n        /* \"#utility.yul\":1936:1945   */\n      dup4\n        /* \"#utility.yul\":1932:1949   */\n      add\n        /* \"#utility.yul\":1923:1929   */\n      dup5\n        /* \"#utility.yul\":1879:1950   */\n      tag_42\n      jump\t// in\n    tag_73:\n        /* \"#utility.yul\":1735:1957   */\n      swap3\n      swap2\n      pop\n      pop\n      jump\t// out\n        /* \"#utility.yul\":1963:2132   */\n    tag_43:\n        /* \"#utility.yul\":2047:2058   */\n      0x00\n        /* \"#utility.yul\":2081:2087   */\n      dup3\n        /* \"#utility.yul\":2076:2079   */\n      dup3\n        /* \"#utility.yul\":2069:2088   */\n      mstore\n        /* \"#utility.yul\":2121:2125   */\n      0x20\n        /* \"#utility.yul\":2116:2119   */\n      dup3\n        /* \"#utility.yul\":2112:2126   */\n      add\n        /* \"#utility.yul\":2097:2126   */\n      swap1\n      pop\n        /* \"#utility.yul\":1963:2132   */\n      swap3\n      swap2\n      pop\n      pop\n      jump\t// out\n        /* \"#utility.yul\":2138:2352   */\n    tag_44:\n        /* \"#utility.yul\":2278:2344   */\n      0xeca780eab091eca3bcec868ceab08020eba79eec8ab5eb8b88eb8ba400000000\n        /* \"#utility.yul\":2274:2275   */\n      0x00\n        /* \"#utility.yul\":2266:2272   */\n      dup3\n        /* \"#utility.yul\":2262:2276   */\n      add\n        /* \"#utility.yul\":2255:2345   */\n      mstore\n        /* \"#utility.yul\":2138:2352   */\n      pop\n      jump\t// out\n        /* \"#utility.yul\":2358:2724   */\n    tag_45:\n        /* \"#utility.yul\":2500:2503   */\n      0x00\n        /* \"#utility.yul\":2521:2588   */\n      tag_77\n        /* \"#utility.yul\":2585:2587   */\n      0x1c\n        /* \"#utility.yul\":2580:2583   */\n      dup4\n        /* \"#utility.yul\":2521:2588   */\n      tag_43\n      jump\t// in\n    tag_77:\n        /* \"#utility.yul\":2514:2588   */\n      swap2\n      pop\n        /* \"#utility.yul\":2597:2690   */\n      tag_78\n        /* \"#utility.yul\":2686:2689   */\n      dup3\n        /* \"#utility.yul\":2597:2690   */\n      tag_44\n      jump\t// in\n    tag_78:\n        /* \"#utility.yul\":2715:2717   */\n      0x20\n        /* \"#utility.yul\":2710:2713   */\n      dup3\n        /* \"#utility.yul\":2706:2718   */\n      add\n        /* \"#utility.yul\":2699:2718   */\n      swap1\n      pop\n        /* \"#utility.yul\":2358:2724   */\n      swap2\n      swap1\n      pop\n      jump\t// out\n        /* \"#utility.yul\":2730:3149   */\n    tag_26:\n        /* \"#utility.yul\":2896:2900   */\n      0x00\n        /* \"#utility.yul\":2934:2936   */\n      0x20\n        /* \"#utility.yul\":2923:2932   */\n      dup3\n        /* \"#utility.yul\":2919:2937   */\n      add\n        /* \"#utility.yul\":2911:2937   */\n      swap1\n      pop\n        /* \"#utility.yul\":2983:2992   */\n      dup2\n        /* \"#utility.yul\":2977:2981   */\n      dup2\n        /* \"#utility.yul\":2973:2993   */\n      sub\n        /* \"#utility.yul\":2969:2970   */\n      0x00\n        /* \"#utility.yul\":2958:2967   */\n      dup4\n        /* \"#utility.yul\":2954:2971   */\n      add\n        /* \"#utility.yul\":2947:2994   */\n      mstore\n        /* \"#utility.yul\":3011:3142   */\n      tag_80\n        /* \"#utility.yul\":3137:3141   */\n      dup2\n        /* \"#utility.yul\":3011:3142   */\n      tag_45\n      jump\t// in\n    tag_80:\n        /* \"#utility.yul\":3003:3142   */\n      swap1\n      pop\n        /* \"#utility.yul\":2730:3149   */\n      swap2\n      swap1\n      pop\n      jump\t// out\n        /* \"#utility.yul\":3155:3335   */\n    tag_46:\n        /* \"#utility.yul\":3203:3280   */\n      0x4e487b7100000000000000000000000000000000000000000000000000000000\n        /* \"#utility.yul\":3200:3201   */\n      0x00\n        /* \"#utility.yul\":3193:3281   */\n      mstore\n        /* \"#utility.yul\":3300:3304   */\n      0x11\n        /* \"#utility.yul\":3297:3298   */\n      0x04\n        /* \"#utility.yul\":3290:3305   */\n      mstore\n        /* \"#utility.yul\":3324:3328   */\n      0x24\n        /* \"#utility.yul\":3321:3322   */\n      0x00\n        /* \"#utility.yul\":3314:3329   */\n      revert\n        /* \"#utility.yul\":3341:3532   */\n    tag_28:\n        /* \"#utility.yul\":3381:3384   */\n      0x00\n        /* \"#utility.yul\":3400:3420   */\n      tag_83\n        /* \"#utility.yul\":3418:3419   */\n      dup3\n        /* \"#utility.yul\":3400:3420   */\n      tag_36\n      jump\t// in\n    tag_83:\n        /* \"#utility.yul\":3395:3420   */\n      swap2\n      pop\n        /* \"#utility.yul\":3434:3454   */\n      tag_84\n        /* \"#utility.yul\":3452:3453   */\n      dup4\n        /* \"#utility.yul\":3434:3454   */\n      tag_36\n      jump\t// in\n    tag_84:\n        /* \"#utility.yul\":3429:3454   */\n      swap3\n      pop\n        /* \"#utility.yul\":3477:3478   */\n      dup3\n        /* \"#utility.yul\":3474:3475   */\n      dup3\n        /* \"#utility.yul\":3470:3479   */\n      add\n        /* \"#utility.yul\":3463:3479   */\n      swap1\n      pop\n        /* \"#utility.yul\":3498:3501   */\n      dup1\n        /* \"#utility.yul\":3495:3496   */\n      dup3\n        /* \"#utility.yul\":3492:3502   */\n      gt\n        /* \"#utility.yul\":3489:3525   */\n      iszero\n      tag_85\n      jumpi\n        /* \"#utility.yul\":3505:3523   */\n      tag_86\n      tag_46\n      jump\t// in\n    tag_86:\n        /* \"#utility.yul\":3489:3525   */\n    tag_85:\n        /* \"#utility.yul\":3341:3532   */\n      swap3\n      swap2\n      pop\n      pop\n      jump\t// out\n        /* \"#utility.yul\":3538:3752   */\n    tag_47:\n        /* \"#utility.yul\":3678:3744   */\n      0xeca780eab091eca3bcec868ceab08020ec9584eb8b99eb8b88eb8ba400000000\n        /* \"#utility.yul\":3674:3675   */\n      0x00\n        /* \"#utility.yul\":3666:3672   */\n      dup3\n        /* \"#utility.yul\":3662:3676   */\n      add\n        /* \"#utility.yul\":3655:3745   */\n      mstore\n        /* \"#utility.yul\":3538:3752   */\n      pop\n      jump\t// out\n        /* \"#utility.yul\":3758:4124   */\n    tag_48:\n        /* \"#utility.yul\":3900:3903   */\n      0x00\n        /* \"#utility.yul\":3921:3988   */\n      tag_89\n        /* \"#utility.yul\":3985:3987   */\n      0x1c\n        /* \"#utility.yul\":3980:3983   */\n      dup4\n        /* \"#utility.yul\":3921:3988   */\n      tag_43\n      jump\t// in\n    tag_89:\n        /* \"#utility.yul\":3914:3988   */\n      swap2\n      pop\n        /* \"#utility.yul\":3997:4090   */\n      tag_90\n        /* \"#utility.yul\":4086:4089   */\n      dup3\n        /* \"#utility.yul\":3997:4090   */\n      tag_47\n      jump\t// in\n    tag_90:\n        /* \"#utility.yul\":4115:4117   */\n      0x20\n        /* \"#utility.yul\":4110:4113   */\n      dup3\n        /* \"#utility.yul\":4106:4118   */\n      add\n        /* \"#utility.yul\":4099:4118   */\n      swap1\n      pop\n        /* \"#utility.yul\":3758:4124   */\n      swap2\n      swap1\n      pop\n      jump\t// out\n        /* \"#utility.yul\":4130:4549   */\n    tag_32:\n        /* \"#utility.yul\":4296:4300   */\n      0x00\n        /* \"#utility.yul\":4334:4336   */\n      0x20\n        /* \"#utility.yul\":4323:4332   */\n      dup3\n        /* \"#utility.yul\":4319:4337   */\n      add\n        /* \"#utility.yul\":4311:4337   */\n      swap1\n      pop\n        /* \"#utility.yul\":4383:4392   */\n      dup2\n        /* \"#utility.yul\":4377:4381   */\n      dup2\n        /* \"#utility.yul\":4373:4393   */\n      sub\n        /* \"#utility.yul\":4369:4370   */\n      0x00\n        /* \"#utility.yul\":4358:4367   */\n      dup4\n        /* \"#utility.yul\":4354:4371   */\n      add\n        /* \"#utility.yul\":4347:4394   */\n      mstore\n        /* \"#utility.yul\":4411:4542   */\n      tag_92\n        /* \"#utility.yul\":4537:4541   */\n      dup2\n        /* \"#utility.yul\":4411:4542   */\n      tag_48\n      jump\t// in\n    tag_92:\n        /* \"#utility.yul\":4403:4542   */\n      swap1\n      pop\n        /* \"#utility.yul\":4130:4549   */\n      swap2\n      swap1\n      pop\n      jump\t// out\n\n    auxdata: 0xa26469706673582212204f6133c14e471a60ac2759486bab9768e3f35020169f290da4105b3c36f5049864736f6c634300081a0033\n}\n",
				"bytecode": {
					"linkReferences": {},
					"object": "6080604052348015600e575f80fd5b505f80819055503360015f6101000a81548173ffffffffffffffffffffffffffffffffffffffff021916908373ffffffffffffffffffffffffffffffffffffffff160217905550610473806100625f395ff3fe608060405260043610610037575f3560e01c8063264fad5f146100425780636ad5b3ea1461006a578063d9803282146100945761003e565b3661003e57005b5f80fd5b34801561004d575f80fd5b5061006860048036038101906100639190610252565b6100be565b005b348015610075575f80fd5b5061007e6101f1565b60405161008b91906102bc565b60405180910390f35b34801561009f575f80fd5b506100a8610216565b6040516100b591906102e4565b60405180910390f35b3373ffffffffffffffffffffffffffffffffffffffff1660015f9054906101000a900473ffffffffffffffffffffffffffffffffffffffff1673ffffffffffffffffffffffffffffffffffffffff1603610163577f241ba3bafc919fb4308284ce03a8f4867a8ec2f0401445d3cf41a468e7db4ae060405161013f90610357565b60405180910390a1805f8082825461015791906103a2565b925050819055506101ee565b3373ffffffffffffffffffffffffffffffffffffffff1660015f9054906101000a900473ffffffffffffffffffffffffffffffffffffffff1673ffffffffffffffffffffffffffffffffffffffff16146101ed577f241ba3bafc919fb4308284ce03a8f4867a8ec2f0401445d3cf41a468e7db4ae06040516101e49061041f565b60405180910390a15b5b50565b60015f9054906101000a900473ffffffffffffffffffffffffffffffffffffffff1681565b5f5481565b5f80fd5b5f819050919050565b6102318161021f565b811461023b575f80fd5b50565b5f8135905061024c81610228565b92915050565b5f602082840312156102675761026661021b565b5b5f6102748482850161023e565b91505092915050565b5f73ffffffffffffffffffffffffffffffffffffffff82169050919050565b5f6102a68261027d565b9050919050565b6102b68161029c565b82525050565b5f6020820190506102cf5f8301846102ad565b92915050565b6102de8161021f565b82525050565b5f6020820190506102f75f8301846102d5565b92915050565b5f82825260208201905092915050565b7feca780eab091eca3bcec868ceab08020eba79eec8ab5eb8b88eb8ba4000000005f82015250565b5f610341601c836102fd565b915061034c8261030d565b602082019050919050565b5f6020820190508181035f83015261036e81610335565b9050919050565b7f4e487b71000000000000000000000000000000000000000000000000000000005f52601160045260245ffd5b5f6103ac8261021f565b91506103b78361021f565b92508282019050808211156103cf576103ce610375565b5b92915050565b7feca780eab091eca3bcec868ceab08020ec9584eb8b99eb8b88eb8ba4000000005f82015250565b5f610409601c836102fd565b9150610414826103d5565b602082019050919050565b5f6020820190508181035f830152610436816103fd565b905091905056fea26469706673582212204f6133c14e471a60ac2759486bab9768e3f35020169f290da4105b3c36f5049864736f6c634300081a0033",
					"opcodes": "PUSH1 0x80 PUSH1 0x40 MSTORE CALLVALUE DUP1 ISZERO PUSH1 0xE JUMPI PUSH0 DUP1 REVERT JUMPDEST POP PUSH0 DUP1 DUP2 SWAP1 SSTORE POP CALLER PUSH1 0x1 PUSH0 PUSH2 0x100 EXP DUP2 SLOAD DUP2 PUSH20 0xFFFFFFFFFFFFFFFFFFFFFFFFFFFFFFFFFFFFFFFF MUL NOT AND SWAP1 DUP4 PUSH20 0xFFFFFFFFFFFFFFFFFFFFFFFFFFFFFFFFFFFFFFFF AND MUL OR SWAP1 SSTORE POP PUSH2 0x473 DUP1 PUSH2 0x62 PUSH0 CODECOPY PUSH0 RETURN INVALID PUSH1 0x80 PUSH1 0x40 MSTORE PUSH1 0x4 CALLDATASIZE LT PUSH2 0x37 JUMPI PUSH0 CALLDATALOAD PUSH1 0xE0 SHR DUP1 PUSH4 0x264FAD5F EQ PUSH2 0x42 JUMPI DUP1 PUSH4 0x6AD5B3EA EQ PUSH2 0x6A JUMPI DUP1 PUSH4 0xD9803282 EQ PUSH2 0x94 JUMPI PUSH2 0x3E JUMP JUMPDEST CALLDATASIZE PUSH2 0x3E JUMPI STOP JUMPDEST PUSH0 DUP1 REVERT JUMPDEST CALLVALUE DUP1 ISZERO PUSH2 0x4D JUMPI PUSH0 DUP1 REVERT JUMPDEST POP PUSH2 0x68 PUSH1 0x4 DUP1 CALLDATASIZE SUB DUP2 ADD SWAP1 PUSH2 0x63 SWAP2 SWAP1 PUSH2 0x252 JUMP JUMPDEST PUSH2 0xBE JUMP JUMPDEST STOP JUMPDEST CALLVALUE DUP1 ISZERO PUSH2 0x75 JUMPI PUSH0 DUP1 REVERT JUMPDEST POP PUSH2 0x7E PUSH2 0x1F1 JUMP JUMPDEST PUSH1 0x40 MLOAD PUSH2 0x8B SWAP2 SWAP1 PUSH2 0x2BC JUMP JUMPDEST PUSH1 0x40 MLOAD DUP1 SWAP2 SUB SWAP1 RETURN JUMPDEST CALLVALUE DUP1 ISZERO PUSH2 0x9F JUMPI PUSH0 DUP1 REVERT JUMPDEST POP PUSH2 0xA8 PUSH2 0x216 JUMP JUMPDEST PUSH1 0x40 MLOAD PUSH2 0xB5 SWAP2 SWAP1 PUSH2 0x2E4 JUMP JUMPDEST PUSH1 0x40 MLOAD DUP1 SWAP2 SUB SWAP1 RETURN JUMPDEST CALLER PUSH20 0xFFFFFFFFFFFFFFFFFFFFFFFFFFFFFFFFFFFFFFFF AND PUSH1 0x1 PUSH0 SWAP1 SLOAD SWAP1 PUSH2 0x100 EXP SWAP1 DIV PUSH20 0xFFFFFFFFFFFFFFFFFFFFFFFFFFFFFFFFFFFFFFFF AND PUSH20 0xFFFFFFFFFFFFFFFFFFFFFFFFFFFFFFFFFFFFFFFF AND SUB PUSH2 0x163 JUMPI PUSH32 0x241BA3BAFC919FB4308284CE03A8F4867A8EC2F0401445D3CF41A468E7DB4AE0 PUSH1 0x40 MLOAD PUSH2 0x13F SWAP1 PUSH2 0x357 JUMP JUMPDEST PUSH1 0x40 MLOAD DUP1 SWAP2 SUB SWAP1 LOG1 DUP1 PUSH0 DUP1 DUP3 DUP3 SLOAD PUSH2 0x157 SWAP2 SWAP1 PUSH2 0x3A2 JUMP JUMPDEST SWAP3 POP POP DUP2 SWAP1 SSTORE POP PUSH2 0x1EE JUMP JUMPDEST CALLER PUSH20 0xFFFFFFFFFFFFFFFFFFFFFFFFFFFFFFFFFFFFFFFF AND PUSH1 0x1 PUSH0 SWAP1 SLOAD SWAP1 PUSH2 0x100 EXP SWAP1 DIV PUSH20 0xFFFFFFFFFFFFFFFFFFFFFFFFFFFFFFFFFFFFFFFF AND PUSH20 0xFFFFFFFFFFFFFFFFFFFFFFFFFFFFFFFFFFFFFFFF AND EQ PUSH2 0x1ED JUMPI PUSH32 0x241BA3BAFC919FB4308284CE03A8F4867A8EC2F0401445D3CF41A468E7DB4AE0 PUSH1 0x40 MLOAD PUSH2 0x1E4 SWAP1 PUSH2 0x41F JUMP JUMPDEST PUSH1 0x40 MLOAD DUP1 SWAP2 SUB SWAP1 LOG1 JUMPDEST JUMPDEST POP JUMP JUMPDEST PUSH1 0x1 PUSH0 SWAP1 SLOAD SWAP1 PUSH2 0x100 EXP SWAP1 DIV PUSH20 0xFFFFFFFFFFFFFFFFFFFFFFFFFFFFFFFFFFFFFFFF AND DUP2 JUMP JUMPDEST PUSH0 SLOAD DUP2 JUMP JUMPDEST PUSH0 DUP1 REVERT JUMPDEST PUSH0 DUP2 SWAP1 POP SWAP2 SWAP1 POP JUMP JUMPDEST PUSH2 0x231 DUP2 PUSH2 0x21F JUMP JUMPDEST DUP2 EQ PUSH2 0x23B JUMPI PUSH0 DUP1 REVERT JUMPDEST POP JUMP JUMPDEST PUSH0 DUP2 CALLDATALOAD SWAP1 POP PUSH2 0x24C DUP2 PUSH2 0x228 JUMP JUMPDEST SWAP3 SWAP2 POP POP JUMP JUMPDEST PUSH0 PUSH1 0x20 DUP3 DUP5 SUB SLT ISZERO PUSH2 0x267 JUMPI PUSH2 0x266 PUSH2 0x21B JUMP JUMPDEST JUMPDEST PUSH0 PUSH2 0x274 DUP5 DUP3 DUP6 ADD PUSH2 0x23E JUMP JUMPDEST SWAP2 POP POP SWAP3 SWAP2 POP POP JUMP JUMPDEST PUSH0 PUSH20 0xFFFFFFFFFFFFFFFFFFFFFFFFFFFFFFFFFFFFFFFF DUP3 AND SWAP1 POP SWAP2 SWAP1 POP JUMP JUMPDEST PUSH0 PUSH2 0x2A6 DUP3 PUSH2 0x27D JUMP JUMPDEST SWAP1 POP SWAP2 SWAP1 POP JUMP JUMPDEST PUSH2 0x2B6 DUP2 PUSH2 0x29C JUMP JUMPDEST DUP3 MSTORE POP POP JUMP JUMPDEST PUSH0 PUSH1 0x20 DUP3 ADD SWAP1 POP PUSH2 0x2CF PUSH0 DUP4 ADD DUP5 PUSH2 0x2AD JUMP JUMPDEST SWAP3 SWAP2 POP POP JUMP JUMPDEST PUSH2 0x2DE DUP2 PUSH2 0x21F JUMP JUMPDEST DUP3 MSTORE POP POP JUMP JUMPDEST PUSH0 PUSH1 0x20 DUP3 ADD SWAP1 POP PUSH2 0x2F7 PUSH0 DUP4 ADD DUP5 PUSH2 0x2D5 JUMP JUMPDEST SWAP3 SWAP2 POP POP JUMP JUMPDEST PUSH0 DUP3 DUP3 MSTORE PUSH1 0x20 DUP3 ADD SWAP1 POP SWAP3 SWAP2 POP POP JUMP JUMPDEST PUSH32 0xECA780EAB091ECA3BCEC868CEAB08020EBA79EEC8AB5EB8B88EB8BA400000000 PUSH0 DUP3 ADD MSTORE POP JUMP JUMPDEST PUSH0 PUSH2 0x341 PUSH1 0x1C DUP4 PUSH2 0x2FD JUMP JUMPDEST SWAP2 POP PUSH2 0x34C DUP3 PUSH2 0x30D JUMP JUMPDEST PUSH1 0x20 DUP3 ADD SWAP1 POP SWAP2 SWAP1 POP JUMP JUMPDEST PUSH0 PUSH1 0x20 DUP3 ADD SWAP1 POP DUP2 DUP2 SUB PUSH0 DUP4 ADD MSTORE PUSH2 0x36E DUP2 PUSH2 0x335 JUMP JUMPDEST SWAP1 POP SWAP2 SWAP1 POP JUMP JUMPDEST PUSH32 0x4E487B7100000000000000000000000000000000000000000000000000000000 PUSH0 MSTORE PUSH1 0x11 PUSH1 0x4 MSTORE PUSH1 0x24 PUSH0 REVERT JUMPDEST PUSH0 PUSH2 0x3AC DUP3 PUSH2 0x21F JUMP JUMPDEST SWAP2 POP PUSH2 0x3B7 DUP4 PUSH2 0x21F JUMP JUMPDEST SWAP3 POP DUP3 DUP3 ADD SWAP1 POP DUP1 DUP3 GT ISZERO PUSH2 0x3CF JUMPI PUSH2 0x3CE PUSH2 0x375 JUMP JUMPDEST JUMPDEST SWAP3 SWAP2 POP POP JUMP JUMPDEST PUSH32 0xECA780EAB091ECA3BCEC868CEAB08020EC9584EB8B99EB8B88EB8BA400000000 PUSH0 DUP3 ADD MSTORE POP JUMP JUMPDEST PUSH0 PUSH2 0x409 PUSH1 0x1C DUP4 PUSH2 0x2FD JUMP JUMPDEST SWAP2 POP PUSH2 0x414 DUP3 PUSH2 0x3D5 JUMP JUMPDEST PUSH1 0x20 DUP3 ADD SWAP1 POP SWAP2 SWAP1 POP JUMP JUMPDEST PUSH0 PUSH1 0x20 DUP3 ADD SWAP1 POP DUP2 DUP2 SUB PUSH0 DUP4 ADD MSTORE PUSH2 0x436 DUP2 PUSH2 0x3FD JUMP JUMPDEST SWAP1 POP SWAP2 SWAP1 POP JUMP INVALID LOG2 PUSH5 0x6970667358 0x22 SLT KECCAK256 0x4F PUSH2 0x33C1 0x4E SELFBALANCE BYTE PUSH1 0xAC 0x27 MSIZE BASEFEE PUSH12 0xAB9768E3F35020169F290DA4 LT JUMPDEST EXTCODECOPY CALLDATASIZE CREATE2 DIV SWAP9 PUSH5 0x736F6C6343 STOP ADDMOD BYTE STOP CALLER "
				},
				"gasEstimates": {
					"creation": {
						"codeDepositCost": "227800",
						"executionCost": "29545",
						"totalCost": "257345"
					},
					"external": {
						"inputWallet(uint256)": "infinite",
						"walletAddress()": "2508",
						"walletEther()": "2446"
					}
				},
				"methodIdentifiers": {
					"inputWallet(uint256)": "264fad5f",
					"walletAddress()": "6ad5b3ea",
					"walletEther()": "d9803282"
				}
			},
			"storageLayout": {
				"storage": [
					{
						"astId": 2,
						"contract": "contracts/test.sol:EtherWallet",
						"label": "walletEther",
						"offset": 0,
						"slot": "0",
						"type": "t_uint256"
					},
					{
						"astId": 4,
						"contract": "contracts/test.sol:EtherWallet",
						"label": "walletAddress",
						"offset": 0,
						"slot": "1",
						"type": "t_address"
					}
				],
				"types": {
					"t_address": {
						"encoding": "inplace",
						"label": "address",
						"numberOfBytes": "20"
					},
					"t_uint256": {
						"encoding": "inplace",
						"label": "uint256",
						"numberOfBytes": "32"
					}
				}
			},
			"userdoc": {
				"kind": "user",
				"methods": {},
				"version": 1
			}
		}
	}
}