{
	"contracts/Auction_bang.sol": {
		"Auction": {
			"abi": [
				{
					"anonymous": false,
					"inputs": [
						{
							"indexed": true,
							"internalType": "address",
							"name": "highestBidder",
							"type": "address"
						},
						{
							"indexed": false,
							"internalType": "uint256",
							"name": "highestBid",
							"type": "uint256"
						}
					],
					"name": "BidEvent",
					"type": "event"
				},
				{
					"anonymous": false,
					"inputs": [
						{
							"indexed": false,
							"internalType": "uint256",
							"name": "message",
							"type": "uint256"
						},
						{
							"indexed": false,
							"internalType": "uint256",
							"name": "time",
							"type": "uint256"
						}
					],
					"name": "CanceledEvent",
					"type": "event"
				},
				{
					"anonymous": false,
					"inputs": [
						{
							"indexed": false,
							"internalType": "enum Auction.auction_state",
							"name": "newState",
							"type": "uint8"
						}
					],
					"name": "StateUpdated",
					"type": "event"
				},
				{
					"anonymous": false,
					"inputs": [
						{
							"indexed": false,
							"internalType": "address",
							"name": "withdrawer",
							"type": "address"
						},
						{
							"indexed": false,
							"internalType": "uint256",
							"name": "amount",
							"type": "uint256"
						}
					],
					"name": "WithdrawalEvent",
					"type": "event"
				},
				{
					"inputs": [],
					"name": "Mycar",
					"outputs": [
						{
							"internalType": "string",
							"name": "Brand",
							"type": "string"
						},
						{
							"internalType": "string",
							"name": "Rnumber",
							"type": "string"
						}
					],
					"stateMutability": "view",
					"type": "function"
				},
				{
					"inputs": [],
					"name": "STATE",
					"outputs": [
						{
							"internalType": "enum Auction.auction_state",
							"name": "",
							"type": "uint8"
						}
					],
					"stateMutability": "view",
					"type": "function"
				},
				{
					"inputs": [],
					"name": "auction_end",
					"outputs": [
						{
							"internalType": "uint256",
							"name": "",
							"type": "uint256"
						}
					],
					"stateMutability": "view",
					"type": "function"
				},
				{
					"inputs": [],
					"name": "auction_start",
					"outputs": [
						{
							"internalType": "uint256",
							"name": "",
							"type": "uint256"
						}
					],
					"stateMutability": "view",
					"type": "function"
				},
				{
					"inputs": [],
					"name": "bid",
					"outputs": [
						{
							"internalType": "bool",
							"name": "",
							"type": "bool"
						}
					],
					"stateMutability": "payable",
					"type": "function"
				},
				{
					"inputs": [
						{
							"internalType": "address",
							"name": "",
							"type": "address"
						}
					],
					"name": "bids",
					"outputs": [
						{
							"internalType": "uint256",
							"name": "",
							"type": "uint256"
						}
					],
					"stateMutability": "view",
					"type": "function"
				},
				{
					"inputs": [],
					"name": "cancel_auction",
					"outputs": [
						{
							"internalType": "bool",
							"name": "",
							"type": "bool"
						}
					],
					"stateMutability": "nonpayable",
					"type": "function"
				},
				{
					"inputs": [],
					"name": "highestBid",
					"outputs": [
						{
							"internalType": "uint256",
							"name": "",
							"type": "uint256"
						}
					],
					"stateMutability": "view",
					"type": "function"
				},
				{
					"inputs": [],
					"name": "highestBidder",
					"outputs": [
						{
							"internalType": "address",
							"name": "",
							"type": "address"
						}
					],
					"stateMutability": "view",
					"type": "function"
				},
				{
					"inputs": [],
					"name": "withdraw",
					"outputs": [
						{
							"internalType": "bool",
							"name": "",
							"type": "bool"
						}
					],
					"stateMutability": "nonpayable",
					"type": "function"
				}
			],
			"devdoc": {
				"kind": "dev",
				"methods": {},
				"version": 1
			},
			"evm": {
				"assembly": "    /* \"contracts/Auction_bang.sol\":60:2167  contract Auction {\r... */\n  mstore(0x40, 0x80)\n    /* \"contracts/Auction_bang.sol\":376:381  false */\n  0x00\n    /* \"contracts/Auction_bang.sol\":348:381  bool internal  isWithdraw = false */\n  0x04\n  exp(0x0100, 0x14)\n  dup2\n  sload\n  dup2\n  0xff\n  mul\n  not\n  and\n  swap1\n  dup4\n  iszero\n  iszero\n  mul\n  or\n  swap1\n  sstore\n  pop\n    /* \"contracts/Auction_bang.sol\":60:2167  contract Auction {\r... */\n  callvalue\n  dup1\n  iszero\n  tag_1\n  jumpi\n  0x00\n  dup1\n  revert\ntag_1:\n  pop\n  dataSize(sub_0)\n  dup1\n  dataOffset(sub_0)\n  0x00\n  codecopy\n  0x00\n  return\nstop\n\nsub_0: assembly {\n        /* \"contracts/Auction_bang.sol\":60:2167  contract Auction {\r... */\n      mstore(0x40, 0x80)\n      jumpi(tag_1, lt(calldatasize, 0x04))\n      shr(0xe0, calldataload(0x00))\n      dup1\n      0x78f45340\n      gt\n      tag_12\n      jumpi\n      dup1\n      0x78f45340\n      eq\n      tag_7\n      jumpi\n      dup1\n      0x91f90157\n      eq\n      tag_8\n      jumpi\n      dup1\n      0xc458b65a\n      eq\n      tag_9\n      jumpi\n      dup1\n      0xc486456c\n      eq\n      tag_10\n      jumpi\n      dup1\n      0xd57bde79\n      eq\n      tag_11\n      jumpi\n      jump(tag_1)\n    tag_12:\n      dup1\n      0x0216f202\n      eq\n      tag_2\n      jumpi\n      dup1\n      0x1998aeef\n      eq\n      tag_3\n      jumpi\n      dup1\n      0x3ba88ca1\n      eq\n      tag_4\n      jumpi\n      dup1\n      0x3ccfd60b\n      eq\n      tag_5\n      jumpi\n      dup1\n      0x62ea82db\n      eq\n      tag_6\n      jumpi\n    tag_1:\n      0x00\n      dup1\n      revert\n        /* \"contracts/Auction_bang.sol\":530:546  car public Mycar */\n    tag_2:\n      callvalue\n      dup1\n      iszero\n      tag_13\n      jumpi\n      0x00\n      dup1\n      revert\n    tag_13:\n      pop\n      tag_14\n      tag_15\n      jump\t// in\n    tag_14:\n      mload(0x40)\n      tag_16\n      swap3\n      swap2\n      swap1\n      tag_17\n      jump\t// in\n    tag_16:\n      mload(0x40)\n      dup1\n      swap2\n      sub\n      swap1\n      return\n        /* \"contracts/Auction_bang.sol\":1679:1734  function bid() public payable virtual returns (bool) {} */\n    tag_3:\n      tag_18\n      tag_19\n      jump\t// in\n    tag_18:\n      mload(0x40)\n      tag_20\n      swap2\n      swap1\n      tag_21\n      jump\t// in\n    tag_20:\n      mload(0x40)\n      dup1\n      swap2\n      sub\n      swap1\n      return\n        /* \"contracts/Auction_bang.sol\":1798:1858  function cancel_auction() external virtual returns (bool) {} */\n    tag_4:\n      callvalue\n      dup1\n      iszero\n      tag_22\n      jumpi\n      0x00\n      dup1\n      revert\n    tag_22:\n      pop\n      tag_23\n      tag_24\n      jump\t// in\n    tag_23:\n      mload(0x40)\n      tag_25\n      swap2\n      swap1\n      tag_21\n      jump\t// in\n    tag_25:\n      mload(0x40)\n      dup1\n      swap2\n      sub\n      swap1\n      return\n        /* \"contracts/Auction_bang.sol\":1740:1792  function withdraw() public virtual returns (bool) {} */\n    tag_5:\n      callvalue\n      dup1\n      iszero\n      tag_26\n      jumpi\n      0x00\n      dup1\n      revert\n    tag_26:\n      pop\n      tag_27\n      tag_28\n      jump\t// in\n    tag_27:\n      mload(0x40)\n      tag_29\n      swap2\n      swap1\n      tag_21\n      jump\t// in\n    tag_29:\n      mload(0x40)\n      dup1\n      swap2\n      sub\n      swap1\n      return\n        /* \"contracts/Auction_bang.sol\":577:613  mapping(address => uint) public bids */\n    tag_6:\n      callvalue\n      dup1\n      iszero\n      tag_30\n      jumpi\n      0x00\n      dup1\n      revert\n    tag_30:\n      pop\n      tag_31\n      0x04\n      dup1\n      calldatasize\n      sub\n      dup2\n      add\n      swap1\n      tag_32\n      swap2\n      swap1\n      tag_33\n      jump\t// in\n    tag_32:\n      tag_34\n      jump\t// in\n    tag_31:\n      mload(0x40)\n      tag_35\n      swap2\n      swap1\n      tag_36\n      jump\t// in\n    tag_35:\n      mload(0x40)\n      dup1\n      swap2\n      sub\n      swap1\n      return\n        /* \"contracts/Auction_bang.sol\":121:149  uint256 public auction_start */\n    tag_7:\n      callvalue\n      dup1\n      iszero\n      tag_37\n      jumpi\n      0x00\n      dup1\n      revert\n    tag_37:\n      pop\n      tag_38\n      tag_39\n      jump\t// in\n    tag_38:\n      mload(0x40)\n      tag_40\n      swap2\n      swap1\n      tag_36\n      jump\t// in\n    tag_40:\n      mload(0x40)\n      dup1\n      swap2\n      sub\n      swap1\n      return\n        /* \"contracts/Auction_bang.sol\":221:249  address public highestBidder */\n    tag_8:\n      callvalue\n      dup1\n      iszero\n      tag_41\n      jumpi\n      0x00\n      dup1\n      revert\n    tag_41:\n      pop\n      tag_42\n      tag_43\n      jump\t// in\n    tag_42:\n      mload(0x40)\n      tag_44\n      swap2\n      swap1\n      tag_45\n      jump\t// in\n    tag_44:\n      mload(0x40)\n      dup1\n      swap2\n      sub\n      swap1\n      return\n        /* \"contracts/Auction_bang.sol\":156:182  uint256 public auction_end */\n    tag_9:\n      callvalue\n      dup1\n      iszero\n      tag_46\n      jumpi\n      0x00\n      dup1\n      revert\n    tag_46:\n      pop\n      tag_47\n      tag_48\n      jump\t// in\n    tag_47:\n      mload(0x40)\n      tag_49\n      swap2\n      swap1\n      tag_36\n      jump\t// in\n    tag_49:\n      mload(0x40)\n      dup1\n      swap2\n      sub\n      swap1\n      return\n        /* \"contracts/Auction_bang.sol\":620:646  auction_state public STATE */\n    tag_10:\n      callvalue\n      dup1\n      iszero\n      tag_50\n      jumpi\n      0x00\n      dup1\n      revert\n    tag_50:\n      pop\n      tag_51\n      tag_52\n      jump\t// in\n    tag_51:\n      mload(0x40)\n      tag_53\n      swap2\n      swap1\n      tag_54\n      jump\t// in\n    tag_53:\n      mload(0x40)\n      dup1\n      swap2\n      sub\n      swap1\n      return\n        /* \"contracts/Auction_bang.sol\":189:214  uint256 public highestBid */\n    tag_11:\n      callvalue\n      dup1\n      iszero\n      tag_55\n      jumpi\n      0x00\n      dup1\n      revert\n    tag_55:\n      pop\n      tag_56\n      tag_57\n      jump\t// in\n    tag_56:\n      mload(0x40)\n      tag_58\n      swap2\n      swap1\n      tag_36\n      jump\t// in\n    tag_58:\n      mload(0x40)\n      dup1\n      swap2\n      sub\n      swap1\n      return\n        /* \"contracts/Auction_bang.sol\":530:546  car public Mycar */\n    tag_15:\n      0x05\n      dup1\n      0x00\n      add\n      dup1\n      sload\n      tag_59\n      swap1\n      tag_60\n      jump\t// in\n    tag_59:\n      dup1\n      0x1f\n      add\n      0x20\n      dup1\n      swap2\n      div\n      mul\n      0x20\n      add\n      mload(0x40)\n      swap1\n      dup2\n      add\n      0x40\n      mstore\n      dup1\n      swap3\n      swap2\n      swap1\n      dup2\n      dup2\n      mstore\n      0x20\n      add\n      dup3\n      dup1\n      sload\n      tag_61\n      swap1\n      tag_60\n      jump\t// in\n    tag_61:\n      dup1\n      iszero\n      tag_62\n      jumpi\n      dup1\n      0x1f\n      lt\n      tag_63\n      jumpi\n      0x0100\n      dup1\n      dup4\n      sload\n      div\n      mul\n      dup4\n      mstore\n      swap2\n      0x20\n      add\n      swap2\n      jump(tag_62)\n    tag_63:\n      dup3\n      add\n      swap2\n      swap1\n      0x00\n      mstore\n      keccak256(0x00, 0x20)\n      swap1\n    tag_64:\n      dup2\n      sload\n      dup2\n      mstore\n      swap1\n      0x01\n      add\n      swap1\n      0x20\n      add\n      dup1\n      dup4\n      gt\n      tag_64\n      jumpi\n      dup3\n      swap1\n      sub\n      0x1f\n      and\n      dup3\n      add\n      swap2\n    tag_62:\n      pop\n      pop\n      pop\n      pop\n      pop\n      swap1\n      dup1\n      0x01\n      add\n      dup1\n      sload\n      tag_65\n      swap1\n      tag_60\n      jump\t// in\n    tag_65:\n      dup1\n      0x1f\n      add\n      0x20\n      dup1\n      swap2\n      div\n      mul\n      0x20\n      add\n      mload(0x40)\n      swap1\n      dup2\n      add\n      0x40\n      mstore\n      dup1\n      swap3\n      swap2\n      swap1\n      dup2\n      dup2\n      mstore\n      0x20\n      add\n      dup3\n      dup1\n      sload\n      tag_66\n      swap1\n      tag_60\n      jump\t// in\n    tag_66:\n      dup1\n      iszero\n      tag_67\n      jumpi\n      dup1\n      0x1f\n      lt\n      tag_68\n      jumpi\n      0x0100\n      dup1\n      dup4\n      sload\n      div\n      mul\n      dup4\n      mstore\n      swap2\n      0x20\n      add\n      swap2\n      jump(tag_67)\n    tag_68:\n      dup3\n      add\n      swap2\n      swap1\n      0x00\n      mstore\n      keccak256(0x00, 0x20)\n      swap1\n    tag_69:\n      dup2\n      sload\n      dup2\n      mstore\n      swap1\n      0x01\n      add\n      swap1\n      0x20\n      add\n      dup1\n      dup4\n      gt\n      tag_69\n      jumpi\n      dup3\n      swap1\n      sub\n      0x1f\n      and\n      dup3\n      add\n      swap2\n    tag_67:\n      pop\n      pop\n      pop\n      pop\n      pop\n      swap1\n      pop\n      dup3\n      jump\t// out\n        /* \"contracts/Auction_bang.sol\":1679:1734  function bid() public payable virtual returns (bool) {} */\n    tag_19:\n        /* \"contracts/Auction_bang.sol\":1726:1730  bool */\n      0x00\n        /* \"contracts/Auction_bang.sol\":1679:1734  function bid() public payable virtual returns (bool) {} */\n      swap1\n      jump\t// out\n        /* \"contracts/Auction_bang.sol\":1798:1858  function cancel_auction() external virtual returns (bool) {} */\n    tag_24:\n        /* \"contracts/Auction_bang.sol\":1850:1854  bool */\n      0x00\n        /* \"contracts/Auction_bang.sol\":1798:1858  function cancel_auction() external virtual returns (bool) {} */\n      swap1\n      jump\t// out\n        /* \"contracts/Auction_bang.sol\":1740:1792  function withdraw() public virtual returns (bool) {} */\n    tag_28:\n        /* \"contracts/Auction_bang.sol\":1784:1788  bool */\n      0x00\n        /* \"contracts/Auction_bang.sol\":1740:1792  function withdraw() public virtual returns (bool) {} */\n      swap1\n      jump\t// out\n        /* \"contracts/Auction_bang.sol\":577:613  mapping(address => uint) public bids */\n    tag_34:\n      mstore(0x20, 0x08)\n      dup1\n      0x00\n      mstore\n      keccak256(0x00, 0x40)\n      0x00\n      swap2\n      pop\n      swap1\n      pop\n      sload\n      dup2\n      jump\t// out\n        /* \"contracts/Auction_bang.sol\":121:149  uint256 public auction_start */\n    tag_39:\n      sload(0x01)\n      dup2\n      jump\t// out\n        /* \"contracts/Auction_bang.sol\":221:249  address public highestBidder */\n    tag_43:\n      0x04\n      0x00\n      swap1\n      sload\n      swap1\n      0x0100\n      exp\n      swap1\n      div\n      0xffffffffffffffffffffffffffffffffffffffff\n      and\n      dup2\n      jump\t// out\n        /* \"contracts/Auction_bang.sol\":156:182  uint256 public auction_end */\n    tag_48:\n      sload(0x02)\n      dup2\n      jump\t// out\n        /* \"contracts/Auction_bang.sol\":620:646  auction_state public STATE */\n    tag_52:\n      0x09\n      0x00\n      swap1\n      sload\n      swap1\n      0x0100\n      exp\n      swap1\n      div\n      0xff\n      and\n      dup2\n      jump\t// out\n        /* \"contracts/Auction_bang.sol\":189:214  uint256 public highestBid */\n    tag_57:\n      sload(0x03)\n      dup2\n      jump\t// out\n        /* \"#utility.yul\":7:146   */\n    tag_74:\n        /* \"#utility.yul\":53:58   */\n      0x00\n        /* \"#utility.yul\":91:97   */\n      dup2\n        /* \"#utility.yul\":78:98   */\n      calldataload\n        /* \"#utility.yul\":69:98   */\n      swap1\n      pop\n        /* \"#utility.yul\":107:140   */\n      tag_76\n        /* \"#utility.yul\":134:139   */\n      dup2\n        /* \"#utility.yul\":107:140   */\n      tag_77\n      jump\t// in\n    tag_76:\n        /* \"#utility.yul\":59:146   */\n      swap3\n      swap2\n      pop\n      pop\n      jump\t// out\n        /* \"#utility.yul\":152:481   */\n    tag_33:\n        /* \"#utility.yul\":211:217   */\n      0x00\n        /* \"#utility.yul\":260:262   */\n      0x20\n        /* \"#utility.yul\":248:257   */\n      dup3\n        /* \"#utility.yul\":239:246   */\n      dup5\n        /* \"#utility.yul\":235:258   */\n      sub\n        /* \"#utility.yul\":231:263   */\n      slt\n        /* \"#utility.yul\":228:230   */\n      iszero\n      tag_79\n      jumpi\n        /* \"#utility.yul\":266:345   */\n      tag_80\n      tag_81\n      jump\t// in\n    tag_80:\n        /* \"#utility.yul\":228:230   */\n    tag_79:\n        /* \"#utility.yul\":386:387   */\n      0x00\n        /* \"#utility.yul\":411:464   */\n      tag_82\n        /* \"#utility.yul\":456:463   */\n      dup5\n        /* \"#utility.yul\":447:453   */\n      dup3\n        /* \"#utility.yul\":436:445   */\n      dup6\n        /* \"#utility.yul\":432:454   */\n      add\n        /* \"#utility.yul\":411:464   */\n      tag_74\n      jump\t// in\n    tag_82:\n        /* \"#utility.yul\":401:464   */\n      swap2\n      pop\n        /* \"#utility.yul\":357:474   */\n      pop\n        /* \"#utility.yul\":218:481   */\n      swap3\n      swap2\n      pop\n      pop\n      jump\t// out\n        /* \"#utility.yul\":487:605   */\n    tag_83:\n        /* \"#utility.yul\":574:598   */\n      tag_85\n        /* \"#utility.yul\":592:597   */\n      dup2\n        /* \"#utility.yul\":574:598   */\n      tag_86\n      jump\t// in\n    tag_85:\n        /* \"#utility.yul\":569:572   */\n      dup3\n        /* \"#utility.yul\":562:599   */\n      mstore\n        /* \"#utility.yul\":552:605   */\n      pop\n      pop\n      jump\t// out\n        /* \"#utility.yul\":611:720   */\n    tag_87:\n        /* \"#utility.yul\":692:713   */\n      tag_89\n        /* \"#utility.yul\":707:712   */\n      dup2\n        /* \"#utility.yul\":692:713   */\n      tag_90\n      jump\t// in\n    tag_89:\n        /* \"#utility.yul\":687:690   */\n      dup3\n        /* \"#utility.yul\":680:714   */\n      mstore\n        /* \"#utility.yul\":670:720   */\n      pop\n      pop\n      jump\t// out\n        /* \"#utility.yul\":726:885   */\n    tag_91:\n        /* \"#utility.yul\":827:878   */\n      tag_93\n        /* \"#utility.yul\":872:877   */\n      dup2\n        /* \"#utility.yul\":827:878   */\n      tag_94\n      jump\t// in\n    tag_93:\n        /* \"#utility.yul\":822:825   */\n      dup3\n        /* \"#utility.yul\":815:879   */\n      mstore\n        /* \"#utility.yul\":805:885   */\n      pop\n      pop\n      jump\t// out\n        /* \"#utility.yul\":891:1255   */\n    tag_95:\n        /* \"#utility.yul\":979:982   */\n      0x00\n        /* \"#utility.yul\":1007:1046   */\n      tag_97\n        /* \"#utility.yul\":1040:1045   */\n      dup3\n        /* \"#utility.yul\":1007:1046   */\n      tag_98\n      jump\t// in\n    tag_97:\n        /* \"#utility.yul\":1062:1133   */\n      tag_99\n        /* \"#utility.yul\":1126:1132   */\n      dup2\n        /* \"#utility.yul\":1121:1124   */\n      dup6\n        /* \"#utility.yul\":1062:1133   */\n      tag_100\n      jump\t// in\n    tag_99:\n        /* \"#utility.yul\":1055:1133   */\n      swap4\n      pop\n        /* \"#utility.yul\":1142:1194   */\n      tag_101\n        /* \"#utility.yul\":1187:1193   */\n      dup2\n        /* \"#utility.yul\":1182:1185   */\n      dup6\n        /* \"#utility.yul\":1175:1179   */\n      0x20\n        /* \"#utility.yul\":1168:1173   */\n      dup7\n        /* \"#utility.yul\":1164:1180   */\n      add\n        /* \"#utility.yul\":1142:1194   */\n      tag_102\n      jump\t// in\n    tag_101:\n        /* \"#utility.yul\":1219:1248   */\n      tag_103\n        /* \"#utility.yul\":1241:1247   */\n      dup2\n        /* \"#utility.yul\":1219:1248   */\n      tag_104\n      jump\t// in\n    tag_103:\n        /* \"#utility.yul\":1214:1217   */\n      dup5\n        /* \"#utility.yul\":1210:1249   */\n      add\n        /* \"#utility.yul\":1203:1249   */\n      swap2\n      pop\n        /* \"#utility.yul\":983:1255   */\n      pop\n      swap3\n      swap2\n      pop\n      pop\n      jump\t// out\n        /* \"#utility.yul\":1261:1379   */\n    tag_105:\n        /* \"#utility.yul\":1348:1372   */\n      tag_107\n        /* \"#utility.yul\":1366:1371   */\n      dup2\n        /* \"#utility.yul\":1348:1372   */\n      tag_108\n      jump\t// in\n    tag_107:\n        /* \"#utility.yul\":1343:1346   */\n      dup3\n        /* \"#utility.yul\":1336:1373   */\n      mstore\n        /* \"#utility.yul\":1326:1379   */\n      pop\n      pop\n      jump\t// out\n        /* \"#utility.yul\":1385:1607   */\n    tag_45:\n        /* \"#utility.yul\":1478:1482   */\n      0x00\n        /* \"#utility.yul\":1516:1518   */\n      0x20\n        /* \"#utility.yul\":1505:1514   */\n      dup3\n        /* \"#utility.yul\":1501:1519   */\n      add\n        /* \"#utility.yul\":1493:1519   */\n      swap1\n      pop\n        /* \"#utility.yul\":1529:1600   */\n      tag_110\n        /* \"#utility.yul\":1597:1598   */\n      0x00\n        /* \"#utility.yul\":1586:1595   */\n      dup4\n        /* \"#utility.yul\":1582:1599   */\n      add\n        /* \"#utility.yul\":1573:1579   */\n      dup5\n        /* \"#utility.yul\":1529:1600   */\n      tag_83\n      jump\t// in\n    tag_110:\n        /* \"#utility.yul\":1483:1607   */\n      swap3\n      swap2\n      pop\n      pop\n      jump\t// out\n        /* \"#utility.yul\":1613:1823   */\n    tag_21:\n        /* \"#utility.yul\":1700:1704   */\n      0x00\n        /* \"#utility.yul\":1738:1740   */\n      0x20\n        /* \"#utility.yul\":1727:1736   */\n      dup3\n        /* \"#utility.yul\":1723:1741   */\n      add\n        /* \"#utility.yul\":1715:1741   */\n      swap1\n      pop\n        /* \"#utility.yul\":1751:1816   */\n      tag_112\n        /* \"#utility.yul\":1813:1814   */\n      0x00\n        /* \"#utility.yul\":1802:1811   */\n      dup4\n        /* \"#utility.yul\":1798:1815   */\n      add\n        /* \"#utility.yul\":1789:1795   */\n      dup5\n        /* \"#utility.yul\":1751:1816   */\n      tag_87\n      jump\t// in\n    tag_112:\n        /* \"#utility.yul\":1705:1823   */\n      swap3\n      swap2\n      pop\n      pop\n      jump\t// out\n        /* \"#utility.yul\":1829:2079   */\n    tag_54:\n        /* \"#utility.yul\":1936:1940   */\n      0x00\n        /* \"#utility.yul\":1974:1976   */\n      0x20\n        /* \"#utility.yul\":1963:1972   */\n      dup3\n        /* \"#utility.yul\":1959:1977   */\n      add\n        /* \"#utility.yul\":1951:1977   */\n      swap1\n      pop\n        /* \"#utility.yul\":1987:2072   */\n      tag_114\n        /* \"#utility.yul\":2069:2070   */\n      0x00\n        /* \"#utility.yul\":2058:2067   */\n      dup4\n        /* \"#utility.yul\":2054:2071   */\n      add\n        /* \"#utility.yul\":2045:2051   */\n      dup5\n        /* \"#utility.yul\":1987:2072   */\n      tag_91\n      jump\t// in\n    tag_114:\n        /* \"#utility.yul\":1941:2079   */\n      swap3\n      swap2\n      pop\n      pop\n      jump\t// out\n        /* \"#utility.yul\":2085:2599   */\n    tag_17:\n        /* \"#utility.yul\":2246:2250   */\n      0x00\n        /* \"#utility.yul\":2284:2286   */\n      0x40\n        /* \"#utility.yul\":2273:2282   */\n      dup3\n        /* \"#utility.yul\":2269:2287   */\n      add\n        /* \"#utility.yul\":2261:2287   */\n      swap1\n      pop\n        /* \"#utility.yul\":2333:2342   */\n      dup2\n        /* \"#utility.yul\":2327:2331   */\n      dup2\n        /* \"#utility.yul\":2323:2343   */\n      sub\n        /* \"#utility.yul\":2319:2320   */\n      0x00\n        /* \"#utility.yul\":2308:2317   */\n      dup4\n        /* \"#utility.yul\":2304:2321   */\n      add\n        /* \"#utility.yul\":2297:2344   */\n      mstore\n        /* \"#utility.yul\":2361:2439   */\n      tag_116\n        /* \"#utility.yul\":2434:2438   */\n      dup2\n        /* \"#utility.yul\":2425:2431   */\n      dup6\n        /* \"#utility.yul\":2361:2439   */\n      tag_95\n      jump\t// in\n    tag_116:\n        /* \"#utility.yul\":2353:2439   */\n      swap1\n      pop\n        /* \"#utility.yul\":2486:2495   */\n      dup2\n        /* \"#utility.yul\":2480:2484   */\n      dup2\n        /* \"#utility.yul\":2476:2496   */\n      sub\n        /* \"#utility.yul\":2471:2473   */\n      0x20\n        /* \"#utility.yul\":2460:2469   */\n      dup4\n        /* \"#utility.yul\":2456:2474   */\n      add\n        /* \"#utility.yul\":2449:2497   */\n      mstore\n        /* \"#utility.yul\":2514:2592   */\n      tag_117\n        /* \"#utility.yul\":2587:2591   */\n      dup2\n        /* \"#utility.yul\":2578:2584   */\n      dup5\n        /* \"#utility.yul\":2514:2592   */\n      tag_95\n      jump\t// in\n    tag_117:\n        /* \"#utility.yul\":2506:2592   */\n      swap1\n      pop\n        /* \"#utility.yul\":2251:2599   */\n      swap4\n      swap3\n      pop\n      pop\n      pop\n      jump\t// out\n        /* \"#utility.yul\":2605:2827   */\n    tag_36:\n        /* \"#utility.yul\":2698:2702   */\n      0x00\n        /* \"#utility.yul\":2736:2738   */\n      0x20\n        /* \"#utility.yul\":2725:2734   */\n      dup3\n        /* \"#utility.yul\":2721:2739   */\n      add\n        /* \"#utility.yul\":2713:2739   */\n      swap1\n      pop\n        /* \"#utility.yul\":2749:2820   */\n      tag_119\n        /* \"#utility.yul\":2817:2818   */\n      0x00\n        /* \"#utility.yul\":2806:2815   */\n      dup4\n        /* \"#utility.yul\":2802:2819   */\n      add\n        /* \"#utility.yul\":2793:2799   */\n      dup5\n        /* \"#utility.yul\":2749:2820   */\n      tag_105\n      jump\t// in\n    tag_119:\n        /* \"#utility.yul\":2703:2827   */\n      swap3\n      swap2\n      pop\n      pop\n      jump\t// out\n        /* \"#utility.yul\":2914:3013   */\n    tag_98:\n        /* \"#utility.yul\":2966:2972   */\n      0x00\n        /* \"#utility.yul\":3000:3005   */\n      dup2\n        /* \"#utility.yul\":2994:3006   */\n      mload\n        /* \"#utility.yul\":2984:3006   */\n      swap1\n      pop\n        /* \"#utility.yul\":2973:3013   */\n      swap2\n      swap1\n      pop\n      jump\t// out\n        /* \"#utility.yul\":3019:3188   */\n    tag_100:\n        /* \"#utility.yul\":3103:3114   */\n      0x00\n        /* \"#utility.yul\":3137:3143   */\n      dup3\n        /* \"#utility.yul\":3132:3135   */\n      dup3\n        /* \"#utility.yul\":3125:3144   */\n      mstore\n        /* \"#utility.yul\":3177:3181   */\n      0x20\n        /* \"#utility.yul\":3172:3175   */\n      dup3\n        /* \"#utility.yul\":3168:3182   */\n      add\n        /* \"#utility.yul\":3153:3182   */\n      swap1\n      pop\n        /* \"#utility.yul\":3115:3188   */\n      swap3\n      swap2\n      pop\n      pop\n      jump\t// out\n        /* \"#utility.yul\":3194:3290   */\n    tag_86:\n        /* \"#utility.yul\":3231:3238   */\n      0x00\n        /* \"#utility.yul\":3260:3284   */\n      tag_125\n        /* \"#utility.yul\":3278:3283   */\n      dup3\n        /* \"#utility.yul\":3260:3284   */\n      tag_126\n      jump\t// in\n    tag_125:\n        /* \"#utility.yul\":3249:3284   */\n      swap1\n      pop\n        /* \"#utility.yul\":3239:3290   */\n      swap2\n      swap1\n      pop\n      jump\t// out\n        /* \"#utility.yul\":3296:3386   */\n    tag_90:\n        /* \"#utility.yul\":3330:3337   */\n      0x00\n        /* \"#utility.yul\":3373:3378   */\n      dup2\n        /* \"#utility.yul\":3366:3379   */\n      iszero\n        /* \"#utility.yul\":3359:3380   */\n      iszero\n        /* \"#utility.yul\":3348:3380   */\n      swap1\n      pop\n        /* \"#utility.yul\":3338:3386   */\n      swap2\n      swap1\n      pop\n      jump\t// out\n        /* \"#utility.yul\":3392:3535   */\n    tag_128:\n        /* \"#utility.yul\":3445:3452   */\n      0x00\n        /* \"#utility.yul\":3474:3479   */\n      dup2\n        /* \"#utility.yul\":3463:3479   */\n      swap1\n      pop\n        /* \"#utility.yul\":3480:3529   */\n      tag_130\n        /* \"#utility.yul\":3523:3528   */\n      dup3\n        /* \"#utility.yul\":3480:3529   */\n      tag_131\n      jump\t// in\n    tag_130:\n        /* \"#utility.yul\":3453:3535   */\n      swap2\n      swap1\n      pop\n      jump\t// out\n        /* \"#utility.yul\":3541:3667   */\n    tag_126:\n        /* \"#utility.yul\":3578:3585   */\n      0x00\n        /* \"#utility.yul\":3618:3660   */\n      0xffffffffffffffffffffffffffffffffffffffff\n        /* \"#utility.yul\":3611:3616   */\n      dup3\n        /* \"#utility.yul\":3607:3661   */\n      and\n        /* \"#utility.yul\":3596:3661   */\n      swap1\n      pop\n        /* \"#utility.yul\":3586:3667   */\n      swap2\n      swap1\n      pop\n      jump\t// out\n        /* \"#utility.yul\":3673:3750   */\n    tag_108:\n        /* \"#utility.yul\":3710:3717   */\n      0x00\n        /* \"#utility.yul\":3739:3744   */\n      dup2\n        /* \"#utility.yul\":3728:3744   */\n      swap1\n      pop\n        /* \"#utility.yul\":3718:3750   */\n      swap2\n      swap1\n      pop\n      jump\t// out\n        /* \"#utility.yul\":3756:3899   */\n    tag_94:\n        /* \"#utility.yul\":3820:3829   */\n      0x00\n        /* \"#utility.yul\":3853:3893   */\n      tag_135\n        /* \"#utility.yul\":3887:3892   */\n      dup3\n        /* \"#utility.yul\":3853:3893   */\n      tag_128\n      jump\t// in\n    tag_135:\n        /* \"#utility.yul\":3840:3893   */\n      swap1\n      pop\n        /* \"#utility.yul\":3830:3899   */\n      swap2\n      swap1\n      pop\n      jump\t// out\n        /* \"#utility.yul\":3905:4212   */\n    tag_102:\n        /* \"#utility.yul\":3973:3974   */\n      0x00\n        /* \"#utility.yul\":3983:4096   */\n    tag_137:\n        /* \"#utility.yul\":3997:4003   */\n      dup4\n        /* \"#utility.yul\":3994:3995   */\n      dup2\n        /* \"#utility.yul\":3991:4004   */\n      lt\n        /* \"#utility.yul\":3983:4096   */\n      iszero\n      tag_139\n      jumpi\n        /* \"#utility.yul\":4082:4083   */\n      dup1\n        /* \"#utility.yul\":4077:4080   */\n      dup3\n        /* \"#utility.yul\":4073:4084   */\n      add\n        /* \"#utility.yul\":4067:4085   */\n      mload\n        /* \"#utility.yul\":4063:4064   */\n      dup2\n        /* \"#utility.yul\":4058:4061   */\n      dup5\n        /* \"#utility.yul\":4054:4065   */\n      add\n        /* \"#utility.yul\":4047:4086   */\n      mstore\n        /* \"#utility.yul\":4019:4021   */\n      0x20\n        /* \"#utility.yul\":4016:4017   */\n      dup2\n        /* \"#utility.yul\":4012:4022   */\n      add\n        /* \"#utility.yul\":4007:4022   */\n      swap1\n      pop\n        /* \"#utility.yul\":3983:4096   */\n      jump(tag_137)\n    tag_139:\n        /* \"#utility.yul\":4114:4120   */\n      dup4\n        /* \"#utility.yul\":4111:4112   */\n      dup2\n        /* \"#utility.yul\":4108:4121   */\n      gt\n        /* \"#utility.yul\":4105:4107   */\n      iszero\n      tag_140\n      jumpi\n        /* \"#utility.yul\":4194:4195   */\n      0x00\n        /* \"#utility.yul\":4185:4191   */\n      dup5\n        /* \"#utility.yul\":4180:4183   */\n      dup5\n        /* \"#utility.yul\":4176:4192   */\n      add\n        /* \"#utility.yul\":4169:4196   */\n      mstore\n        /* \"#utility.yul\":4105:4107   */\n    tag_140:\n        /* \"#utility.yul\":3954:4212   */\n      pop\n      pop\n      pop\n      pop\n      jump\t// out\n        /* \"#utility.yul\":4218:4538   */\n    tag_60:\n        /* \"#utility.yul\":4262:4268   */\n      0x00\n        /* \"#utility.yul\":4299:4300   */\n      0x02\n        /* \"#utility.yul\":4293:4297   */\n      dup3\n        /* \"#utility.yul\":4289:4301   */\n      div\n        /* \"#utility.yul\":4279:4301   */\n      swap1\n      pop\n        /* \"#utility.yul\":4346:4347   */\n      0x01\n        /* \"#utility.yul\":4340:4344   */\n      dup3\n        /* \"#utility.yul\":4336:4348   */\n      and\n        /* \"#utility.yul\":4367:4385   */\n      dup1\n        /* \"#utility.yul\":4357:4359   */\n      tag_142\n      jumpi\n        /* \"#utility.yul\":4423:4427   */\n      0x7f\n        /* \"#utility.yul\":4415:4421   */\n      dup3\n        /* \"#utility.yul\":4411:4428   */\n      and\n        /* \"#utility.yul\":4401:4428   */\n      swap2\n      pop\n        /* \"#utility.yul\":4357:4359   */\n    tag_142:\n        /* \"#utility.yul\":4485:4487   */\n      0x20\n        /* \"#utility.yul\":4477:4483   */\n      dup3\n        /* \"#utility.yul\":4474:4488   */\n      lt\n        /* \"#utility.yul\":4454:4472   */\n      dup2\n        /* \"#utility.yul\":4451:4489   */\n      eq\n        /* \"#utility.yul\":4448:4450   */\n      iszero\n      tag_143\n      jumpi\n        /* \"#utility.yul\":4504:4522   */\n      tag_144\n      tag_145\n      jump\t// in\n    tag_144:\n        /* \"#utility.yul\":4448:4450   */\n    tag_143:\n        /* \"#utility.yul\":4269:4538   */\n      pop\n      swap2\n      swap1\n      pop\n      jump\t// out\n        /* \"#utility.yul\":4544:4724   */\n    tag_146:\n        /* \"#utility.yul\":4592:4669   */\n      0x4e487b7100000000000000000000000000000000000000000000000000000000\n        /* \"#utility.yul\":4589:4590   */\n      0x00\n        /* \"#utility.yul\":4582:4670   */\n      mstore\n        /* \"#utility.yul\":4689:4693   */\n      0x21\n        /* \"#utility.yul\":4686:4687   */\n      0x04\n        /* \"#utility.yul\":4679:4694   */\n      mstore\n        /* \"#utility.yul\":4713:4717   */\n      0x24\n        /* \"#utility.yul\":4710:4711   */\n      0x00\n        /* \"#utility.yul\":4703:4718   */\n      revert\n        /* \"#utility.yul\":4730:4910   */\n    tag_145:\n        /* \"#utility.yul\":4778:4855   */\n      0x4e487b7100000000000000000000000000000000000000000000000000000000\n        /* \"#utility.yul\":4775:4776   */\n      0x00\n        /* \"#utility.yul\":4768:4856   */\n      mstore\n        /* \"#utility.yul\":4875:4879   */\n      0x22\n        /* \"#utility.yul\":4872:4873   */\n      0x04\n        /* \"#utility.yul\":4865:4880   */\n      mstore\n        /* \"#utility.yul\":4899:4903   */\n      0x24\n        /* \"#utility.yul\":4896:4897   */\n      0x00\n        /* \"#utility.yul\":4889:4904   */\n      revert\n        /* \"#utility.yul\":5039:5156   */\n    tag_81:\n        /* \"#utility.yul\":5148:5149   */\n      0x00\n        /* \"#utility.yul\":5145:5146   */\n      dup1\n        /* \"#utility.yul\":5138:5150   */\n      revert\n        /* \"#utility.yul\":5162:5264   */\n    tag_104:\n        /* \"#utility.yul\":5203:5209   */\n      0x00\n        /* \"#utility.yul\":5254:5256   */\n      0x1f\n        /* \"#utility.yul\":5250:5257   */\n      not\n        /* \"#utility.yul\":5245:5247   */\n      0x1f\n        /* \"#utility.yul\":5238:5243   */\n      dup4\n        /* \"#utility.yul\":5234:5248   */\n      add\n        /* \"#utility.yul\":5230:5258   */\n      and\n        /* \"#utility.yul\":5220:5258   */\n      swap1\n      pop\n        /* \"#utility.yul\":5210:5264   */\n      swap2\n      swap1\n      pop\n      jump\t// out\n        /* \"#utility.yul\":5270:5391   */\n    tag_131:\n        /* \"#utility.yul\":5359:5360   */\n      0x02\n        /* \"#utility.yul\":5352:5357   */\n      dup2\n        /* \"#utility.yul\":5349:5361   */\n      lt\n        /* \"#utility.yul\":5339:5341   */\n      tag_154\n      jumpi\n        /* \"#utility.yul\":5365:5383   */\n      tag_155\n      tag_146\n      jump\t// in\n    tag_155:\n        /* \"#utility.yul\":5339:5341   */\n    tag_154:\n        /* \"#utility.yul\":5329:5391   */\n      pop\n      jump\t// out\n        /* \"#utility.yul\":5397:5519   */\n    tag_77:\n        /* \"#utility.yul\":5470:5494   */\n      tag_157\n        /* \"#utility.yul\":5488:5493   */\n      dup2\n        /* \"#utility.yul\":5470:5494   */\n      tag_86\n      jump\t// in\n    tag_157:\n        /* \"#utility.yul\":5463:5468   */\n      dup2\n        /* \"#utility.yul\":5460:5495   */\n      eq\n        /* \"#utility.yul\":5450:5452   */\n      tag_158\n      jumpi\n        /* \"#utility.yul\":5509:5510   */\n      0x00\n        /* \"#utility.yul\":5506:5507   */\n      dup1\n        /* \"#utility.yul\":5499:5511   */\n      revert\n        /* \"#utility.yul\":5450:5452   */\n    tag_158:\n        /* \"#utility.yul\":5440:5519   */\n      pop\n      jump\t// out\n\n    auxdata: 0xa2646970667358221220cbf23cf958a846dc600c04050c311972b28d737683e449b4500b8a1798d23ecd64736f6c63430008060033\n}\n",
				"bytecode": {
					"linkReferences": {},
					"object": "60806040526000600460146101000a81548160ff02191690831515021790555034801561002b57600080fd5b506106fb8061003b6000396000f3fe6080604052600436106100915760003560e01c806378f453401161005957806378f453401461017357806391f901571461019e578063c458b65a146101c9578063c486456c146101f4578063d57bde791461021f57610091565b80630216f202146100965780631998aeef146100c25780633ba88ca1146100e05780633ccfd60b1461010b57806362ea82db14610136575b600080fd5b3480156100a257600080fd5b506100ab61024a565b6040516100b99291906104e6565b60405180910390f35b6100ca61036c565b6040516100d791906104b0565b60405180910390f35b3480156100ec57600080fd5b506100f5610371565b60405161010291906104b0565b60405180910390f35b34801561011757600080fd5b50610120610376565b60405161012d91906104b0565b60405180910390f35b34801561014257600080fd5b5061015d600480360381019061015891906103f3565b61037b565b60405161016a919061051d565b60405180910390f35b34801561017f57600080fd5b50610188610393565b604051610195919061051d565b60405180910390f35b3480156101aa57600080fd5b506101b3610399565b6040516101c09190610495565b60405180910390f35b3480156101d557600080fd5b506101de6103bf565b6040516101eb919061051d565b60405180910390f35b34801561020057600080fd5b506102096103c5565b60405161021691906104cb565b60405180910390f35b34801561022b57600080fd5b506102346103d8565b604051610241919061051d565b60405180910390f35b600580600001805461025b906105f4565b80601f0160208091040260200160405190810160405280929190818152602001828054610287906105f4565b80156102d45780601f106102a9576101008083540402835291602001916102d4565b820191906000526020600020905b8154815290600101906020018083116102b757829003601f168201915b5050505050908060010180546102e9906105f4565b80601f0160208091040260200160405190810160405280929190818152602001828054610315906105f4565b80156103625780601f1061033757610100808354040283529160200191610362565b820191906000526020600020905b81548152906001019060200180831161034557829003601f168201915b5050505050905082565b600090565b600090565b600090565b60086020528060005260406000206000915090505481565b60015481565b600460009054906101000a900473ffffffffffffffffffffffffffffffffffffffff1681565b60025481565b600960009054906101000a900460ff1681565b60035481565b6000813590506103ed816106ae565b92915050565b60006020828403121561040957610408610684565b5b6000610417848285016103de565b91505092915050565b61042981610554565b82525050565b61043881610566565b82525050565b610447816105af565b82525050565b600061045882610538565b6104628185610543565b93506104728185602086016105c1565b61047b81610689565b840191505092915050565b61048f816105a5565b82525050565b60006020820190506104aa6000830184610420565b92915050565b60006020820190506104c5600083018461042f565b92915050565b60006020820190506104e0600083018461043e565b92915050565b60006040820190508181036000830152610500818561044d565b90508181036020830152610514818461044d565b90509392505050565b60006020820190506105326000830184610486565b92915050565b600081519050919050565b600082825260208201905092915050565b600061055f82610585565b9050919050565b60008115159050919050565b60008190506105808261069a565b919050565b600073ffffffffffffffffffffffffffffffffffffffff82169050919050565b6000819050919050565b60006105ba82610572565b9050919050565b60005b838110156105df5780820151818401526020810190506105c4565b838111156105ee576000848401525b50505050565b6000600282049050600182168061060c57607f821691505b602082108114156106205761061f610655565b5b50919050565b7f4e487b7100000000000000000000000000000000000000000000000000000000600052602160045260246000fd5b7f4e487b7100000000000000000000000000000000000000000000000000000000600052602260045260246000fd5b600080fd5b6000601f19601f8301169050919050565b600281106106ab576106aa610626565b5b50565b6106b781610554565b81146106c257600080fd5b5056fea2646970667358221220cbf23cf958a846dc600c04050c311972b28d737683e449b4500b8a1798d23ecd64736f6c63430008060033",
					"opcodes": "PUSH1 0x80 PUSH1 0x40 MSTORE PUSH1 0x0 PUSH1 0x4 PUSH1 0x14 PUSH2 0x100 EXP DUP2 SLOAD DUP2 PUSH1 0xFF MUL NOT AND SWAP1 DUP4 ISZERO ISZERO MUL OR SWAP1 SSTORE POP CALLVALUE DUP1 ISZERO PUSH2 0x2B JUMPI PUSH1 0x0 DUP1 REVERT JUMPDEST POP PUSH2 0x6FB DUP1 PUSH2 0x3B PUSH1 0x0 CODECOPY PUSH1 0x0 RETURN INVALID PUSH1 0x80 PUSH1 0x40 MSTORE PUSH1 0x4 CALLDATASIZE LT PUSH2 0x91 JUMPI PUSH1 0x0 CALLDATALOAD PUSH1 0xE0 SHR DUP1 PUSH4 0x78F45340 GT PUSH2 0x59 JUMPI DUP1 PUSH4 0x78F45340 EQ PUSH2 0x173 JUMPI DUP1 PUSH4 0x91F90157 EQ PUSH2 0x19E JUMPI DUP1 PUSH4 0xC458B65A EQ PUSH2 0x1C9 JUMPI DUP1 PUSH4 0xC486456C EQ PUSH2 0x1F4 JUMPI DUP1 PUSH4 0xD57BDE79 EQ PUSH2 0x21F JUMPI PUSH2 0x91 JUMP JUMPDEST DUP1 PUSH4 0x216F202 EQ PUSH2 0x96 JUMPI DUP1 PUSH4 0x1998AEEF EQ PUSH2 0xC2 JUMPI DUP1 PUSH4 0x3BA88CA1 EQ PUSH2 0xE0 JUMPI DUP1 PUSH4 0x3CCFD60B EQ PUSH2 0x10B JUMPI DUP1 PUSH4 0x62EA82DB EQ PUSH2 0x136 JUMPI JUMPDEST PUSH1 0x0 DUP1 REVERT JUMPDEST CALLVALUE DUP1 ISZERO PUSH2 0xA2 JUMPI PUSH1 0x0 DUP1 REVERT JUMPDEST POP PUSH2 0xAB PUSH2 0x24A JUMP JUMPDEST PUSH1 0x40 MLOAD PUSH2 0xB9 SWAP3 SWAP2 SWAP1 PUSH2 0x4E6 JUMP JUMPDEST PUSH1 0x40 MLOAD DUP1 SWAP2 SUB SWAP1 RETURN JUMPDEST PUSH2 0xCA PUSH2 0x36C JUMP JUMPDEST PUSH1 0x40 MLOAD PUSH2 0xD7 SWAP2 SWAP1 PUSH2 0x4B0 JUMP JUMPDEST PUSH1 0x40 MLOAD DUP1 SWAP2 SUB SWAP1 RETURN JUMPDEST CALLVALUE DUP1 ISZERO PUSH2 0xEC JUMPI PUSH1 0x0 DUP1 REVERT JUMPDEST POP PUSH2 0xF5 PUSH2 0x371 JUMP JUMPDEST PUSH1 0x40 MLOAD PUSH2 0x102 SWAP2 SWAP1 PUSH2 0x4B0 JUMP JUMPDEST PUSH1 0x40 MLOAD DUP1 SWAP2 SUB SWAP1 RETURN JUMPDEST CALLVALUE DUP1 ISZERO PUSH2 0x117 JUMPI PUSH1 0x0 DUP1 REVERT JUMPDEST POP PUSH2 0x120 PUSH2 0x376 JUMP JUMPDEST PUSH1 0x40 MLOAD PUSH2 0x12D SWAP2 SWAP1 PUSH2 0x4B0 JUMP JUMPDEST PUSH1 0x40 MLOAD DUP1 SWAP2 SUB SWAP1 RETURN JUMPDEST CALLVALUE DUP1 ISZERO PUSH2 0x142 JUMPI PUSH1 0x0 DUP1 REVERT JUMPDEST POP PUSH2 0x15D PUSH1 0x4 DUP1 CALLDATASIZE SUB DUP2 ADD SWAP1 PUSH2 0x158 SWAP2 SWAP1 PUSH2 0x3F3 JUMP JUMPDEST PUSH2 0x37B JUMP JUMPDEST PUSH1 0x40 MLOAD PUSH2 0x16A SWAP2 SWAP1 PUSH2 0x51D JUMP JUMPDEST PUSH1 0x40 MLOAD DUP1 SWAP2 SUB SWAP1 RETURN JUMPDEST CALLVALUE DUP1 ISZERO PUSH2 0x17F JUMPI PUSH1 0x0 DUP1 REVERT JUMPDEST POP PUSH2 0x188 PUSH2 0x393 JUMP JUMPDEST PUSH1 0x40 MLOAD PUSH2 0x195 SWAP2 SWAP1 PUSH2 0x51D JUMP JUMPDEST PUSH1 0x40 MLOAD DUP1 SWAP2 SUB SWAP1 RETURN JUMPDEST CALLVALUE DUP1 ISZERO PUSH2 0x1AA JUMPI PUSH1 0x0 DUP1 REVERT JUMPDEST POP PUSH2 0x1B3 PUSH2 0x399 JUMP JUMPDEST PUSH1 0x40 MLOAD PUSH2 0x1C0 SWAP2 SWAP1 PUSH2 0x495 JUMP JUMPDEST PUSH1 0x40 MLOAD DUP1 SWAP2 SUB SWAP1 RETURN JUMPDEST CALLVALUE DUP1 ISZERO PUSH2 0x1D5 JUMPI PUSH1 0x0 DUP1 REVERT JUMPDEST POP PUSH2 0x1DE PUSH2 0x3BF JUMP JUMPDEST PUSH1 0x40 MLOAD PUSH2 0x1EB SWAP2 SWAP1 PUSH2 0x51D JUMP JUMPDEST PUSH1 0x40 MLOAD DUP1 SWAP2 SUB SWAP1 RETURN JUMPDEST CALLVALUE DUP1 ISZERO PUSH2 0x200 JUMPI PUSH1 0x0 DUP1 REVERT JUMPDEST POP PUSH2 0x209 PUSH2 0x3C5 JUMP JUMPDEST PUSH1 0x40 MLOAD PUSH2 0x216 SWAP2 SWAP1 PUSH2 0x4CB JUMP JUMPDEST PUSH1 0x40 MLOAD DUP1 SWAP2 SUB SWAP1 RETURN JUMPDEST CALLVALUE DUP1 ISZERO PUSH2 0x22B JUMPI PUSH1 0x0 DUP1 REVERT JUMPDEST POP PUSH2 0x234 PUSH2 0x3D8 JUMP JUMPDEST PUSH1 0x40 MLOAD PUSH2 0x241 SWAP2 SWAP1 PUSH2 0x51D JUMP JUMPDEST PUSH1 0x40 MLOAD DUP1 SWAP2 SUB SWAP1 RETURN JUMPDEST PUSH1 0x5 DUP1 PUSH1 0x0 ADD DUP1 SLOAD PUSH2 0x25B SWAP1 PUSH2 0x5F4 JUMP JUMPDEST DUP1 PUSH1 0x1F ADD PUSH1 0x20 DUP1 SWAP2 DIV MUL PUSH1 0x20 ADD PUSH1 0x40 MLOAD SWAP1 DUP2 ADD PUSH1 0x40 MSTORE DUP1 SWAP3 SWAP2 SWAP1 DUP2 DUP2 MSTORE PUSH1 0x20 ADD DUP3 DUP1 SLOAD PUSH2 0x287 SWAP1 PUSH2 0x5F4 JUMP JUMPDEST DUP1 ISZERO PUSH2 0x2D4 JUMPI DUP1 PUSH1 0x1F LT PUSH2 0x2A9 JUMPI PUSH2 0x100 DUP1 DUP4 SLOAD DIV MUL DUP4 MSTORE SWAP2 PUSH1 0x20 ADD SWAP2 PUSH2 0x2D4 JUMP JUMPDEST DUP3 ADD SWAP2 SWAP1 PUSH1 0x0 MSTORE PUSH1 0x20 PUSH1 0x0 KECCAK256 SWAP1 JUMPDEST DUP2 SLOAD DUP2 MSTORE SWAP1 PUSH1 0x1 ADD SWAP1 PUSH1 0x20 ADD DUP1 DUP4 GT PUSH2 0x2B7 JUMPI DUP3 SWAP1 SUB PUSH1 0x1F AND DUP3 ADD SWAP2 JUMPDEST POP POP POP POP POP SWAP1 DUP1 PUSH1 0x1 ADD DUP1 SLOAD PUSH2 0x2E9 SWAP1 PUSH2 0x5F4 JUMP JUMPDEST DUP1 PUSH1 0x1F ADD PUSH1 0x20 DUP1 SWAP2 DIV MUL PUSH1 0x20 ADD PUSH1 0x40 MLOAD SWAP1 DUP2 ADD PUSH1 0x40 MSTORE DUP1 SWAP3 SWAP2 SWAP1 DUP2 DUP2 MSTORE PUSH1 0x20 ADD DUP3 DUP1 SLOAD PUSH2 0x315 SWAP1 PUSH2 0x5F4 JUMP JUMPDEST DUP1 ISZERO PUSH2 0x362 JUMPI DUP1 PUSH1 0x1F LT PUSH2 0x337 JUMPI PUSH2 0x100 DUP1 DUP4 SLOAD DIV MUL DUP4 MSTORE SWAP2 PUSH1 0x20 ADD SWAP2 PUSH2 0x362 JUMP JUMPDEST DUP3 ADD SWAP2 SWAP1 PUSH1 0x0 MSTORE PUSH1 0x20 PUSH1 0x0 KECCAK256 SWAP1 JUMPDEST DUP2 SLOAD DUP2 MSTORE SWAP1 PUSH1 0x1 ADD SWAP1 PUSH1 0x20 ADD DUP1 DUP4 GT PUSH2 0x345 JUMPI DUP3 SWAP1 SUB PUSH1 0x1F AND DUP3 ADD SWAP2 JUMPDEST POP POP POP POP POP SWAP1 POP DUP3 JUMP JUMPDEST PUSH1 0x0 SWAP1 JUMP JUMPDEST PUSH1 0x0 SWAP1 JUMP JUMPDEST PUSH1 0x0 SWAP1 JUMP JUMPDEST PUSH1 0x8 PUSH1 0x20 MSTORE DUP1 PUSH1 0x0 MSTORE PUSH1 0x40 PUSH1 0x0 KECCAK256 PUSH1 0x0 SWAP2 POP SWAP1 POP SLOAD DUP2 JUMP JUMPDEST PUSH1 0x1 SLOAD DUP2 JUMP JUMPDEST PUSH1 0x4 PUSH1 0x0 SWAP1 SLOAD SWAP1 PUSH2 0x100 EXP SWAP1 DIV PUSH20 0xFFFFFFFFFFFFFFFFFFFFFFFFFFFFFFFFFFFFFFFF AND DUP2 JUMP JUMPDEST PUSH1 0x2 SLOAD DUP2 JUMP JUMPDEST PUSH1 0x9 PUSH1 0x0 SWAP1 SLOAD SWAP1 PUSH2 0x100 EXP SWAP1 DIV PUSH1 0xFF AND DUP2 JUMP JUMPDEST PUSH1 0x3 SLOAD DUP2 JUMP JUMPDEST PUSH1 0x0 DUP2 CALLDATALOAD SWAP1 POP PUSH2 0x3ED DUP2 PUSH2 0x6AE JUMP JUMPDEST SWAP3 SWAP2 POP POP JUMP JUMPDEST PUSH1 0x0 PUSH1 0x20 DUP3 DUP5 SUB SLT ISZERO PUSH2 0x409 JUMPI PUSH2 0x408 PUSH2 0x684 JUMP JUMPDEST JUMPDEST PUSH1 0x0 PUSH2 0x417 DUP5 DUP3 DUP6 ADD PUSH2 0x3DE JUMP JUMPDEST SWAP2 POP POP SWAP3 SWAP2 POP POP JUMP JUMPDEST PUSH2 0x429 DUP2 PUSH2 0x554 JUMP JUMPDEST DUP3 MSTORE POP POP JUMP JUMPDEST PUSH2 0x438 DUP2 PUSH2 0x566 JUMP JUMPDEST DUP3 MSTORE POP POP JUMP JUMPDEST PUSH2 0x447 DUP2 PUSH2 0x5AF JUMP JUMPDEST DUP3 MSTORE POP POP JUMP JUMPDEST PUSH1 0x0 PUSH2 0x458 DUP3 PUSH2 0x538 JUMP JUMPDEST PUSH2 0x462 DUP2 DUP6 PUSH2 0x543 JUMP JUMPDEST SWAP4 POP PUSH2 0x472 DUP2 DUP6 PUSH1 0x20 DUP7 ADD PUSH2 0x5C1 JUMP JUMPDEST PUSH2 0x47B DUP2 PUSH2 0x689 JUMP JUMPDEST DUP5 ADD SWAP2 POP POP SWAP3 SWAP2 POP POP JUMP JUMPDEST PUSH2 0x48F DUP2 PUSH2 0x5A5 JUMP JUMPDEST DUP3 MSTORE POP POP JUMP JUMPDEST PUSH1 0x0 PUSH1 0x20 DUP3 ADD SWAP1 POP PUSH2 0x4AA PUSH1 0x0 DUP4 ADD DUP5 PUSH2 0x420 JUMP JUMPDEST SWAP3 SWAP2 POP POP JUMP JUMPDEST PUSH1 0x0 PUSH1 0x20 DUP3 ADD SWAP1 POP PUSH2 0x4C5 PUSH1 0x0 DUP4 ADD DUP5 PUSH2 0x42F JUMP JUMPDEST SWAP3 SWAP2 POP POP JUMP JUMPDEST PUSH1 0x0 PUSH1 0x20 DUP3 ADD SWAP1 POP PUSH2 0x4E0 PUSH1 0x0 DUP4 ADD DUP5 PUSH2 0x43E JUMP JUMPDEST SWAP3 SWAP2 POP POP JUMP JUMPDEST PUSH1 0x0 PUSH1 0x40 DUP3 ADD SWAP1 POP DUP2 DUP2 SUB PUSH1 0x0 DUP4 ADD MSTORE PUSH2 0x500 DUP2 DUP6 PUSH2 0x44D JUMP JUMPDEST SWAP1 POP DUP2 DUP2 SUB PUSH1 0x20 DUP4 ADD MSTORE PUSH2 0x514 DUP2 DUP5 PUSH2 0x44D JUMP JUMPDEST SWAP1 POP SWAP4 SWAP3 POP POP POP JUMP JUMPDEST PUSH1 0x0 PUSH1 0x20 DUP3 ADD SWAP1 POP PUSH2 0x532 PUSH1 0x0 DUP4 ADD DUP5 PUSH2 0x486 JUMP JUMPDEST SWAP3 SWAP2 POP POP JUMP JUMPDEST PUSH1 0x0 DUP2 MLOAD SWAP1 POP SWAP2 SWAP1 POP JUMP JUMPDEST PUSH1 0x0 DUP3 DUP3 MSTORE PUSH1 0x20 DUP3 ADD SWAP1 POP SWAP3 SWAP2 POP POP JUMP JUMPDEST PUSH1 0x0 PUSH2 0x55F DUP3 PUSH2 0x585 JUMP JUMPDEST SWAP1 POP SWAP2 SWAP1 POP JUMP JUMPDEST PUSH1 0x0 DUP2 ISZERO ISZERO SWAP1 POP SWAP2 SWAP1 POP JUMP JUMPDEST PUSH1 0x0 DUP2 SWAP1 POP PUSH2 0x580 DUP3 PUSH2 0x69A JUMP JUMPDEST SWAP2 SWAP1 POP JUMP JUMPDEST PUSH1 0x0 PUSH20 0xFFFFFFFFFFFFFFFFFFFFFFFFFFFFFFFFFFFFFFFF DUP3 AND SWAP1 POP SWAP2 SWAP1 POP JUMP JUMPDEST PUSH1 0x0 DUP2 SWAP1 POP SWAP2 SWAP1 POP JUMP JUMPDEST PUSH1 0x0 PUSH2 0x5BA DUP3 PUSH2 0x572 JUMP JUMPDEST SWAP1 POP SWAP2 SWAP1 POP JUMP JUMPDEST PUSH1 0x0 JUMPDEST DUP4 DUP2 LT ISZERO PUSH2 0x5DF JUMPI DUP1 DUP3 ADD MLOAD DUP2 DUP5 ADD MSTORE PUSH1 0x20 DUP2 ADD SWAP1 POP PUSH2 0x5C4 JUMP JUMPDEST DUP4 DUP2 GT ISZERO PUSH2 0x5EE JUMPI PUSH1 0x0 DUP5 DUP5 ADD MSTORE JUMPDEST POP POP POP POP JUMP JUMPDEST PUSH1 0x0 PUSH1 0x2 DUP3 DIV SWAP1 POP PUSH1 0x1 DUP3 AND DUP1 PUSH2 0x60C JUMPI PUSH1 0x7F DUP3 AND SWAP2 POP JUMPDEST PUSH1 0x20 DUP3 LT DUP2 EQ ISZERO PUSH2 0x620 JUMPI PUSH2 0x61F PUSH2 0x655 JUMP JUMPDEST JUMPDEST POP SWAP2 SWAP1 POP JUMP JUMPDEST PUSH32 0x4E487B7100000000000000000000000000000000000000000000000000000000 PUSH1 0x0 MSTORE PUSH1 0x21 PUSH1 0x4 MSTORE PUSH1 0x24 PUSH1 0x0 REVERT JUMPDEST PUSH32 0x4E487B7100000000000000000000000000000000000000000000000000000000 PUSH1 0x0 MSTORE PUSH1 0x22 PUSH1 0x4 MSTORE PUSH1 0x24 PUSH1 0x0 REVERT JUMPDEST PUSH1 0x0 DUP1 REVERT JUMPDEST PUSH1 0x0 PUSH1 0x1F NOT PUSH1 0x1F DUP4 ADD AND SWAP1 POP SWAP2 SWAP1 POP JUMP JUMPDEST PUSH1 0x2 DUP2 LT PUSH2 0x6AB JUMPI PUSH2 0x6AA PUSH2 0x626 JUMP JUMPDEST JUMPDEST POP JUMP JUMPDEST PUSH2 0x6B7 DUP2 PUSH2 0x554 JUMP JUMPDEST DUP2 EQ PUSH2 0x6C2 JUMPI PUSH1 0x0 DUP1 REVERT JUMPDEST POP JUMP INVALID LOG2 PUSH5 0x6970667358 0x22 SLT KECCAK256 0xCB CALLCODE EXTCODECOPY 0xF9 PC 0xA8 CHAINID 0xDC PUSH1 0xC DIV SDIV 0xC BALANCE NOT PUSH19 0xB28D737683E449B4500B8A1798D23ECD64736F PUSH13 0x63430008060033000000000000 "
				},
				"gasEstimates": {
					"creation": {
						"codeDepositCost": "357400",
						"executionCost": "24710",
						"totalCost": "382110"
					},
					"external": {
						"Mycar()": "infinite",
						"STATE()": "2626",
						"auction_end()": "2473",
						"auction_start()": "2429",
						"bid()": "334",
						"bids(address)": "2903",
						"cancel_auction()": "380",
						"highestBid()": "2517",
						"highestBidder()": "2536",
						"withdraw()": "402"
					}
				},
				"methodIdentifiers": {
					"Mycar()": "0216f202",
					"STATE()": "c486456c",
					"auction_end()": "c458b65a",
					"auction_start()": "78f45340",
					"bid()": "1998aeef",
					"bids(address)": "62ea82db",
					"cancel_auction()": "3ba88ca1",
					"highestBid()": "d57bde79",
					"highestBidder()": "91f90157",
					"withdraw()": "3ccfd60b"
				}
			},
			"storageLayout": {
				"storage": [
					{
						"astId": 3,
						"contract": "contracts/Auction_bang.sol:Auction",
						"label": "auction_owner",
						"offset": 0,
						"slot": "0",
						"type": "t_address"
					},
					{
						"astId": 5,
						"contract": "contracts/Auction_bang.sol:Auction",
						"label": "auction_start",
						"offset": 0,
						"slot": "1",
						"type": "t_uint256"
					},
					{
						"astId": 7,
						"contract": "contracts/Auction_bang.sol:Auction",
						"label": "auction_end",
						"offset": 0,
						"slot": "2",
						"type": "t_uint256"
					},
					{
						"astId": 9,
						"contract": "contracts/Auction_bang.sol:Auction",
						"label": "highestBid",
						"offset": 0,
						"slot": "3",
						"type": "t_uint256"
					},
					{
						"astId": 11,
						"contract": "contracts/Auction_bang.sol:Auction",
						"label": "highestBidder",
						"offset": 0,
						"slot": "4",
						"type": "t_address"
					},
					{
						"astId": 14,
						"contract": "contracts/Auction_bang.sol:Auction",
						"label": "isWithdraw",
						"offset": 20,
						"slot": "4",
						"type": "t_bool"
					},
					{
						"astId": 25,
						"contract": "contracts/Auction_bang.sol:Auction",
						"label": "Mycar",
						"offset": 0,
						"slot": "5",
						"type": "t_struct(car)22_storage"
					},
					{
						"astId": 28,
						"contract": "contracts/Auction_bang.sol:Auction",
						"label": "bidders",
						"offset": 0,
						"slot": "7",
						"type": "t_array(t_address)dyn_storage"
					},
					{
						"astId": 32,
						"contract": "contracts/Auction_bang.sol:Auction",
						"label": "bids",
						"offset": 0,
						"slot": "8",
						"type": "t_mapping(t_address,t_uint256)"
					},
					{
						"astId": 35,
						"contract": "contracts/Auction_bang.sol:Auction",
						"label": "STATE",
						"offset": 0,
						"slot": "9",
						"type": "t_enum(auction_state)17"
					}
				],
				"types": {
					"t_address": {
						"encoding": "inplace",
						"label": "address",
						"numberOfBytes": "20"
					},
					"t_array(t_address)dyn_storage": {
						"base": "t_address",
						"encoding": "dynamic_array",
						"label": "address[]",
						"numberOfBytes": "32"
					},
					"t_bool": {
						"encoding": "inplace",
						"label": "bool",
						"numberOfBytes": "1"
					},
					"t_enum(auction_state)17": {
						"encoding": "inplace",
						"label": "enum Auction.auction_state",
						"numberOfBytes": "1"
					},
					"t_mapping(t_address,t_uint256)": {
						"encoding": "mapping",
						"key": "t_address",
						"label": "mapping(address => uint256)",
						"numberOfBytes": "32",
						"value": "t_uint256"
					},
					"t_string_storage": {
						"encoding": "bytes",
						"label": "string",
						"numberOfBytes": "32"
					},
					"t_struct(car)22_storage": {
						"encoding": "inplace",
						"label": "struct Auction.car",
						"members": [
							{
								"astId": 19,
								"contract": "contracts/Auction_bang.sol:Auction",
								"label": "Brand",
								"offset": 0,
								"slot": "0",
								"type": "t_string_storage"
							},
							{
								"astId": 21,
								"contract": "contracts/Auction_bang.sol:Auction",
								"label": "Rnumber",
								"offset": 0,
								"slot": "1",
								"type": "t_string_storage"
							}
						],
						"numberOfBytes": "64"
					},
					"t_uint256": {
						"encoding": "inplace",
						"label": "uint256",
						"numberOfBytes": "32"
					}
				}
			},
			"userdoc": {
				"kind": "user",
				"methods": {},
				"version": 1
			}
		}
	}
}