{
	"contracts/4_hellowWorld.sol": {
		"MyFirstContract": {
			"abi": [
				{
					"inputs": [],
					"name": "sayHello",
					"outputs": [
						{
							"internalType": "string",
							"name": "",
							"type": "string"
						}
					],
					"stateMutability": "pure",
					"type": "function"
				},
				{
					"inputs": [
						{
							"internalType": "string",
							"name": "name",
							"type": "string"
						}
					],
					"name": "sayHello2",
					"outputs": [
						{
							"internalType": "string",
							"name": "",
							"type": "string"
						}
					],
					"stateMutability": "pure",
					"type": "function"
				}
			],
			"devdoc": {
				"kind": "dev",
				"methods": {},
				"version": 1
			},
			"evm": {
				"assembly": "    /* \"contracts/4_hellowWorld.sol\":60:461  contract MyFirstContract{... */\n  mstore(0x40, 0x80)\n  callvalue\n  dup1\n  iszero\n  tag_1\n  jumpi\n  0x00\n  dup1\n  revert\ntag_1:\n  pop\n  dataSize(sub_0)\n  dup1\n  dataOffset(sub_0)\n  0x00\n  codecopy\n  0x00\n  return\nstop\n\nsub_0: assembly {\n        /* \"contracts/4_hellowWorld.sol\":60:461  contract MyFirstContract{... */\n      mstore(0x40, 0x80)\n      callvalue\n      dup1\n      iszero\n      tag_1\n      jumpi\n      0x00\n      dup1\n      revert\n    tag_1:\n      pop\n      jumpi(tag_2, lt(calldatasize, 0x04))\n      shr(0xe0, calldataload(0x00))\n      dup1\n      0x819a34b6\n      eq\n      tag_3\n      jumpi\n      dup1\n      0xef5fb05b\n      eq\n      tag_4\n      jumpi\n    tag_2:\n      0x00\n      dup1\n      revert\n        /* \"contracts/4_hellowWorld.sol\":193:458  function sayHello2(string memory name) public pure returns (string memory) {... */\n    tag_3:\n      tag_5\n      0x04\n      dup1\n      calldatasize\n      sub\n      dup2\n      add\n      swap1\n      tag_6\n      swap2\n      swap1\n      tag_7\n      jump\t// in\n    tag_6:\n      tag_8\n      jump\t// in\n    tag_5:\n      mload(0x40)\n      tag_9\n      swap2\n      swap1\n      tag_10\n      jump\t// in\n    tag_9:\n      mload(0x40)\n      dup1\n      swap2\n      sub\n      swap1\n      return\n        /* \"contracts/4_hellowWorld.sol\":91:185  function sayHello() public pure returns (string memory){... */\n    tag_4:\n      tag_11\n      tag_12\n      jump\t// in\n    tag_11:\n      mload(0x40)\n      tag_13\n      swap2\n      swap1\n      tag_10\n      jump\t// in\n    tag_13:\n      mload(0x40)\n      dup1\n      swap2\n      sub\n      swap1\n      return\n        /* \"contracts/4_hellowWorld.sol\":193:458  function sayHello2(string memory name) public pure returns (string memory) {... */\n    tag_8:\n        /* \"contracts/4_hellowWorld.sol\":253:266  string memory */\n      0x60\n        /* \"contracts/4_hellowWorld.sol\":353:375  string memory greeting */\n      0x00\n        /* \"contracts/4_hellowWorld.sol\":418:422  name */\n      dup3\n        /* \"contracts/4_hellowWorld.sol\":385:423  abi.encodePacked('Hello World ', name) */\n      add(0x20, mload(0x40))\n      tag_15\n      swap2\n      swap1\n      tag_16\n      jump\t// in\n    tag_15:\n      mload(0x40)\n      0x20\n      dup2\n      dup4\n      sub\n      sub\n      dup2\n      mstore\n      swap1\n      0x40\n      mstore\n        /* \"contracts/4_hellowWorld.sol\":353:424  string memory greeting = string(abi.encodePacked('Hello World ', name)) */\n      swap1\n      pop\n        /* \"contracts/4_hellowWorld.sol\":442:450  greeting */\n      dup1\n        /* \"contracts/4_hellowWorld.sol\":435:450  return greeting */\n      swap2\n      pop\n      pop\n        /* \"contracts/4_hellowWorld.sol\":193:458  function sayHello2(string memory name) public pure returns (string memory) {... */\n      swap2\n      swap1\n      pop\n      jump\t// out\n        /* \"contracts/4_hellowWorld.sol\":91:185  function sayHello() public pure returns (string memory){... */\n    tag_12:\n        /* \"contracts/4_hellowWorld.sol\":132:145  string memory */\n      0x60\n        /* \"contracts/4_hellowWorld.sol\":157:177  return 'Hello World' */\n      mload(0x40)\n      dup1\n      0x40\n      add\n      0x40\n      mstore\n      dup1\n      0x0b\n      dup2\n      mstore\n      0x20\n      add\n      0x48656c6c6f20576f726c64000000000000000000000000000000000000000000\n      dup2\n      mstore\n      pop\n      swap1\n      pop\n        /* \"contracts/4_hellowWorld.sol\":91:185  function sayHello() public pure returns (string memory){... */\n      swap1\n      jump\t// out\n        /* \"#utility.yul\":7:82   */\n    tag_18:\n        /* \"#utility.yul\":40:46   */\n      0x00\n        /* \"#utility.yul\":73:75   */\n      0x40\n        /* \"#utility.yul\":67:76   */\n      mload\n        /* \"#utility.yul\":57:76   */\n      swap1\n      pop\n        /* \"#utility.yul\":7:82   */\n      swap1\n      jump\t// out\n        /* \"#utility.yul\":88:205   */\n    tag_19:\n        /* \"#utility.yul\":197:198   */\n      0x00\n        /* \"#utility.yul\":194:195   */\n      dup1\n        /* \"#utility.yul\":187:199   */\n      revert\n        /* \"#utility.yul\":211:328   */\n    tag_20:\n        /* \"#utility.yul\":320:321   */\n      0x00\n        /* \"#utility.yul\":317:318   */\n      dup1\n        /* \"#utility.yul\":310:322   */\n      revert\n        /* \"#utility.yul\":334:451   */\n    tag_21:\n        /* \"#utility.yul\":443:444   */\n      0x00\n        /* \"#utility.yul\":440:441   */\n      dup1\n        /* \"#utility.yul\":433:445   */\n      revert\n        /* \"#utility.yul\":457:574   */\n    tag_22:\n        /* \"#utility.yul\":566:567   */\n      0x00\n        /* \"#utility.yul\":563:564   */\n      dup1\n        /* \"#utility.yul\":556:568   */\n      revert\n        /* \"#utility.yul\":580:682   */\n    tag_23:\n        /* \"#utility.yul\":621:627   */\n      0x00\n        /* \"#utility.yul\":672:674   */\n      0x1f\n        /* \"#utility.yul\":668:675   */\n      not\n        /* \"#utility.yul\":663:665   */\n      0x1f\n        /* \"#utility.yul\":656:661   */\n      dup4\n        /* \"#utility.yul\":652:666   */\n      add\n        /* \"#utility.yul\":648:676   */\n      and\n        /* \"#utility.yul\":638:676   */\n      swap1\n      pop\n        /* \"#utility.yul\":580:682   */\n      swap2\n      swap1\n      pop\n      jump\t// out\n        /* \"#utility.yul\":688:868   */\n    tag_24:\n        /* \"#utility.yul\":736:813   */\n      0x4e487b7100000000000000000000000000000000000000000000000000000000\n        /* \"#utility.yul\":733:734   */\n      0x00\n        /* \"#utility.yul\":726:814   */\n      mstore\n        /* \"#utility.yul\":833:837   */\n      0x41\n        /* \"#utility.yul\":830:831   */\n      0x04\n        /* \"#utility.yul\":823:838   */\n      mstore\n        /* \"#utility.yul\":857:861   */\n      0x24\n        /* \"#utility.yul\":854:855   */\n      0x00\n        /* \"#utility.yul\":847:862   */\n      revert\n        /* \"#utility.yul\":874:1155   */\n    tag_25:\n        /* \"#utility.yul\":957:984   */\n      tag_48\n        /* \"#utility.yul\":979:983   */\n      dup3\n        /* \"#utility.yul\":957:984   */\n      tag_23\n      jump\t// in\n    tag_48:\n        /* \"#utility.yul\":949:955   */\n      dup2\n        /* \"#utility.yul\":945:985   */\n      add\n        /* \"#utility.yul\":1087:1093   */\n      dup2\n        /* \"#utility.yul\":1075:1085   */\n      dup2\n        /* \"#utility.yul\":1072:1094   */\n      lt\n        /* \"#utility.yul\":1051:1069   */\n      0xffffffffffffffff\n        /* \"#utility.yul\":1039:1049   */\n      dup3\n        /* \"#utility.yul\":1036:1070   */\n      gt\n        /* \"#utility.yul\":1033:1095   */\n      or\n        /* \"#utility.yul\":1030:1118   */\n      iszero\n      tag_49\n      jumpi\n        /* \"#utility.yul\":1098:1116   */\n      tag_50\n      tag_24\n      jump\t// in\n    tag_50:\n        /* \"#utility.yul\":1030:1118   */\n    tag_49:\n        /* \"#utility.yul\":1138:1148   */\n      dup1\n        /* \"#utility.yul\":1134:1136   */\n      0x40\n        /* \"#utility.yul\":1127:1149   */\n      mstore\n        /* \"#utility.yul\":917:1155   */\n      pop\n        /* \"#utility.yul\":874:1155   */\n      pop\n      pop\n      jump\t// out\n        /* \"#utility.yul\":1161:1290   */\n    tag_26:\n        /* \"#utility.yul\":1195:1201   */\n      0x00\n        /* \"#utility.yul\":1222:1242   */\n      tag_52\n      tag_18\n      jump\t// in\n    tag_52:\n        /* \"#utility.yul\":1212:1242   */\n      swap1\n      pop\n        /* \"#utility.yul\":1251:1284   */\n      tag_53\n        /* \"#utility.yul\":1279:1283   */\n      dup3\n        /* \"#utility.yul\":1271:1277   */\n      dup3\n        /* \"#utility.yul\":1251:1284   */\n      tag_25\n      jump\t// in\n    tag_53:\n        /* \"#utility.yul\":1161:1290   */\n      swap2\n      swap1\n      pop\n      jump\t// out\n        /* \"#utility.yul\":1296:1604   */\n    tag_27:\n        /* \"#utility.yul\":1358:1362   */\n      0x00\n        /* \"#utility.yul\":1448:1466   */\n      0xffffffffffffffff\n        /* \"#utility.yul\":1440:1446   */\n      dup3\n        /* \"#utility.yul\":1437:1467   */\n      gt\n        /* \"#utility.yul\":1434:1490   */\n      iszero\n      tag_55\n      jumpi\n        /* \"#utility.yul\":1470:1488   */\n      tag_56\n      tag_24\n      jump\t// in\n    tag_56:\n        /* \"#utility.yul\":1434:1490   */\n    tag_55:\n        /* \"#utility.yul\":1508:1537   */\n      tag_57\n        /* \"#utility.yul\":1530:1536   */\n      dup3\n        /* \"#utility.yul\":1508:1537   */\n      tag_23\n      jump\t// in\n    tag_57:\n        /* \"#utility.yul\":1500:1537   */\n      swap1\n      pop\n        /* \"#utility.yul\":1592:1596   */\n      0x20\n        /* \"#utility.yul\":1586:1590   */\n      dup2\n        /* \"#utility.yul\":1582:1597   */\n      add\n        /* \"#utility.yul\":1574:1597   */\n      swap1\n      pop\n        /* \"#utility.yul\":1296:1604   */\n      swap2\n      swap1\n      pop\n      jump\t// out\n        /* \"#utility.yul\":1610:1764   */\n    tag_28:\n        /* \"#utility.yul\":1694:1700   */\n      dup3\n        /* \"#utility.yul\":1689:1692   */\n      dup2\n        /* \"#utility.yul\":1684:1687   */\n      dup4\n        /* \"#utility.yul\":1671:1701   */\n      calldatacopy\n        /* \"#utility.yul\":1756:1757   */\n      0x00\n        /* \"#utility.yul\":1747:1753   */\n      dup4\n        /* \"#utility.yul\":1742:1745   */\n      dup4\n        /* \"#utility.yul\":1738:1754   */\n      add\n        /* \"#utility.yul\":1731:1758   */\n      mstore\n        /* \"#utility.yul\":1610:1764   */\n      pop\n      pop\n      pop\n      jump\t// out\n        /* \"#utility.yul\":1770:2182   */\n    tag_29:\n        /* \"#utility.yul\":1848:1853   */\n      0x00\n        /* \"#utility.yul\":1873:1939   */\n      tag_60\n        /* \"#utility.yul\":1889:1938   */\n      tag_61\n        /* \"#utility.yul\":1931:1937   */\n      dup5\n        /* \"#utility.yul\":1889:1938   */\n      tag_27\n      jump\t// in\n    tag_61:\n        /* \"#utility.yul\":1873:1939   */\n      tag_26\n      jump\t// in\n    tag_60:\n        /* \"#utility.yul\":1864:1939   */\n      swap1\n      pop\n        /* \"#utility.yul\":1962:1968   */\n      dup3\n        /* \"#utility.yul\":1955:1960   */\n      dup2\n        /* \"#utility.yul\":1948:1969   */\n      mstore\n        /* \"#utility.yul\":2000:2004   */\n      0x20\n        /* \"#utility.yul\":1993:1998   */\n      dup2\n        /* \"#utility.yul\":1989:2005   */\n      add\n        /* \"#utility.yul\":2038:2041   */\n      dup5\n        /* \"#utility.yul\":2029:2035   */\n      dup5\n        /* \"#utility.yul\":2024:2027   */\n      dup5\n        /* \"#utility.yul\":2020:2036   */\n      add\n        /* \"#utility.yul\":2017:2042   */\n      gt\n        /* \"#utility.yul\":2014:2126   */\n      iszero\n      tag_62\n      jumpi\n        /* \"#utility.yul\":2045:2124   */\n      tag_63\n      tag_22\n      jump\t// in\n    tag_63:\n        /* \"#utility.yul\":2014:2126   */\n    tag_62:\n        /* \"#utility.yul\":2135:2176   */\n      tag_64\n        /* \"#utility.yul\":2169:2175   */\n      dup5\n        /* \"#utility.yul\":2164:2167   */\n      dup3\n        /* \"#utility.yul\":2159:2162   */\n      dup6\n        /* \"#utility.yul\":2135:2176   */\n      tag_28\n      jump\t// in\n    tag_64:\n        /* \"#utility.yul\":1854:2182   */\n      pop\n        /* \"#utility.yul\":1770:2182   */\n      swap4\n      swap3\n      pop\n      pop\n      pop\n      jump\t// out\n        /* \"#utility.yul\":2202:2542   */\n    tag_30:\n        /* \"#utility.yul\":2258:2263   */\n      0x00\n        /* \"#utility.yul\":2307:2310   */\n      dup3\n        /* \"#utility.yul\":2300:2304   */\n      0x1f\n        /* \"#utility.yul\":2292:2298   */\n      dup4\n        /* \"#utility.yul\":2288:2305   */\n      add\n        /* \"#utility.yul\":2284:2311   */\n      slt\n        /* \"#utility.yul\":2274:2396   */\n      tag_66\n      jumpi\n        /* \"#utility.yul\":2315:2394   */\n      tag_67\n      tag_21\n      jump\t// in\n    tag_67:\n        /* \"#utility.yul\":2274:2396   */\n    tag_66:\n        /* \"#utility.yul\":2432:2438   */\n      dup2\n        /* \"#utility.yul\":2419:2439   */\n      calldataload\n        /* \"#utility.yul\":2457:2536   */\n      tag_68\n        /* \"#utility.yul\":2532:2535   */\n      dup5\n        /* \"#utility.yul\":2524:2530   */\n      dup3\n        /* \"#utility.yul\":2517:2521   */\n      0x20\n        /* \"#utility.yul\":2509:2515   */\n      dup7\n        /* \"#utility.yul\":2505:2522   */\n      add\n        /* \"#utility.yul\":2457:2536   */\n      tag_29\n      jump\t// in\n    tag_68:\n        /* \"#utility.yul\":2448:2536   */\n      swap2\n      pop\n        /* \"#utility.yul\":2264:2542   */\n      pop\n        /* \"#utility.yul\":2202:2542   */\n      swap3\n      swap2\n      pop\n      pop\n      jump\t// out\n        /* \"#utility.yul\":2548:3057   */\n    tag_7:\n        /* \"#utility.yul\":2617:2623   */\n      0x00\n        /* \"#utility.yul\":2666:2668   */\n      0x20\n        /* \"#utility.yul\":2654:2663   */\n      dup3\n        /* \"#utility.yul\":2645:2652   */\n      dup5\n        /* \"#utility.yul\":2641:2664   */\n      sub\n        /* \"#utility.yul\":2637:2669   */\n      slt\n        /* \"#utility.yul\":2634:2753   */\n      iszero\n      tag_70\n      jumpi\n        /* \"#utility.yul\":2672:2751   */\n      tag_71\n      tag_19\n      jump\t// in\n    tag_71:\n        /* \"#utility.yul\":2634:2753   */\n    tag_70:\n        /* \"#utility.yul\":2820:2821   */\n      0x00\n        /* \"#utility.yul\":2809:2818   */\n      dup3\n        /* \"#utility.yul\":2805:2822   */\n      add\n        /* \"#utility.yul\":2792:2823   */\n      calldataload\n        /* \"#utility.yul\":2850:2868   */\n      0xffffffffffffffff\n        /* \"#utility.yul\":2842:2848   */\n      dup2\n        /* \"#utility.yul\":2839:2869   */\n      gt\n        /* \"#utility.yul\":2836:2953   */\n      iszero\n      tag_72\n      jumpi\n        /* \"#utility.yul\":2872:2951   */\n      tag_73\n      tag_20\n      jump\t// in\n    tag_73:\n        /* \"#utility.yul\":2836:2953   */\n    tag_72:\n        /* \"#utility.yul\":2977:3040   */\n      tag_74\n        /* \"#utility.yul\":3032:3039   */\n      dup5\n        /* \"#utility.yul\":3023:3029   */\n      dup3\n        /* \"#utility.yul\":3012:3021   */\n      dup6\n        /* \"#utility.yul\":3008:3030   */\n      add\n        /* \"#utility.yul\":2977:3040   */\n      tag_30\n      jump\t// in\n    tag_74:\n        /* \"#utility.yul\":2967:3040   */\n      swap2\n      pop\n        /* \"#utility.yul\":2763:3050   */\n      pop\n        /* \"#utility.yul\":2548:3057   */\n      swap3\n      swap2\n      pop\n      pop\n      jump\t// out\n        /* \"#utility.yul\":3063:3162   */\n    tag_31:\n        /* \"#utility.yul\":3115:3121   */\n      0x00\n        /* \"#utility.yul\":3149:3154   */\n      dup2\n        /* \"#utility.yul\":3143:3155   */\n      mload\n        /* \"#utility.yul\":3133:3155   */\n      swap1\n      pop\n        /* \"#utility.yul\":3063:3162   */\n      swap2\n      swap1\n      pop\n      jump\t// out\n        /* \"#utility.yul\":3168:3337   */\n    tag_32:\n        /* \"#utility.yul\":3252:3263   */\n      0x00\n        /* \"#utility.yul\":3286:3292   */\n      dup3\n        /* \"#utility.yul\":3281:3284   */\n      dup3\n        /* \"#utility.yul\":3274:3293   */\n      mstore\n        /* \"#utility.yul\":3326:3330   */\n      0x20\n        /* \"#utility.yul\":3321:3324   */\n      dup3\n        /* \"#utility.yul\":3317:3331   */\n      add\n        /* \"#utility.yul\":3302:3331   */\n      swap1\n      pop\n        /* \"#utility.yul\":3168:3337   */\n      swap3\n      swap2\n      pop\n      pop\n      jump\t// out\n        /* \"#utility.yul\":3343:3650   */\n    tag_33:\n        /* \"#utility.yul\":3411:3412   */\n      0x00\n        /* \"#utility.yul\":3421:3534   */\n    tag_78:\n        /* \"#utility.yul\":3435:3441   */\n      dup4\n        /* \"#utility.yul\":3432:3433   */\n      dup2\n        /* \"#utility.yul\":3429:3442   */\n      lt\n        /* \"#utility.yul\":3421:3534   */\n      iszero\n      tag_80\n      jumpi\n        /* \"#utility.yul\":3520:3521   */\n      dup1\n        /* \"#utility.yul\":3515:3518   */\n      dup3\n        /* \"#utility.yul\":3511:3522   */\n      add\n        /* \"#utility.yul\":3505:3523   */\n      mload\n        /* \"#utility.yul\":3501:3502   */\n      dup2\n        /* \"#utility.yul\":3496:3499   */\n      dup5\n        /* \"#utility.yul\":3492:3503   */\n      add\n        /* \"#utility.yul\":3485:3524   */\n      mstore\n        /* \"#utility.yul\":3457:3459   */\n      0x20\n        /* \"#utility.yul\":3454:3455   */\n      dup2\n        /* \"#utility.yul\":3450:3460   */\n      add\n        /* \"#utility.yul\":3445:3460   */\n      swap1\n      pop\n        /* \"#utility.yul\":3421:3534   */\n      jump(tag_78)\n    tag_80:\n        /* \"#utility.yul\":3552:3558   */\n      dup4\n        /* \"#utility.yul\":3549:3550   */\n      dup2\n        /* \"#utility.yul\":3546:3559   */\n      gt\n        /* \"#utility.yul\":3543:3644   */\n      iszero\n      tag_81\n      jumpi\n        /* \"#utility.yul\":3632:3633   */\n      0x00\n        /* \"#utility.yul\":3623:3629   */\n      dup5\n        /* \"#utility.yul\":3618:3621   */\n      dup5\n        /* \"#utility.yul\":3614:3630   */\n      add\n        /* \"#utility.yul\":3607:3634   */\n      mstore\n        /* \"#utility.yul\":3543:3644   */\n    tag_81:\n        /* \"#utility.yul\":3392:3650   */\n      pop\n        /* \"#utility.yul\":3343:3650   */\n      pop\n      pop\n      pop\n      jump\t// out\n        /* \"#utility.yul\":3656:4020   */\n    tag_34:\n        /* \"#utility.yul\":3744:3747   */\n      0x00\n        /* \"#utility.yul\":3772:3811   */\n      tag_83\n        /* \"#utility.yul\":3805:3810   */\n      dup3\n        /* \"#utility.yul\":3772:3811   */\n      tag_31\n      jump\t// in\n    tag_83:\n        /* \"#utility.yul\":3827:3898   */\n      tag_84\n        /* \"#utility.yul\":3891:3897   */\n      dup2\n        /* \"#utility.yul\":3886:3889   */\n      dup6\n        /* \"#utility.yul\":3827:3898   */\n      tag_32\n      jump\t// in\n    tag_84:\n        /* \"#utility.yul\":3820:3898   */\n      swap4\n      pop\n        /* \"#utility.yul\":3907:3959   */\n      tag_85\n        /* \"#utility.yul\":3952:3958   */\n      dup2\n        /* \"#utility.yul\":3947:3950   */\n      dup6\n        /* \"#utility.yul\":3940:3944   */\n      0x20\n        /* \"#utility.yul\":3933:3938   */\n      dup7\n        /* \"#utility.yul\":3929:3945   */\n      add\n        /* \"#utility.yul\":3907:3959   */\n      tag_33\n      jump\t// in\n    tag_85:\n        /* \"#utility.yul\":3984:4013   */\n      tag_86\n        /* \"#utility.yul\":4006:4012   */\n      dup2\n        /* \"#utility.yul\":3984:4013   */\n      tag_23\n      jump\t// in\n    tag_86:\n        /* \"#utility.yul\":3979:3982   */\n      dup5\n        /* \"#utility.yul\":3975:4014   */\n      add\n        /* \"#utility.yul\":3968:4014   */\n      swap2\n      pop\n        /* \"#utility.yul\":3748:4020   */\n      pop\n        /* \"#utility.yul\":3656:4020   */\n      swap3\n      swap2\n      pop\n      pop\n      jump\t// out\n        /* \"#utility.yul\":4026:4339   */\n    tag_10:\n        /* \"#utility.yul\":4139:4143   */\n      0x00\n        /* \"#utility.yul\":4177:4179   */\n      0x20\n        /* \"#utility.yul\":4166:4175   */\n      dup3\n        /* \"#utility.yul\":4162:4180   */\n      add\n        /* \"#utility.yul\":4154:4180   */\n      swap1\n      pop\n        /* \"#utility.yul\":4226:4235   */\n      dup2\n        /* \"#utility.yul\":4220:4224   */\n      dup2\n        /* \"#utility.yul\":4216:4236   */\n      sub\n        /* \"#utility.yul\":4212:4213   */\n      0x00\n        /* \"#utility.yul\":4201:4210   */\n      dup4\n        /* \"#utility.yul\":4197:4214   */\n      add\n        /* \"#utility.yul\":4190:4237   */\n      mstore\n        /* \"#utility.yul\":4254:4332   */\n      tag_88\n        /* \"#utility.yul\":4327:4331   */\n      dup2\n        /* \"#utility.yul\":4318:4324   */\n      dup5\n        /* \"#utility.yul\":4254:4332   */\n      tag_34\n      jump\t// in\n    tag_88:\n        /* \"#utility.yul\":4246:4332   */\n      swap1\n      pop\n        /* \"#utility.yul\":4026:4339   */\n      swap3\n      swap2\n      pop\n      pop\n      jump\t// out\n        /* \"#utility.yul\":4345:4493   */\n    tag_35:\n        /* \"#utility.yul\":4447:4458   */\n      0x00\n        /* \"#utility.yul\":4484:4487   */\n      dup2\n        /* \"#utility.yul\":4469:4487   */\n      swap1\n      pop\n        /* \"#utility.yul\":4345:4493   */\n      swap3\n      swap2\n      pop\n      pop\n      jump\t// out\n        /* \"#utility.yul\":4499:4661   */\n    tag_36:\n        /* \"#utility.yul\":4639:4653   */\n      0x48656c6c6f20576f726c64200000000000000000000000000000000000000000\n        /* \"#utility.yul\":4635:4636   */\n      0x00\n        /* \"#utility.yul\":4627:4633   */\n      dup3\n        /* \"#utility.yul\":4623:4637   */\n      add\n        /* \"#utility.yul\":4616:4654   */\n      mstore\n        /* \"#utility.yul\":4499:4661   */\n      pop\n      jump\t// out\n        /* \"#utility.yul\":4667:5069   */\n    tag_37:\n        /* \"#utility.yul\":4827:4830   */\n      0x00\n        /* \"#utility.yul\":4848:4933   */\n      tag_92\n        /* \"#utility.yul\":4930:4932   */\n      0x0c\n        /* \"#utility.yul\":4925:4928   */\n      dup4\n        /* \"#utility.yul\":4848:4933   */\n      tag_35\n      jump\t// in\n    tag_92:\n        /* \"#utility.yul\":4841:4933   */\n      swap2\n      pop\n        /* \"#utility.yul\":4942:5035   */\n      tag_93\n        /* \"#utility.yul\":5031:5034   */\n      dup3\n        /* \"#utility.yul\":4942:5035   */\n      tag_36\n      jump\t// in\n    tag_93:\n        /* \"#utility.yul\":5060:5062   */\n      0x0c\n        /* \"#utility.yul\":5055:5058   */\n      dup3\n        /* \"#utility.yul\":5051:5063   */\n      add\n        /* \"#utility.yul\":5044:5063   */\n      swap1\n      pop\n        /* \"#utility.yul\":4667:5069   */\n      swap2\n      swap1\n      pop\n      jump\t// out\n        /* \"#utility.yul\":5075:5452   */\n    tag_38:\n        /* \"#utility.yul\":5181:5184   */\n      0x00\n        /* \"#utility.yul\":5209:5248   */\n      tag_95\n        /* \"#utility.yul\":5242:5247   */\n      dup3\n        /* \"#utility.yul\":5209:5248   */\n      tag_31\n      jump\t// in\n    tag_95:\n        /* \"#utility.yul\":5264:5353   */\n      tag_96\n        /* \"#utility.yul\":5346:5352   */\n      dup2\n        /* \"#utility.yul\":5341:5344   */\n      dup6\n        /* \"#utility.yul\":5264:5353   */\n      tag_35\n      jump\t// in\n    tag_96:\n        /* \"#utility.yul\":5257:5353   */\n      swap4\n      pop\n        /* \"#utility.yul\":5362:5414   */\n      tag_97\n        /* \"#utility.yul\":5407:5413   */\n      dup2\n        /* \"#utility.yul\":5402:5405   */\n      dup6\n        /* \"#utility.yul\":5395:5399   */\n      0x20\n        /* \"#utility.yul\":5388:5393   */\n      dup7\n        /* \"#utility.yul\":5384:5400   */\n      add\n        /* \"#utility.yul\":5362:5414   */\n      tag_33\n      jump\t// in\n    tag_97:\n        /* \"#utility.yul\":5439:5445   */\n      dup1\n        /* \"#utility.yul\":5434:5437   */\n      dup5\n        /* \"#utility.yul\":5430:5446   */\n      add\n        /* \"#utility.yul\":5423:5446   */\n      swap2\n      pop\n        /* \"#utility.yul\":5185:5452   */\n      pop\n        /* \"#utility.yul\":5075:5452   */\n      swap3\n      swap2\n      pop\n      pop\n      jump\t// out\n        /* \"#utility.yul\":5458:5999   */\n    tag_16:\n        /* \"#utility.yul\":5691:5694   */\n      0x00\n        /* \"#utility.yul\":5713:5861   */\n      tag_99\n        /* \"#utility.yul\":5857:5860   */\n      dup3\n        /* \"#utility.yul\":5713:5861   */\n      tag_37\n      jump\t// in\n    tag_99:\n        /* \"#utility.yul\":5706:5861   */\n      swap2\n      pop\n        /* \"#utility.yul\":5878:5973   */\n      tag_100\n        /* \"#utility.yul\":5969:5972   */\n      dup3\n        /* \"#utility.yul\":5960:5966   */\n      dup5\n        /* \"#utility.yul\":5878:5973   */\n      tag_38\n      jump\t// in\n    tag_100:\n        /* \"#utility.yul\":5871:5973   */\n      swap2\n      pop\n        /* \"#utility.yul\":5990:5993   */\n      dup2\n        /* \"#utility.yul\":5983:5993   */\n      swap1\n      pop\n        /* \"#utility.yul\":5458:5999   */\n      swap3\n      swap2\n      pop\n      pop\n      jump\t// out\n\n    auxdata: 0xa26469706673582212203d15f92737332409f05135bf59ff2915927b5a410587109d18032cf7e8b4133164736f6c63430008090033\n}\n",
				"bytecode": {
					"linkReferences": {},
					"object": "608060405234801561001057600080fd5b50610422806100206000396000f3fe608060405234801561001057600080fd5b50600436106100365760003560e01c8063819a34b61461003b578063ef5fb05b1461006b575b600080fd5b6100556004803603810190610050919061024f565b610089565b6040516100629190610320565b60405180910390f35b6100736100b8565b6040516100809190610320565b60405180910390f35b606060008260405160200161009e91906103ca565b604051602081830303815290604052905080915050919050565b60606040518060400160405280600b81526020017f48656c6c6f20576f726c64000000000000000000000000000000000000000000815250905090565b6000604051905090565b600080fd5b600080fd5b600080fd5b600080fd5b6000601f19601f8301169050919050565b7f4e487b7100000000000000000000000000000000000000000000000000000000600052604160045260246000fd5b61015c82610113565b810181811067ffffffffffffffff8211171561017b5761017a610124565b5b80604052505050565b600061018e6100f5565b905061019a8282610153565b919050565b600067ffffffffffffffff8211156101ba576101b9610124565b5b6101c382610113565b9050602081019050919050565b82818337600083830152505050565b60006101f26101ed8461019f565b610184565b90508281526020810184848401111561020e5761020d61010e565b5b6102198482856101d0565b509392505050565b600082601f83011261023657610235610109565b5b81356102468482602086016101df565b91505092915050565b600060208284031215610265576102646100ff565b5b600082013567ffffffffffffffff81111561028357610282610104565b5b61028f84828501610221565b91505092915050565b600081519050919050565b600082825260208201905092915050565b60005b838110156102d25780820151818401526020810190506102b7565b838111156102e1576000848401525b50505050565b60006102f282610298565b6102fc81856102a3565b935061030c8185602086016102b4565b61031581610113565b840191505092915050565b6000602082019050818103600083015261033a81846102e7565b905092915050565b600081905092915050565b7f48656c6c6f20576f726c64200000000000000000000000000000000000000000600082015250565b6000610383600c83610342565b915061038e8261034d565b600c82019050919050565b60006103a482610298565b6103ae8185610342565b93506103be8185602086016102b4565b80840191505092915050565b60006103d582610376565b91506103e18284610399565b91508190509291505056fea26469706673582212203d15f92737332409f05135bf59ff2915927b5a410587109d18032cf7e8b4133164736f6c63430008090033",
					"opcodes": "PUSH1 0x80 PUSH1 0x40 MSTORE CALLVALUE DUP1 ISZERO PUSH2 0x10 JUMPI PUSH1 0x0 DUP1 REVERT JUMPDEST POP PUSH2 0x422 DUP1 PUSH2 0x20 PUSH1 0x0 CODECOPY PUSH1 0x0 RETURN INVALID PUSH1 0x80 PUSH1 0x40 MSTORE CALLVALUE DUP1 ISZERO PUSH2 0x10 JUMPI PUSH1 0x0 DUP1 REVERT JUMPDEST POP PUSH1 0x4 CALLDATASIZE LT PUSH2 0x36 JUMPI PUSH1 0x0 CALLDATALOAD PUSH1 0xE0 SHR DUP1 PUSH4 0x819A34B6 EQ PUSH2 0x3B JUMPI DUP1 PUSH4 0xEF5FB05B EQ PUSH2 0x6B JUMPI JUMPDEST PUSH1 0x0 DUP1 REVERT JUMPDEST PUSH2 0x55 PUSH1 0x4 DUP1 CALLDATASIZE SUB DUP2 ADD SWAP1 PUSH2 0x50 SWAP2 SWAP1 PUSH2 0x24F JUMP JUMPDEST PUSH2 0x89 JUMP JUMPDEST PUSH1 0x40 MLOAD PUSH2 0x62 SWAP2 SWAP1 PUSH2 0x320 JUMP JUMPDEST PUSH1 0x40 MLOAD DUP1 SWAP2 SUB SWAP1 RETURN JUMPDEST PUSH2 0x73 PUSH2 0xB8 JUMP JUMPDEST PUSH1 0x40 MLOAD PUSH2 0x80 SWAP2 SWAP1 PUSH2 0x320 JUMP JUMPDEST PUSH1 0x40 MLOAD DUP1 SWAP2 SUB SWAP1 RETURN JUMPDEST PUSH1 0x60 PUSH1 0x0 DUP3 PUSH1 0x40 MLOAD PUSH1 0x20 ADD PUSH2 0x9E SWAP2 SWAP1 PUSH2 0x3CA JUMP JUMPDEST PUSH1 0x40 MLOAD PUSH1 0x20 DUP2 DUP4 SUB SUB DUP2 MSTORE SWAP1 PUSH1 0x40 MSTORE SWAP1 POP DUP1 SWAP2 POP POP SWAP2 SWAP1 POP JUMP JUMPDEST PUSH1 0x60 PUSH1 0x40 MLOAD DUP1 PUSH1 0x40 ADD PUSH1 0x40 MSTORE DUP1 PUSH1 0xB DUP2 MSTORE PUSH1 0x20 ADD PUSH32 0x48656C6C6F20576F726C64000000000000000000000000000000000000000000 DUP2 MSTORE POP SWAP1 POP SWAP1 JUMP JUMPDEST PUSH1 0x0 PUSH1 0x40 MLOAD SWAP1 POP SWAP1 JUMP JUMPDEST PUSH1 0x0 DUP1 REVERT JUMPDEST PUSH1 0x0 DUP1 REVERT JUMPDEST PUSH1 0x0 DUP1 REVERT JUMPDEST PUSH1 0x0 DUP1 REVERT JUMPDEST PUSH1 0x0 PUSH1 0x1F NOT PUSH1 0x1F DUP4 ADD AND SWAP1 POP SWAP2 SWAP1 POP JUMP JUMPDEST PUSH32 0x4E487B7100000000000000000000000000000000000000000000000000000000 PUSH1 0x0 MSTORE PUSH1 0x41 PUSH1 0x4 MSTORE PUSH1 0x24 PUSH1 0x0 REVERT JUMPDEST PUSH2 0x15C DUP3 PUSH2 0x113 JUMP JUMPDEST DUP2 ADD DUP2 DUP2 LT PUSH8 0xFFFFFFFFFFFFFFFF DUP3 GT OR ISZERO PUSH2 0x17B JUMPI PUSH2 0x17A PUSH2 0x124 JUMP JUMPDEST JUMPDEST DUP1 PUSH1 0x40 MSTORE POP POP POP JUMP JUMPDEST PUSH1 0x0 PUSH2 0x18E PUSH2 0xF5 JUMP JUMPDEST SWAP1 POP PUSH2 0x19A DUP3 DUP3 PUSH2 0x153 JUMP JUMPDEST SWAP2 SWAP1 POP JUMP JUMPDEST PUSH1 0x0 PUSH8 0xFFFFFFFFFFFFFFFF DUP3 GT ISZERO PUSH2 0x1BA JUMPI PUSH2 0x1B9 PUSH2 0x124 JUMP JUMPDEST JUMPDEST PUSH2 0x1C3 DUP3 PUSH2 0x113 JUMP JUMPDEST SWAP1 POP PUSH1 0x20 DUP2 ADD SWAP1 POP SWAP2 SWAP1 POP JUMP JUMPDEST DUP3 DUP2 DUP4 CALLDATACOPY PUSH1 0x0 DUP4 DUP4 ADD MSTORE POP POP POP JUMP JUMPDEST PUSH1 0x0 PUSH2 0x1F2 PUSH2 0x1ED DUP5 PUSH2 0x19F JUMP JUMPDEST PUSH2 0x184 JUMP JUMPDEST SWAP1 POP DUP3 DUP2 MSTORE PUSH1 0x20 DUP2 ADD DUP5 DUP5 DUP5 ADD GT ISZERO PUSH2 0x20E JUMPI PUSH2 0x20D PUSH2 0x10E JUMP JUMPDEST JUMPDEST PUSH2 0x219 DUP5 DUP3 DUP6 PUSH2 0x1D0 JUMP JUMPDEST POP SWAP4 SWAP3 POP POP POP JUMP JUMPDEST PUSH1 0x0 DUP3 PUSH1 0x1F DUP4 ADD SLT PUSH2 0x236 JUMPI PUSH2 0x235 PUSH2 0x109 JUMP JUMPDEST JUMPDEST DUP2 CALLDATALOAD PUSH2 0x246 DUP5 DUP3 PUSH1 0x20 DUP7 ADD PUSH2 0x1DF JUMP JUMPDEST SWAP2 POP POP SWAP3 SWAP2 POP POP JUMP JUMPDEST PUSH1 0x0 PUSH1 0x20 DUP3 DUP5 SUB SLT ISZERO PUSH2 0x265 JUMPI PUSH2 0x264 PUSH2 0xFF JUMP JUMPDEST JUMPDEST PUSH1 0x0 DUP3 ADD CALLDATALOAD PUSH8 0xFFFFFFFFFFFFFFFF DUP2 GT ISZERO PUSH2 0x283 JUMPI PUSH2 0x282 PUSH2 0x104 JUMP JUMPDEST JUMPDEST PUSH2 0x28F DUP5 DUP3 DUP6 ADD PUSH2 0x221 JUMP JUMPDEST SWAP2 POP POP SWAP3 SWAP2 POP POP JUMP JUMPDEST PUSH1 0x0 DUP2 MLOAD SWAP1 POP SWAP2 SWAP1 POP JUMP JUMPDEST PUSH1 0x0 DUP3 DUP3 MSTORE PUSH1 0x20 DUP3 ADD SWAP1 POP SWAP3 SWAP2 POP POP JUMP JUMPDEST PUSH1 0x0 JUMPDEST DUP4 DUP2 LT ISZERO PUSH2 0x2D2 JUMPI DUP1 DUP3 ADD MLOAD DUP2 DUP5 ADD MSTORE PUSH1 0x20 DUP2 ADD SWAP1 POP PUSH2 0x2B7 JUMP JUMPDEST DUP4 DUP2 GT ISZERO PUSH2 0x2E1 JUMPI PUSH1 0x0 DUP5 DUP5 ADD MSTORE JUMPDEST POP POP POP POP JUMP JUMPDEST PUSH1 0x0 PUSH2 0x2F2 DUP3 PUSH2 0x298 JUMP JUMPDEST PUSH2 0x2FC DUP2 DUP6 PUSH2 0x2A3 JUMP JUMPDEST SWAP4 POP PUSH2 0x30C DUP2 DUP6 PUSH1 0x20 DUP7 ADD PUSH2 0x2B4 JUMP JUMPDEST PUSH2 0x315 DUP2 PUSH2 0x113 JUMP JUMPDEST DUP5 ADD SWAP2 POP POP SWAP3 SWAP2 POP POP JUMP JUMPDEST PUSH1 0x0 PUSH1 0x20 DUP3 ADD SWAP1 POP DUP2 DUP2 SUB PUSH1 0x0 DUP4 ADD MSTORE PUSH2 0x33A DUP2 DUP5 PUSH2 0x2E7 JUMP JUMPDEST SWAP1 POP SWAP3 SWAP2 POP POP JUMP JUMPDEST PUSH1 0x0 DUP2 SWAP1 POP SWAP3 SWAP2 POP POP JUMP JUMPDEST PUSH32 0x48656C6C6F20576F726C64200000000000000000000000000000000000000000 PUSH1 0x0 DUP3 ADD MSTORE POP JUMP JUMPDEST PUSH1 0x0 PUSH2 0x383 PUSH1 0xC DUP4 PUSH2 0x342 JUMP JUMPDEST SWAP2 POP PUSH2 0x38E DUP3 PUSH2 0x34D JUMP JUMPDEST PUSH1 0xC DUP3 ADD SWAP1 POP SWAP2 SWAP1 POP JUMP JUMPDEST PUSH1 0x0 PUSH2 0x3A4 DUP3 PUSH2 0x298 JUMP JUMPDEST PUSH2 0x3AE DUP2 DUP6 PUSH2 0x342 JUMP JUMPDEST SWAP4 POP PUSH2 0x3BE DUP2 DUP6 PUSH1 0x20 DUP7 ADD PUSH2 0x2B4 JUMP JUMPDEST DUP1 DUP5 ADD SWAP2 POP POP SWAP3 SWAP2 POP POP JUMP JUMPDEST PUSH1 0x0 PUSH2 0x3D5 DUP3 PUSH2 0x376 JUMP JUMPDEST SWAP2 POP PUSH2 0x3E1 DUP3 DUP5 PUSH2 0x399 JUMP JUMPDEST SWAP2 POP DUP2 SWAP1 POP SWAP3 SWAP2 POP POP JUMP INVALID LOG2 PUSH5 0x6970667358 0x22 SLT KECCAK256 RETURNDATASIZE ISZERO 0xF9 0x27 CALLDATACOPY CALLER 0x24 MULMOD CREATE MLOAD CALLDATALOAD 0xBF MSIZE SELFDESTRUCT 0x29 ISZERO SWAP3 PUSH28 0x5A410587109D18032CF7E8B4133164736F6C63430008090033000000 "
				},
				"gasEstimates": {
					"creation": {
						"codeDepositCost": "211600",
						"executionCost": "257",
						"totalCost": "211857"
					},
					"external": {
						"sayHello()": "infinite",
						"sayHello2(string)": "infinite"
					}
				},
				"methodIdentifiers": {
					"sayHello()": "ef5fb05b",
					"sayHello2(string)": "819a34b6"
				}
			},
			"storageLayout": {
				"storage": [],
				"types": null
			},
			"userdoc": {
				"kind": "user",
				"methods": {},
				"version": 1
			}
		}
	}
}