{
	"data": {
		"bytecode": {
			"linkReferences": {},
			"object": "608060405260025f553480156012575f80fd5b5061016e806100205f395ff3fe608060405234801561000f575f80fd5b5060043610610034575f3560e01c8063a87d942c14610038578063d6d838ad14610056575b5f80fd5b610040610074565b60405161004d91906100ab565b60405180910390f35b61005e61008e565b60405161006b91906100ab565b60405180910390f35b5f805f815480929190610086906100f1565b919050555090565b5f5481565b5f819050919050565b6100a581610093565b82525050565b5f6020820190506100be5f83018461009c565b92915050565b7f4e487b71000000000000000000000000000000000000000000000000000000005f52601160045260245ffd5b5f6100fb82610093565b91507f7fffffffffffffffffffffffffffffffffffffffffffffffffffffffffffffff820361012d5761012c6100c4565b5b60018201905091905056fea26469706673582212202af4a3d80aa738f167c280a8e623459c639cc9c6e69e8ca5dc3e6ba67231985664736f6c634300081a0033",
			"opcodes": "PUSH1 0x80 PUSH1 0x40 MSTORE PUSH1 0x2 PUSH0 SSTORE CALLVALUE DUP1 ISZERO PUSH1 0x12 JUMPI PUSH0 DUP1 REVERT JUMPDEST POP PUSH2 0x16E DUP1 PUSH2 0x20 PUSH0 CODECOPY PUSH0 RETURN INVALID PUSH1 0x80 PUSH1 0x40 MSTORE CALLVALUE DUP1 ISZERO PUSH2 0xF JUMPI PUSH0 DUP1 REVERT JUMPDEST POP PUSH1 0x4 CALLDATASIZE LT PUSH2 0x34 JUMPI PUSH0 CALLDATALOAD PUSH1 0xE0 SHR DUP1 PUSH4 0xA87D942C EQ PUSH2 0x38 JUMPI DUP1 PUSH4 0xD6D838AD EQ PUSH2 0x56 JUMPI JUMPDEST PUSH0 DUP1 REVERT JUMPDEST PUSH2 0x40 PUSH2 0x74 JUMP JUMPDEST PUSH1 0x40 MLOAD PUSH2 0x4D SWAP2 SWAP1 PUSH2 0xAB JUMP JUMPDEST PUSH1 0x40 MLOAD DUP1 SWAP2 SUB SWAP1 RETURN JUMPDEST PUSH2 0x5E PUSH2 0x8E JUMP JUMPDEST PUSH1 0x40 MLOAD PUSH2 0x6B SWAP2 SWAP1 PUSH2 0xAB JUMP JUMPDEST PUSH1 0x40 MLOAD DUP1 SWAP2 SUB SWAP1 RETURN JUMPDEST PUSH0 DUP1 PUSH0 DUP2 SLOAD DUP1 SWAP3 SWAP2 SWAP1 PUSH2 0x86 SWAP1 PUSH2 0xF1 JUMP JUMPDEST SWAP2 SWAP1 POP SSTORE POP SWAP1 JUMP JUMPDEST PUSH0 SLOAD DUP2 JUMP JUMPDEST PUSH0 DUP2 SWAP1 POP SWAP2 SWAP1 POP JUMP JUMPDEST PUSH2 0xA5 DUP2 PUSH2 0x93 JUMP JUMPDEST DUP3 MSTORE POP POP JUMP JUMPDEST PUSH0 PUSH1 0x20 DUP3 ADD SWAP1 POP PUSH2 0xBE PUSH0 DUP4 ADD DUP5 PUSH2 0x9C JUMP JUMPDEST SWAP3 SWAP2 POP POP JUMP JUMPDEST PUSH32 0x4E487B7100000000000000000000000000000000000000000000000000000000 PUSH0 MSTORE PUSH1 0x11 PUSH1 0x4 MSTORE PUSH1 0x24 PUSH0 REVERT JUMPDEST PUSH0 PUSH2 0xFB DUP3 PUSH2 0x93 JUMP JUMPDEST SWAP2 POP PUSH32 0x7FFFFFFFFFFFFFFFFFFFFFFFFFFFFFFFFFFFFFFFFFFFFFFFFFFFFFFFFFFFFFFF DUP3 SUB PUSH2 0x12D JUMPI PUSH2 0x12C PUSH2 0xC4 JUMP JUMPDEST JUMPDEST PUSH1 0x1 DUP3 ADD SWAP1 POP SWAP2 SWAP1 POP JUMP INVALID LOG2 PUSH5 0x6970667358 0x22 SLT KECCAK256 0x2A DELEGATECALL LOG3 0xD8 EXP 0xA7 CODESIZE CALL PUSH8 0xC280A8E623459C63 SWAP13 0xC9 0xC6 0xE6 SWAP15 DUP13 0xA5 0xDC RETURNDATACOPY PUSH12 0xA67231985664736F6C634300 ADDMOD BYTE STOP CALLER "
		},
		"gasEstimates": {
			"creation": {
				"codeDepositCost": "73200",
				"executionCost": "22226",
				"totalCost": "95426"
			},
			"external": {
				"cnt()": "2424",
				"getCount()": "infinite"
			}
		},
		"methodIdentifiers": {
			"cnt()": "d6d838ad",
			"getCount()": "a87d942c"
		}
	},
	"abi": [
		{
			"inputs": [],
			"name": "cnt",
			"outputs": [
				{
					"internalType": "int256",
					"name": "",
					"type": "int256"
				}
			],
			"stateMutability": "view",
			"type": "function"
		},
		{
			"inputs": [],
			"name": "getCount",
			"outputs": [
				{
					"internalType": "int256",
					"name": "",
					"type": "int256"
				}
			],
			"stateMutability": "nonpayable",
			"type": "function"
		}
	]
}