{
	"data": {
		"bytecode": {
			"linkReferences": {},
			"object": "60806040523480156200001157600080fd5b5060405162001c7538038062001c75833981810160405281019062000037919062000287565b826000806101000a81548173ffffffffffffffffffffffffffffffffffffffff021916908373ffffffffffffffffffffffffffffffffffffffff16021790555042600181905550610e10846200008e9190620003e1565b6001546200009d919062000384565b6002819055506001600960006101000a81548160ff02191690836001811115620000f0577f4e487b7100000000000000000000000000000000000000000000000000000000600052602160045260246000fd5b021790555081600560000190805190602001906200011092919062000137565b5080600560010190805190602001906200012c92919062000137565b5050505050620005f4565b8280546200014590620004b6565b90600052602060002090601f016020900481019282620001695760008555620001b5565b82601f106200018457805160ff1916838001178555620001b5565b82800160010185558215620001b5579182015b82811115620001b457825182559160200191906001019062000197565b5b509050620001c49190620001c8565b5090565b5b80821115620001e3576000816000905550600101620001c9565b5090565b6000620001fe620001f8846200034e565b62000325565b9050828152602081018484840111156200021757600080fd5b6200022484828562000480565b509392505050565b6000815190506200023d81620005c0565b92915050565b600082601f8301126200025557600080fd5b815162000267848260208601620001e7565b91505092915050565b6000815190506200028181620005da565b92915050565b600080600080608085870312156200029e57600080fd5b6000620002ae8782880162000270565b9450506020620002c1878288016200022c565b935050604085015167ffffffffffffffff811115620002df57600080fd5b620002ed8782880162000243565b925050606085015167ffffffffffffffff8111156200030b57600080fd5b620003198782880162000243565b91505092959194509250565b60006200033162000344565b90506200033f8282620004ec565b919050565b6000604051905090565b600067ffffffffffffffff8211156200036c576200036b62000580565b5b6200037782620005af565b9050602081019050919050565b6000620003918262000476565b91506200039e8362000476565b9250827fffffffffffffffffffffffffffffffffffffffffffffffffffffffffffffffff03821115620003d657620003d562000522565b5b828201905092915050565b6000620003ee8262000476565b9150620003fb8362000476565b9250817fffffffffffffffffffffffffffffffffffffffffffffffffffffffffffffffff048311821515161562000437576200043662000522565b5b828202905092915050565b60006200044f8262000456565b9050919050565b600073ffffffffffffffffffffffffffffffffffffffff82169050919050565b6000819050919050565b60005b83811015620004a057808201518184015260208101905062000483565b83811115620004b0576000848401525b50505050565b60006002820490506001821680620004cf57607f821691505b60208210811415620004e657620004e562000551565b5b50919050565b620004f782620005af565b810181811067ffffffffffffffff8211171562000519576200051862000580565b5b80604052505050565b7f4e487b7100000000000000000000000000000000000000000000000000000000600052601160045260246000fd5b7f4e487b7100000000000000000000000000000000000000000000000000000000600052602260045260246000fd5b7f4e487b7100000000000000000000000000000000000000000000000000000000600052604160045260246000fd5b6000601f19601f8301169050919050565b620005cb8162000442565b8114620005d757600080fd5b50565b620005e58162000476565b8114620005f157600080fd5b50565b61167180620006046000396000f3fe6080604052600436106100dd5760003560e01c806378f453401161007f578063c458b65a11610059578063c458b65a14610280578063c486456c146102ab578063d57bde79146102d6578063ef86ce8e14610301576100dd565b806378f453401461020157806391f901571461022c578063956534ed14610257576100dd565b8063389009f0116100bb578063389009f0146101575780633ba88ca11461016e5780633ccfd60b1461019957806362ea82db146101c4576100dd565b80630216f202146100e25780630ac298dc1461010e5780631998aeef14610139575b600080fd5b3480156100ee57600080fd5b506100f7610318565b60405161010592919061119b565b60405180910390f35b34801561011a57600080fd5b5061012361043a565b60405161013091906110cf565b60405180910390f35b610141610463565b60405161014e9190611113565b60405180910390f35b34801561016357600080fd5b5061016c6106ea565b005b34801561017a57600080fd5b50610183610849565b6040516101909190611113565b60405180910390f35b3480156101a557600080fd5b506101ae6109b1565b6040516101bb9190611113565b60405180910390f35b3480156101d057600080fd5b506101eb60048036038101906101e69190610ebd565b610b71565b6040516101f891906112b2565b60405180910390f35b34801561020d57600080fd5b50610216610b89565b60405161022391906112b2565b60405180910390f35b34801561023857600080fd5b50610241610b8f565b60405161024e91906110cf565b60405180910390f35b34801561026357600080fd5b5061027e60048036038101906102799190610ee6565b610bb5565b005b34801561028c57600080fd5b50610295610ccd565b6040516102a291906112b2565b60405180910390f35b3480156102b757600080fd5b506102c0610cd3565b6040516102cd919061112e565b60405180910390f35b3480156102e257600080fd5b506102eb610ce6565b6040516102f891906112b2565b60405180910390f35b34801561030d57600080fd5b50610316610cec565b005b60058060000180546103299061140e565b80601f01602080910402602001604051908101604052809291908181526020018280546103559061140e565b80156103a25780601f10610377576101008083540402835291602001916103a2565b820191906000526020600020905b81548152906001019060200180831161038557829003601f168201915b5050505050908060010180546103b79061140e565b80601f01602080910402602001604051908101604052809291908181526020018280546103e39061140e565b80156104305780601f1061040557610100808354040283529160200191610430565b820191906000526020600020905b81548152906001019060200180831161041357829003601f168201915b5050505050905082565b60008060009054906101000a900473ffffffffffffffffffffffffffffffffffffffff16905090565b60006002544211156104aa576040517f08c379a00000000000000000000000000000000000000000000000000000000081526004016104a190611272565b60405180910390fd5b60035434600860003373ffffffffffffffffffffffffffffffffffffffff1673ffffffffffffffffffffffffffffffffffffffff168152602001908152602001600020546104f891906112f4565b11610538576040517f08c379a000000000000000000000000000000000000000000000000000000000815260040161052f90611292565b60405180910390fd5b33600460006101000a81548173ffffffffffffffffffffffffffffffffffffffff021916908373ffffffffffffffffffffffffffffffffffffffff160217905550346003819055506007339080600181540180825580915050600190039060005260206000200160009091909190916101000a81548173ffffffffffffffffffffffffffffffffffffffff021916908373ffffffffffffffffffffffffffffffffffffffff16021790555034600860003373ffffffffffffffffffffffffffffffffffffffff1673ffffffffffffffffffffffffffffffffffffffff1681526020019081526020016000205461062e91906112f4565b600860003373ffffffffffffffffffffffffffffffffffffffff1673ffffffffffffffffffffffffffffffffffffffff16815260200190815260200160002081905550600460009054906101000a900473ffffffffffffffffffffffffffffffffffffffff1673ffffffffffffffffffffffffffffffffffffffff167f0d993d4f8a84158f5329713d6d13ef54e77b325040c887c8b3e565cfd0cd3e216003546040516106db91906112b2565b60405180910390a26001905090565b60008054906101000a900473ffffffffffffffffffffffffffffffffffffffff1673ffffffffffffffffffffffffffffffffffffffff163373ffffffffffffffffffffffffffffffffffffffff1614610778576040517f08c379a000000000000000000000000000000000000000000000000000000000815260040161076f90611252565b60405180910390fd5b60025442116107bc576040517f08c379a00000000000000000000000000000000000000000000000000000000081526004016107b390611212565b60405180910390fd5b6000600960006101000a81548160ff02191690836001811115610808577f4e487b7100000000000000000000000000000000000000000000000000000000600052602160045260246000fd5b02179055507fcb3c98892a5c11582e6b5e5caa647ef56c5d646f1bf6884c2cae5aff754639e360024260405161083f929190611172565b60405180910390a1565b60008060009054906101000a900473ffffffffffffffffffffffffffffffffffffffff1673ffffffffffffffffffffffffffffffffffffffff163373ffffffffffffffffffffffffffffffffffffffff16146108da576040517f08c379a00000000000000000000000000000000000000000000000000000000081526004016108d190611252565b60405180910390fd5b60025442111561091f576040517f08c379a000000000000000000000000000000000000000000000000000000000815260040161091690611272565b60405180910390fd5b6000600960006101000a81548160ff0219169083600181111561096b577f4e487b7100000000000000000000000000000000000000000000000000000000600052602160045260246000fd5b02179055507fcb3c98892a5c11582e6b5e5caa647ef56c5d646f1bf6884c2cae5aff754639e36001426040516109a2929190611149565b60405180910390a16001905090565b600080600860003373ffffffffffffffffffffffffffffffffffffffff1673ffffffffffffffffffffffffffffffffffffffff16815260200190815260200160002054905060008111610a39576040517f08c379a0000000000000000000000000000000000000000000000000000000008152600401610a3090611232565b60405180910390fd5b6000600860003373ffffffffffffffffffffffffffffffffffffffff1673ffffffffffffffffffffffffffffffffffffffff1681526020019081526020016000208190555060003373ffffffffffffffffffffffffffffffffffffffff168261138890604051610aa8906110ba565b600060405180830381858888f193505050503d8060008114610ae6576040519150601f19603f3d011682016040523d82523d6000602084013e610aeb565b606091505b5050905080610b2f576040517f08c379a0000000000000000000000000000000000000000000000000000000008152600401610b26906111f2565b60405180910390fd5b7f2f174ca282119315c59efaf21147aef438581dabdeb498198ae28964373dd8bc3383604051610b609291906110ea565b60405180910390a160019250505090565b60086020528060005260406000206000915090505481565b60015481565b600460009054906101000a900473ffffffffffffffffffffffffffffffffffffffff1681565b60008054906101000a900473ffffffffffffffffffffffffffffffffffffffff1673ffffffffffffffffffffffffffffffffffffffff163373ffffffffffffffffffffffffffffffffffffffff1614610c43576040517f08c379a0000000000000000000000000000000000000000000000000000000008152600401610c3a90611252565b60405180910390fd5b80600960006101000a81548160ff02191690836001811115610c8e577f4e487b7100000000000000000000000000000000000000000000000000000000600052602160045260246000fd5b02179055507f23ad33ab6a13a00aa7d06cd167b2abd03dec86af3cf3cc91759dcd3ae841188781604051610cc2919061112e565b60405180910390a150565b60025481565b600960009054906101000a900460ff1681565b60035481565b60008054906101000a900473ffffffffffffffffffffffffffffffffffffffff1673ffffffffffffffffffffffffffffffffffffffff163373ffffffffffffffffffffffffffffffffffffffff1614610d7a576040517f08c379a0000000000000000000000000000000000000000000000000000000008152600401610d7190611252565b60405180910390fd5b600047905060008111610dc2576040517f08c379a0000000000000000000000000000000000000000000000000000000008152600401610db9906111d2565b60405180910390fd5b60008060009054906101000a900473ffffffffffffffffffffffffffffffffffffffff1673ffffffffffffffffffffffffffffffffffffffff1682604051610e09906110ba565b60006040518083038185875af1925050503d8060008114610e46576040519150601f19603f3d011682016040523d82523d6000602084013e610e4b565b606091505b5050905080610e8f576040517f08c379a0000000000000000000000000000000000000000000000000000000008152600401610e86906111f2565b60405180910390fd5b5050565b600081359050610ea281611614565b92915050565b600081359050610eb78161162b565b92915050565b600060208284031215610ecf57600080fd5b6000610edd84828501610e93565b91505092915050565b600060208284031215610ef857600080fd5b6000610f0684828501610ea8565b91505092915050565b610f188161134a565b82525050565b610f278161135c565b82525050565b610f36816113a5565b82525050565b610f45816113b7565b82525050565b610f54816113c9565b82525050565b6000610f65826112cd565b610f6f81856112e3565b9350610f7f8185602086016113db565b610f88816114cd565b840191505092915050565b6000610fa0601d836112e3565b9150610fab826114de565b602082019050919050565b6000610fc3600f836112e3565b9150610fce82611507565b602082019050919050565b6000610fe66018836112e3565b9150610ff182611530565b602082019050919050565b60006110096014836112e3565b915061101482611559565b602082019050919050565b600061102c6020836112e3565b915061103782611582565b602082019050919050565b600061104f6011836112e3565b915061105a826115ab565b602082019050919050565b60006110726020836112e3565b915061107d826115d4565b602082019050919050565b60006110956000836112d8565b91506110a0826115fd565b600082019050919050565b6110b48161139b565b82525050565b60006110c582611088565b9150819050919050565b60006020820190506110e46000830184610f0f565b92915050565b60006040820190506110ff6000830185610f0f565b61110c60208301846110ab565b9392505050565b60006020820190506111286000830184610f1e565b92915050565b60006020820190506111436000830184610f2d565b92915050565b600060408201905061115e6000830185610f3c565b61116b60208301846110ab565b9392505050565b60006040820190506111876000830185610f4b565b61119460208301846110ab565b9392505050565b600060408201905081810360008301526111b58185610f5a565b905081810360208301526111c98184610f5a565b90509392505050565b600060208201905081810360008301526111eb81610f93565b9050919050565b6000602082019050818103600083015261120b81610fb6565b9050919050565b6000602082019050818103600083015261122b81610fd9565b9050919050565b6000602082019050818103600083015261124b81610ffc565b9050919050565b6000602082019050818103600083015261126b8161101f565b9050919050565b6000602082019050818103600083015261128b81611042565b9050919050565b600060208201905081810360008301526112ab81611065565b9050919050565b60006020820190506112c760008301846110ab565b92915050565b600081519050919050565b600081905092915050565b600082825260208201905092915050565b60006112ff8261139b565b915061130a8361139b565b9250827fffffffffffffffffffffffffffffffffffffffffffffffffffffffffffffffff0382111561133f5761133e611440565b5b828201905092915050565b60006113558261137b565b9050919050565b60008115159050919050565b600081905061137682611600565b919050565b600073ffffffffffffffffffffffffffffffffffffffff82169050919050565b6000819050919050565b60006113b082611368565b9050919050565b60006113c28261139b565b9050919050565b60006113d48261139b565b9050919050565b60005b838110156113f95780820151818401526020810190506113de565b83811115611408576000848401525b50505050565b6000600282049050600182168061142657607f821691505b6020821081141561143a5761143961149e565b5b50919050565b7f4e487b7100000000000000000000000000000000000000000000000000000000600052601160045260246000fd5b7f4e487b7100000000000000000000000000000000000000000000000000000000600052602160045260246000fd5b7f4e487b7100000000000000000000000000000000000000000000000000000000600052602260045260246000fd5b6000601f19601f8301169050919050565b7f4e6f2066756e6473206c65667420696e2074686520636f6e7472616374000000600082015250565b7f5472616e73666572206661696c65640000000000000000000000000000000000600082015250565b7f41756374696f6e206973207374696c6c206f6e676f696e670000000000000000600082015250565b7f4e6f2066756e647320746f207769746864726177000000000000000000000000600082015250565b7f4f6e6c792061756374696f6e206f776e65722063616e2063616c6c2074686973600082015250565b7f41756374696f6e2068617320656e646564000000000000000000000000000000600082015250565b7f596f752063616e2774206269642c206d616b6520612068696768657220626964600082015250565b50565b600281106116115761161061146f565b5b50565b61161d8161134a565b811461162857600080fd5b50565b6002811061163857600080fd5b5056fea26469706673582212208ff70632a13434a262ecd1c26c3017ffe3d626a63694808c439d060e65668ae764736f6c63430008010033",
			"opcodes": "PUSH1 0x80 PUSH1 0x40 MSTORE CALLVALUE DUP1 ISZERO PUSH3 0x11 JUMPI PUSH1 0x0 DUP1 REVERT JUMPDEST POP PUSH1 0x40 MLOAD PUSH3 0x1C75 CODESIZE SUB DUP1 PUSH3 0x1C75 DUP4 CODECOPY DUP2 DUP2 ADD PUSH1 0x40 MSTORE DUP2 ADD SWAP1 PUSH3 0x37 SWAP2 SWAP1 PUSH3 0x287 JUMP JUMPDEST DUP3 PUSH1 0x0 DUP1 PUSH2 0x100 EXP DUP2 SLOAD DUP2 PUSH20 0xFFFFFFFFFFFFFFFFFFFFFFFFFFFFFFFFFFFFFFFF MUL NOT AND SWAP1 DUP4 PUSH20 0xFFFFFFFFFFFFFFFFFFFFFFFFFFFFFFFFFFFFFFFF AND MUL OR SWAP1 SSTORE POP TIMESTAMP PUSH1 0x1 DUP2 SWAP1 SSTORE POP PUSH2 0xE10 DUP5 PUSH3 0x8E SWAP2 SWAP1 PUSH3 0x3E1 JUMP JUMPDEST PUSH1 0x1 SLOAD PUSH3 0x9D SWAP2 SWAP1 PUSH3 0x384 JUMP JUMPDEST PUSH1 0x2 DUP2 SWAP1 SSTORE POP PUSH1 0x1 PUSH1 0x9 PUSH1 0x0 PUSH2 0x100 EXP DUP2 SLOAD DUP2 PUSH1 0xFF MUL NOT AND SWAP1 DUP4 PUSH1 0x1 DUP2 GT ISZERO PUSH3 0xF0 JUMPI PUSH32 0x4E487B7100000000000000000000000000000000000000000000000000000000 PUSH1 0x0 MSTORE PUSH1 0x21 PUSH1 0x4 MSTORE PUSH1 0x24 PUSH1 0x0 REVERT JUMPDEST MUL OR SWAP1 SSTORE POP DUP2 PUSH1 0x5 PUSH1 0x0 ADD SWAP1 DUP1 MLOAD SWAP1 PUSH1 0x20 ADD SWAP1 PUSH3 0x110 SWAP3 SWAP2 SWAP1 PUSH3 0x137 JUMP JUMPDEST POP DUP1 PUSH1 0x5 PUSH1 0x1 ADD SWAP1 DUP1 MLOAD SWAP1 PUSH1 0x20 ADD SWAP1 PUSH3 0x12C SWAP3 SWAP2 SWAP1 PUSH3 0x137 JUMP JUMPDEST POP POP POP POP POP PUSH3 0x5F4 JUMP JUMPDEST DUP3 DUP1 SLOAD PUSH3 0x145 SWAP1 PUSH3 0x4B6 JUMP JUMPDEST SWAP1 PUSH1 0x0 MSTORE PUSH1 0x20 PUSH1 0x0 KECCAK256 SWAP1 PUSH1 0x1F ADD PUSH1 0x20 SWAP1 DIV DUP2 ADD SWAP3 DUP3 PUSH3 0x169 JUMPI PUSH1 0x0 DUP6 SSTORE PUSH3 0x1B5 JUMP JUMPDEST DUP3 PUSH1 0x1F LT PUSH3 0x184 JUMPI DUP1 MLOAD PUSH1 0xFF NOT AND DUP4 DUP1 ADD OR DUP6 SSTORE PUSH3 0x1B5 JUMP JUMPDEST DUP3 DUP1 ADD PUSH1 0x1 ADD DUP6 SSTORE DUP3 ISZERO PUSH3 0x1B5 JUMPI SWAP2 DUP3 ADD JUMPDEST DUP3 DUP2 GT ISZERO PUSH3 0x1B4 JUMPI DUP3 MLOAD DUP3 SSTORE SWAP2 PUSH1 0x20 ADD SWAP2 SWAP1 PUSH1 0x1 ADD SWAP1 PUSH3 0x197 JUMP JUMPDEST JUMPDEST POP SWAP1 POP PUSH3 0x1C4 SWAP2 SWAP1 PUSH3 0x1C8 JUMP JUMPDEST POP SWAP1 JUMP JUMPDEST JUMPDEST DUP1 DUP3 GT ISZERO PUSH3 0x1E3 JUMPI PUSH1 0x0 DUP2 PUSH1 0x0 SWAP1 SSTORE POP PUSH1 0x1 ADD PUSH3 0x1C9 JUMP JUMPDEST POP SWAP1 JUMP JUMPDEST PUSH1 0x0 PUSH3 0x1FE PUSH3 0x1F8 DUP5 PUSH3 0x34E JUMP JUMPDEST PUSH3 0x325 JUMP JUMPDEST SWAP1 POP DUP3 DUP2 MSTORE PUSH1 0x20 DUP2 ADD DUP5 DUP5 DUP5 ADD GT ISZERO PUSH3 0x217 JUMPI PUSH1 0x0 DUP1 REVERT JUMPDEST PUSH3 0x224 DUP5 DUP3 DUP6 PUSH3 0x480 JUMP JUMPDEST POP SWAP4 SWAP3 POP POP POP JUMP JUMPDEST PUSH1 0x0 DUP2 MLOAD SWAP1 POP PUSH3 0x23D DUP2 PUSH3 0x5C0 JUMP JUMPDEST SWAP3 SWAP2 POP POP JUMP JUMPDEST PUSH1 0x0 DUP3 PUSH1 0x1F DUP4 ADD SLT PUSH3 0x255 JUMPI PUSH1 0x0 DUP1 REVERT JUMPDEST DUP2 MLOAD PUSH3 0x267 DUP5 DUP3 PUSH1 0x20 DUP7 ADD PUSH3 0x1E7 JUMP JUMPDEST SWAP2 POP POP SWAP3 SWAP2 POP POP JUMP JUMPDEST PUSH1 0x0 DUP2 MLOAD SWAP1 POP PUSH3 0x281 DUP2 PUSH3 0x5DA JUMP JUMPDEST SWAP3 SWAP2 POP POP JUMP JUMPDEST PUSH1 0x0 DUP1 PUSH1 0x0 DUP1 PUSH1 0x80 DUP6 DUP8 SUB SLT ISZERO PUSH3 0x29E JUMPI PUSH1 0x0 DUP1 REVERT JUMPDEST PUSH1 0x0 PUSH3 0x2AE DUP8 DUP3 DUP9 ADD PUSH3 0x270 JUMP JUMPDEST SWAP5 POP POP PUSH1 0x20 PUSH3 0x2C1 DUP8 DUP3 DUP9 ADD PUSH3 0x22C JUMP JUMPDEST SWAP4 POP POP PUSH1 0x40 DUP6 ADD MLOAD PUSH8 0xFFFFFFFFFFFFFFFF DUP2 GT ISZERO PUSH3 0x2DF JUMPI PUSH1 0x0 DUP1 REVERT JUMPDEST PUSH3 0x2ED DUP8 DUP3 DUP9 ADD PUSH3 0x243 JUMP JUMPDEST SWAP3 POP POP PUSH1 0x60 DUP6 ADD MLOAD PUSH8 0xFFFFFFFFFFFFFFFF DUP2 GT ISZERO PUSH3 0x30B JUMPI PUSH1 0x0 DUP1 REVERT JUMPDEST PUSH3 0x319 DUP8 DUP3 DUP9 ADD PUSH3 0x243 JUMP JUMPDEST SWAP2 POP POP SWAP3 SWAP6 SWAP2 SWAP5 POP SWAP3 POP JUMP JUMPDEST PUSH1 0x0 PUSH3 0x331 PUSH3 0x344 JUMP JUMPDEST SWAP1 POP PUSH3 0x33F DUP3 DUP3 PUSH3 0x4EC JUMP JUMPDEST SWAP2 SWAP1 POP JUMP JUMPDEST PUSH1 0x0 PUSH1 0x40 MLOAD SWAP1 POP SWAP1 JUMP JUMPDEST PUSH1 0x0 PUSH8 0xFFFFFFFFFFFFFFFF DUP3 GT ISZERO PUSH3 0x36C JUMPI PUSH3 0x36B PUSH3 0x580 JUMP JUMPDEST JUMPDEST PUSH3 0x377 DUP3 PUSH3 0x5AF JUMP JUMPDEST SWAP1 POP PUSH1 0x20 DUP2 ADD SWAP1 POP SWAP2 SWAP1 POP JUMP JUMPDEST PUSH1 0x0 PUSH3 0x391 DUP3 PUSH3 0x476 JUMP JUMPDEST SWAP2 POP PUSH3 0x39E DUP4 PUSH3 0x476 JUMP JUMPDEST SWAP3 POP DUP3 PUSH32 0xFFFFFFFFFFFFFFFFFFFFFFFFFFFFFFFFFFFFFFFFFFFFFFFFFFFFFFFFFFFFFFFF SUB DUP3 GT ISZERO PUSH3 0x3D6 JUMPI PUSH3 0x3D5 PUSH3 0x522 JUMP JUMPDEST JUMPDEST DUP3 DUP3 ADD SWAP1 POP SWAP3 SWAP2 POP POP JUMP JUMPDEST PUSH1 0x0 PUSH3 0x3EE DUP3 PUSH3 0x476 JUMP JUMPDEST SWAP2 POP PUSH3 0x3FB DUP4 PUSH3 0x476 JUMP JUMPDEST SWAP3 POP DUP2 PUSH32 0xFFFFFFFFFFFFFFFFFFFFFFFFFFFFFFFFFFFFFFFFFFFFFFFFFFFFFFFFFFFFFFFF DIV DUP4 GT DUP3 ISZERO ISZERO AND ISZERO PUSH3 0x437 JUMPI PUSH3 0x436 PUSH3 0x522 JUMP JUMPDEST JUMPDEST DUP3 DUP3 MUL SWAP1 POP SWAP3 SWAP2 POP POP JUMP JUMPDEST PUSH1 0x0 PUSH3 0x44F DUP3 PUSH3 0x456 JUMP JUMPDEST SWAP1 POP SWAP2 SWAP1 POP JUMP JUMPDEST PUSH1 0x0 PUSH20 0xFFFFFFFFFFFFFFFFFFFFFFFFFFFFFFFFFFFFFFFF DUP3 AND SWAP1 POP SWAP2 SWAP1 POP JUMP JUMPDEST PUSH1 0x0 DUP2 SWAP1 POP SWAP2 SWAP1 POP JUMP JUMPDEST PUSH1 0x0 JUMPDEST DUP4 DUP2 LT ISZERO PUSH3 0x4A0 JUMPI DUP1 DUP3 ADD MLOAD DUP2 DUP5 ADD MSTORE PUSH1 0x20 DUP2 ADD SWAP1 POP PUSH3 0x483 JUMP JUMPDEST DUP4 DUP2 GT ISZERO PUSH3 0x4B0 JUMPI PUSH1 0x0 DUP5 DUP5 ADD MSTORE JUMPDEST POP POP POP POP JUMP JUMPDEST PUSH1 0x0 PUSH1 0x2 DUP3 DIV SWAP1 POP PUSH1 0x1 DUP3 AND DUP1 PUSH3 0x4CF JUMPI PUSH1 0x7F DUP3 AND SWAP2 POP JUMPDEST PUSH1 0x20 DUP3 LT DUP2 EQ ISZERO PUSH3 0x4E6 JUMPI PUSH3 0x4E5 PUSH3 0x551 JUMP JUMPDEST JUMPDEST POP SWAP2 SWAP1 POP JUMP JUMPDEST PUSH3 0x4F7 DUP3 PUSH3 0x5AF JUMP JUMPDEST DUP2 ADD DUP2 DUP2 LT PUSH8 0xFFFFFFFFFFFFFFFF DUP3 GT OR ISZERO PUSH3 0x519 JUMPI PUSH3 0x518 PUSH3 0x580 JUMP JUMPDEST JUMPDEST DUP1 PUSH1 0x40 MSTORE POP POP POP JUMP JUMPDEST PUSH32 0x4E487B7100000000000000000000000000000000000000000000000000000000 PUSH1 0x0 MSTORE PUSH1 0x11 PUSH1 0x4 MSTORE PUSH1 0x24 PUSH1 0x0 REVERT JUMPDEST PUSH32 0x4E487B7100000000000000000000000000000000000000000000000000000000 PUSH1 0x0 MSTORE PUSH1 0x22 PUSH1 0x4 MSTORE PUSH1 0x24 PUSH1 0x0 REVERT JUMPDEST PUSH32 0x4E487B7100000000000000000000000000000000000000000000000000000000 PUSH1 0x0 MSTORE PUSH1 0x41 PUSH1 0x4 MSTORE PUSH1 0x24 PUSH1 0x0 REVERT JUMPDEST PUSH1 0x0 PUSH1 0x1F NOT PUSH1 0x1F DUP4 ADD AND SWAP1 POP SWAP2 SWAP1 POP JUMP JUMPDEST PUSH3 0x5CB DUP2 PUSH3 0x442 JUMP JUMPDEST DUP2 EQ PUSH3 0x5D7 JUMPI PUSH1 0x0 DUP1 REVERT JUMPDEST POP JUMP JUMPDEST PUSH3 0x5E5 DUP2 PUSH3 0x476 JUMP JUMPDEST DUP2 EQ PUSH3 0x5F1 JUMPI PUSH1 0x0 DUP1 REVERT JUMPDEST POP JUMP JUMPDEST PUSH2 0x1671 DUP1 PUSH3 0x604 PUSH1 0x0 CODECOPY PUSH1 0x0 RETURN INVALID PUSH1 0x80 PUSH1 0x40 MSTORE PUSH1 0x4 CALLDATASIZE LT PUSH2 0xDD JUMPI PUSH1 0x0 CALLDATALOAD PUSH1 0xE0 SHR DUP1 PUSH4 0x78F45340 GT PUSH2 0x7F JUMPI DUP1 PUSH4 0xC458B65A GT PUSH2 0x59 JUMPI DUP1 PUSH4 0xC458B65A EQ PUSH2 0x280 JUMPI DUP1 PUSH4 0xC486456C EQ PUSH2 0x2AB JUMPI DUP1 PUSH4 0xD57BDE79 EQ PUSH2 0x2D6 JUMPI DUP1 PUSH4 0xEF86CE8E EQ PUSH2 0x301 JUMPI PUSH2 0xDD JUMP JUMPDEST DUP1 PUSH4 0x78F45340 EQ PUSH2 0x201 JUMPI DUP1 PUSH4 0x91F90157 EQ PUSH2 0x22C JUMPI DUP1 PUSH4 0x956534ED EQ PUSH2 0x257 JUMPI PUSH2 0xDD JUMP JUMPDEST DUP1 PUSH4 0x389009F0 GT PUSH2 0xBB JUMPI DUP1 PUSH4 0x389009F0 EQ PUSH2 0x157 JUMPI DUP1 PUSH4 0x3BA88CA1 EQ PUSH2 0x16E JUMPI DUP1 PUSH4 0x3CCFD60B EQ PUSH2 0x199 JUMPI DUP1 PUSH4 0x62EA82DB EQ PUSH2 0x1C4 JUMPI PUSH2 0xDD JUMP JUMPDEST DUP1 PUSH4 0x216F202 EQ PUSH2 0xE2 JUMPI DUP1 PUSH4 0xAC298DC EQ PUSH2 0x10E JUMPI DUP1 PUSH4 0x1998AEEF EQ PUSH2 0x139 JUMPI JUMPDEST PUSH1 0x0 DUP1 REVERT JUMPDEST CALLVALUE DUP1 ISZERO PUSH2 0xEE JUMPI PUSH1 0x0 DUP1 REVERT JUMPDEST POP PUSH2 0xF7 PUSH2 0x318 JUMP JUMPDEST PUSH1 0x40 MLOAD PUSH2 0x105 SWAP3 SWAP2 SWAP1 PUSH2 0x119B JUMP JUMPDEST PUSH1 0x40 MLOAD DUP1 SWAP2 SUB SWAP1 RETURN JUMPDEST CALLVALUE DUP1 ISZERO PUSH2 0x11A JUMPI PUSH1 0x0 DUP1 REVERT JUMPDEST POP PUSH2 0x123 PUSH2 0x43A JUMP JUMPDEST PUSH1 0x40 MLOAD PUSH2 0x130 SWAP2 SWAP1 PUSH2 0x10CF JUMP JUMPDEST PUSH1 0x40 MLOAD DUP1 SWAP2 SUB SWAP1 RETURN JUMPDEST PUSH2 0x141 PUSH2 0x463 JUMP JUMPDEST PUSH1 0x40 MLOAD PUSH2 0x14E SWAP2 SWAP1 PUSH2 0x1113 JUMP JUMPDEST PUSH1 0x40 MLOAD DUP1 SWAP2 SUB SWAP1 RETURN JUMPDEST CALLVALUE DUP1 ISZERO PUSH2 0x163 JUMPI PUSH1 0x0 DUP1 REVERT JUMPDEST POP PUSH2 0x16C PUSH2 0x6EA JUMP JUMPDEST STOP JUMPDEST CALLVALUE DUP1 ISZERO PUSH2 0x17A JUMPI PUSH1 0x0 DUP1 REVERT JUMPDEST POP PUSH2 0x183 PUSH2 0x849 JUMP JUMPDEST PUSH1 0x40 MLOAD PUSH2 0x190 SWAP2 SWAP1 PUSH2 0x1113 JUMP JUMPDEST PUSH1 0x40 MLOAD DUP1 SWAP2 SUB SWAP1 RETURN JUMPDEST CALLVALUE DUP1 ISZERO PUSH2 0x1A5 JUMPI PUSH1 0x0 DUP1 REVERT JUMPDEST POP PUSH2 0x1AE PUSH2 0x9B1 JUMP JUMPDEST PUSH1 0x40 MLOAD PUSH2 0x1BB SWAP2 SWAP1 PUSH2 0x1113 JUMP JUMPDEST PUSH1 0x40 MLOAD DUP1 SWAP2 SUB SWAP1 RETURN JUMPDEST CALLVALUE DUP1 ISZERO PUSH2 0x1D0 JUMPI PUSH1 0x0 DUP1 REVERT JUMPDEST POP PUSH2 0x1EB PUSH1 0x4 DUP1 CALLDATASIZE SUB DUP2 ADD SWAP1 PUSH2 0x1E6 SWAP2 SWAP1 PUSH2 0xEBD JUMP JUMPDEST PUSH2 0xB71 JUMP JUMPDEST PUSH1 0x40 MLOAD PUSH2 0x1F8 SWAP2 SWAP1 PUSH2 0x12B2 JUMP JUMPDEST PUSH1 0x40 MLOAD DUP1 SWAP2 SUB SWAP1 RETURN JUMPDEST CALLVALUE DUP1 ISZERO PUSH2 0x20D JUMPI PUSH1 0x0 DUP1 REVERT JUMPDEST POP PUSH2 0x216 PUSH2 0xB89 JUMP JUMPDEST PUSH1 0x40 MLOAD PUSH2 0x223 SWAP2 SWAP1 PUSH2 0x12B2 JUMP JUMPDEST PUSH1 0x40 MLOAD DUP1 SWAP2 SUB SWAP1 RETURN JUMPDEST CALLVALUE DUP1 ISZERO PUSH2 0x238 JUMPI PUSH1 0x0 DUP1 REVERT JUMPDEST POP PUSH2 0x241 PUSH2 0xB8F JUMP JUMPDEST PUSH1 0x40 MLOAD PUSH2 0x24E SWAP2 SWAP1 PUSH2 0x10CF JUMP JUMPDEST PUSH1 0x40 MLOAD DUP1 SWAP2 SUB SWAP1 RETURN JUMPDEST CALLVALUE DUP1 ISZERO PUSH2 0x263 JUMPI PUSH1 0x0 DUP1 REVERT JUMPDEST POP PUSH2 0x27E PUSH1 0x4 DUP1 CALLDATASIZE SUB DUP2 ADD SWAP1 PUSH2 0x279 SWAP2 SWAP1 PUSH2 0xEE6 JUMP JUMPDEST PUSH2 0xBB5 JUMP JUMPDEST STOP JUMPDEST CALLVALUE DUP1 ISZERO PUSH2 0x28C JUMPI PUSH1 0x0 DUP1 REVERT JUMPDEST POP PUSH2 0x295 PUSH2 0xCCD JUMP JUMPDEST PUSH1 0x40 MLOAD PUSH2 0x2A2 SWAP2 SWAP1 PUSH2 0x12B2 JUMP JUMPDEST PUSH1 0x40 MLOAD DUP1 SWAP2 SUB SWAP1 RETURN JUMPDEST CALLVALUE DUP1 ISZERO PUSH2 0x2B7 JUMPI PUSH1 0x0 DUP1 REVERT JUMPDEST POP PUSH2 0x2C0 PUSH2 0xCD3 JUMP JUMPDEST PUSH1 0x40 MLOAD PUSH2 0x2CD SWAP2 SWAP1 PUSH2 0x112E JUMP JUMPDEST PUSH1 0x40 MLOAD DUP1 SWAP2 SUB SWAP1 RETURN JUMPDEST CALLVALUE DUP1 ISZERO PUSH2 0x2E2 JUMPI PUSH1 0x0 DUP1 REVERT JUMPDEST POP PUSH2 0x2EB PUSH2 0xCE6 JUMP JUMPDEST PUSH1 0x40 MLOAD PUSH2 0x2F8 SWAP2 SWAP1 PUSH2 0x12B2 JUMP JUMPDEST PUSH1 0x40 MLOAD DUP1 SWAP2 SUB SWAP1 RETURN JUMPDEST CALLVALUE DUP1 ISZERO PUSH2 0x30D JUMPI PUSH1 0x0 DUP1 REVERT JUMPDEST POP PUSH2 0x316 PUSH2 0xCEC JUMP JUMPDEST STOP JUMPDEST PUSH1 0x5 DUP1 PUSH1 0x0 ADD DUP1 SLOAD PUSH2 0x329 SWAP1 PUSH2 0x140E JUMP JUMPDEST DUP1 PUSH1 0x1F ADD PUSH1 0x20 DUP1 SWAP2 DIV MUL PUSH1 0x20 ADD PUSH1 0x40 MLOAD SWAP1 DUP2 ADD PUSH1 0x40 MSTORE DUP1 SWAP3 SWAP2 SWAP1 DUP2 DUP2 MSTORE PUSH1 0x20 ADD DUP3 DUP1 SLOAD PUSH2 0x355 SWAP1 PUSH2 0x140E JUMP JUMPDEST DUP1 ISZERO PUSH2 0x3A2 JUMPI DUP1 PUSH1 0x1F LT PUSH2 0x377 JUMPI PUSH2 0x100 DUP1 DUP4 SLOAD DIV MUL DUP4 MSTORE SWAP2 PUSH1 0x20 ADD SWAP2 PUSH2 0x3A2 JUMP JUMPDEST DUP3 ADD SWAP2 SWAP1 PUSH1 0x0 MSTORE PUSH1 0x20 PUSH1 0x0 KECCAK256 SWAP1 JUMPDEST DUP2 SLOAD DUP2 MSTORE SWAP1 PUSH1 0x1 ADD SWAP1 PUSH1 0x20 ADD DUP1 DUP4 GT PUSH2 0x385 JUMPI DUP3 SWAP1 SUB PUSH1 0x1F AND DUP3 ADD SWAP2 JUMPDEST POP POP POP POP POP SWAP1 DUP1 PUSH1 0x1 ADD DUP1 SLOAD PUSH2 0x3B7 SWAP1 PUSH2 0x140E JUMP JUMPDEST DUP1 PUSH1 0x1F ADD PUSH1 0x20 DUP1 SWAP2 DIV MUL PUSH1 0x20 ADD PUSH1 0x40 MLOAD SWAP1 DUP2 ADD PUSH1 0x40 MSTORE DUP1 SWAP3 SWAP2 SWAP1 DUP2 DUP2 MSTORE PUSH1 0x20 ADD DUP3 DUP1 SLOAD PUSH2 0x3E3 SWAP1 PUSH2 0x140E JUMP JUMPDEST DUP1 ISZERO PUSH2 0x430 JUMPI DUP1 PUSH1 0x1F LT PUSH2 0x405 JUMPI PUSH2 0x100 DUP1 DUP4 SLOAD DIV MUL DUP4 MSTORE SWAP2 PUSH1 0x20 ADD SWAP2 PUSH2 0x430 JUMP JUMPDEST DUP3 ADD SWAP2 SWAP1 PUSH1 0x0 MSTORE PUSH1 0x20 PUSH1 0x0 KECCAK256 SWAP1 JUMPDEST DUP2 SLOAD DUP2 MSTORE SWAP1 PUSH1 0x1 ADD SWAP1 PUSH1 0x20 ADD DUP1 DUP4 GT PUSH2 0x413 JUMPI DUP3 SWAP1 SUB PUSH1 0x1F AND DUP3 ADD SWAP2 JUMPDEST POP POP POP POP POP SWAP1 POP DUP3 JUMP JUMPDEST PUSH1 0x0 DUP1 PUSH1 0x0 SWAP1 SLOAD SWAP1 PUSH2 0x100 EXP SWAP1 DIV PUSH20 0xFFFFFFFFFFFFFFFFFFFFFFFFFFFFFFFFFFFFFFFF AND SWAP1 POP SWAP1 JUMP JUMPDEST PUSH1 0x0 PUSH1 0x2 SLOAD TIMESTAMP GT ISZERO PUSH2 0x4AA JUMPI PUSH1 0x40 MLOAD PUSH32 0x8C379A000000000000000000000000000000000000000000000000000000000 DUP2 MSTORE PUSH1 0x4 ADD PUSH2 0x4A1 SWAP1 PUSH2 0x1272 JUMP JUMPDEST PUSH1 0x40 MLOAD DUP1 SWAP2 SUB SWAP1 REVERT JUMPDEST PUSH1 0x3 SLOAD CALLVALUE PUSH1 0x8 PUSH1 0x0 CALLER PUSH20 0xFFFFFFFFFFFFFFFFFFFFFFFFFFFFFFFFFFFFFFFF AND PUSH20 0xFFFFFFFFFFFFFFFFFFFFFFFFFFFFFFFFFFFFFFFF AND DUP2 MSTORE PUSH1 0x20 ADD SWAP1 DUP2 MSTORE PUSH1 0x20 ADD PUSH1 0x0 KECCAK256 SLOAD PUSH2 0x4F8 SWAP2 SWAP1 PUSH2 0x12F4 JUMP JUMPDEST GT PUSH2 0x538 JUMPI PUSH1 0x40 MLOAD PUSH32 0x8C379A000000000000000000000000000000000000000000000000000000000 DUP2 MSTORE PUSH1 0x4 ADD PUSH2 0x52F SWAP1 PUSH2 0x1292 JUMP JUMPDEST PUSH1 0x40 MLOAD DUP1 SWAP2 SUB SWAP1 REVERT JUMPDEST CALLER PUSH1 0x4 PUSH1 0x0 PUSH2 0x100 EXP DUP2 SLOAD DUP2 PUSH20 0xFFFFFFFFFFFFFFFFFFFFFFFFFFFFFFFFFFFFFFFF MUL NOT AND SWAP1 DUP4 PUSH20 0xFFFFFFFFFFFFFFFFFFFFFFFFFFFFFFFFFFFFFFFF AND MUL OR SWAP1 SSTORE POP CALLVALUE PUSH1 0x3 DUP2 SWAP1 SSTORE POP PUSH1 0x7 CALLER SWAP1 DUP1 PUSH1 0x1 DUP2 SLOAD ADD DUP1 DUP3 SSTORE DUP1 SWAP2 POP POP PUSH1 0x1 SWAP1 SUB SWAP1 PUSH1 0x0 MSTORE PUSH1 0x20 PUSH1 0x0 KECCAK256 ADD PUSH1 0x0 SWAP1 SWAP2 SWAP1 SWAP2 SWAP1 SWAP2 PUSH2 0x100 EXP DUP2 SLOAD DUP2 PUSH20 0xFFFFFFFFFFFFFFFFFFFFFFFFFFFFFFFFFFFFFFFF MUL NOT AND SWAP1 DUP4 PUSH20 0xFFFFFFFFFFFFFFFFFFFFFFFFFFFFFFFFFFFFFFFF AND MUL OR SWAP1 SSTORE POP CALLVALUE PUSH1 0x8 PUSH1 0x0 CALLER PUSH20 0xFFFFFFFFFFFFFFFFFFFFFFFFFFFFFFFFFFFFFFFF AND PUSH20 0xFFFFFFFFFFFFFFFFFFFFFFFFFFFFFFFFFFFFFFFF AND DUP2 MSTORE PUSH1 0x20 ADD SWAP1 DUP2 MSTORE PUSH1 0x20 ADD PUSH1 0x0 KECCAK256 SLOAD PUSH2 0x62E SWAP2 SWAP1 PUSH2 0x12F4 JUMP JUMPDEST PUSH1 0x8 PUSH1 0x0 CALLER PUSH20 0xFFFFFFFFFFFFFFFFFFFFFFFFFFFFFFFFFFFFFFFF AND PUSH20 0xFFFFFFFFFFFFFFFFFFFFFFFFFFFFFFFFFFFFFFFF AND DUP2 MSTORE PUSH1 0x20 ADD SWAP1 DUP2 MSTORE PUSH1 0x20 ADD PUSH1 0x0 KECCAK256 DUP2 SWAP1 SSTORE POP PUSH1 0x4 PUSH1 0x0 SWAP1 SLOAD SWAP1 PUSH2 0x100 EXP SWAP1 DIV PUSH20 0xFFFFFFFFFFFFFFFFFFFFFFFFFFFFFFFFFFFFFFFF AND PUSH20 0xFFFFFFFFFFFFFFFFFFFFFFFFFFFFFFFFFFFFFFFF AND PUSH32 0xD993D4F8A84158F5329713D6D13EF54E77B325040C887C8B3E565CFD0CD3E21 PUSH1 0x3 SLOAD PUSH1 0x40 MLOAD PUSH2 0x6DB SWAP2 SWAP1 PUSH2 0x12B2 JUMP JUMPDEST PUSH1 0x40 MLOAD DUP1 SWAP2 SUB SWAP1 LOG2 PUSH1 0x1 SWAP1 POP SWAP1 JUMP JUMPDEST PUSH1 0x0 DUP1 SLOAD SWAP1 PUSH2 0x100 EXP SWAP1 DIV PUSH20 0xFFFFFFFFFFFFFFFFFFFFFFFFFFFFFFFFFFFFFFFF AND PUSH20 0xFFFFFFFFFFFFFFFFFFFFFFFFFFFFFFFFFFFFFFFF AND CALLER PUSH20 0xFFFFFFFFFFFFFFFFFFFFFFFFFFFFFFFFFFFFFFFF AND EQ PUSH2 0x778 JUMPI PUSH1 0x40 MLOAD PUSH32 0x8C379A000000000000000000000000000000000000000000000000000000000 DUP2 MSTORE PUSH1 0x4 ADD PUSH2 0x76F SWAP1 PUSH2 0x1252 JUMP JUMPDEST PUSH1 0x40 MLOAD DUP1 SWAP2 SUB SWAP1 REVERT JUMPDEST PUSH1 0x2 SLOAD TIMESTAMP GT PUSH2 0x7BC JUMPI PUSH1 0x40 MLOAD PUSH32 0x8C379A000000000000000000000000000000000000000000000000000000000 DUP2 MSTORE PUSH1 0x4 ADD PUSH2 0x7B3 SWAP1 PUSH2 0x1212 JUMP JUMPDEST PUSH1 0x40 MLOAD DUP1 SWAP2 SUB SWAP1 REVERT JUMPDEST PUSH1 0x0 PUSH1 0x9 PUSH1 0x0 PUSH2 0x100 EXP DUP2 SLOAD DUP2 PUSH1 0xFF MUL NOT AND SWAP1 DUP4 PUSH1 0x1 DUP2 GT ISZERO PUSH2 0x808 JUMPI PUSH32 0x4E487B7100000000000000000000000000000000000000000000000000000000 PUSH1 0x0 MSTORE PUSH1 0x21 PUSH1 0x4 MSTORE PUSH1 0x24 PUSH1 0x0 REVERT JUMPDEST MUL OR SWAP1 SSTORE POP PUSH32 0xCB3C98892A5C11582E6B5E5CAA647EF56C5D646F1BF6884C2CAE5AFF754639E3 PUSH1 0x2 TIMESTAMP PUSH1 0x40 MLOAD PUSH2 0x83F SWAP3 SWAP2 SWAP1 PUSH2 0x1172 JUMP JUMPDEST PUSH1 0x40 MLOAD DUP1 SWAP2 SUB SWAP1 LOG1 JUMP JUMPDEST PUSH1 0x0 DUP1 PUSH1 0x0 SWAP1 SLOAD SWAP1 PUSH2 0x100 EXP SWAP1 DIV PUSH20 0xFFFFFFFFFFFFFFFFFFFFFFFFFFFFFFFFFFFFFFFF AND PUSH20 0xFFFFFFFFFFFFFFFFFFFFFFFFFFFFFFFFFFFFFFFF AND CALLER PUSH20 0xFFFFFFFFFFFFFFFFFFFFFFFFFFFFFFFFFFFFFFFF AND EQ PUSH2 0x8DA JUMPI PUSH1 0x40 MLOAD PUSH32 0x8C379A000000000000000000000000000000000000000000000000000000000 DUP2 MSTORE PUSH1 0x4 ADD PUSH2 0x8D1 SWAP1 PUSH2 0x1252 JUMP JUMPDEST PUSH1 0x40 MLOAD DUP1 SWAP2 SUB SWAP1 REVERT JUMPDEST PUSH1 0x2 SLOAD TIMESTAMP GT ISZERO PUSH2 0x91F JUMPI PUSH1 0x40 MLOAD PUSH32 0x8C379A000000000000000000000000000000000000000000000000000000000 DUP2 MSTORE PUSH1 0x4 ADD PUSH2 0x916 SWAP1 PUSH2 0x1272 JUMP JUMPDEST PUSH1 0x40 MLOAD DUP1 SWAP2 SUB SWAP1 REVERT JUMPDEST PUSH1 0x0 PUSH1 0x9 PUSH1 0x0 PUSH2 0x100 EXP DUP2 SLOAD DUP2 PUSH1 0xFF MUL NOT AND SWAP1 DUP4 PUSH1 0x1 DUP2 GT ISZERO PUSH2 0x96B JUMPI PUSH32 0x4E487B7100000000000000000000000000000000000000000000000000000000 PUSH1 0x0 MSTORE PUSH1 0x21 PUSH1 0x4 MSTORE PUSH1 0x24 PUSH1 0x0 REVERT JUMPDEST MUL OR SWAP1 SSTORE POP PUSH32 0xCB3C98892A5C11582E6B5E5CAA647EF56C5D646F1BF6884C2CAE5AFF754639E3 PUSH1 0x1 TIMESTAMP PUSH1 0x40 MLOAD PUSH2 0x9A2 SWAP3 SWAP2 SWAP1 PUSH2 0x1149 JUMP JUMPDEST PUSH1 0x40 MLOAD DUP1 SWAP2 SUB SWAP1 LOG1 PUSH1 0x1 SWAP1 POP SWAP1 JUMP JUMPDEST PUSH1 0x0 DUP1 PUSH1 0x8 PUSH1 0x0 CALLER PUSH20 0xFFFFFFFFFFFFFFFFFFFFFFFFFFFFFFFFFFFFFFFF AND PUSH20 0xFFFFFFFFFFFFFFFFFFFFFFFFFFFFFFFFFFFFFFFF AND DUP2 MSTORE PUSH1 0x20 ADD SWAP1 DUP2 MSTORE PUSH1 0x20 ADD PUSH1 0x0 KECCAK256 SLOAD SWAP1 POP PUSH1 0x0 DUP2 GT PUSH2 0xA39 JUMPI PUSH1 0x40 MLOAD PUSH32 0x8C379A000000000000000000000000000000000000000000000000000000000 DUP2 MSTORE PUSH1 0x4 ADD PUSH2 0xA30 SWAP1 PUSH2 0x1232 JUMP JUMPDEST PUSH1 0x40 MLOAD DUP1 SWAP2 SUB SWAP1 REVERT JUMPDEST PUSH1 0x0 PUSH1 0x8 PUSH1 0x0 CALLER PUSH20 0xFFFFFFFFFFFFFFFFFFFFFFFFFFFFFFFFFFFFFFFF AND PUSH20 0xFFFFFFFFFFFFFFFFFFFFFFFFFFFFFFFFFFFFFFFF AND DUP2 MSTORE PUSH1 0x20 ADD SWAP1 DUP2 MSTORE PUSH1 0x20 ADD PUSH1 0x0 KECCAK256 DUP2 SWAP1 SSTORE POP PUSH1 0x0 CALLER PUSH20 0xFFFFFFFFFFFFFFFFFFFFFFFFFFFFFFFFFFFFFFFF AND DUP3 PUSH2 0x1388 SWAP1 PUSH1 0x40 MLOAD PUSH2 0xAA8 SWAP1 PUSH2 0x10BA JUMP JUMPDEST PUSH1 0x0 PUSH1 0x40 MLOAD DUP1 DUP4 SUB DUP2 DUP6 DUP9 DUP9 CALL SWAP4 POP POP POP POP RETURNDATASIZE DUP1 PUSH1 0x0 DUP2 EQ PUSH2 0xAE6 JUMPI PUSH1 0x40 MLOAD SWAP2 POP PUSH1 0x1F NOT PUSH1 0x3F RETURNDATASIZE ADD AND DUP3 ADD PUSH1 0x40 MSTORE RETURNDATASIZE DUP3 MSTORE RETURNDATASIZE PUSH1 0x0 PUSH1 0x20 DUP5 ADD RETURNDATACOPY PUSH2 0xAEB JUMP JUMPDEST PUSH1 0x60 SWAP2 POP JUMPDEST POP POP SWAP1 POP DUP1 PUSH2 0xB2F JUMPI PUSH1 0x40 MLOAD PUSH32 0x8C379A000000000000000000000000000000000000000000000000000000000 DUP2 MSTORE PUSH1 0x4 ADD PUSH2 0xB26 SWAP1 PUSH2 0x11F2 JUMP JUMPDEST PUSH1 0x40 MLOAD DUP1 SWAP2 SUB SWAP1 REVERT JUMPDEST PUSH32 0x2F174CA282119315C59EFAF21147AEF438581DABDEB498198AE28964373DD8BC CALLER DUP4 PUSH1 0x40 MLOAD PUSH2 0xB60 SWAP3 SWAP2 SWAP1 PUSH2 0x10EA JUMP JUMPDEST PUSH1 0x40 MLOAD DUP1 SWAP2 SUB SWAP1 LOG1 PUSH1 0x1 SWAP3 POP POP POP SWAP1 JUMP JUMPDEST PUSH1 0x8 PUSH1 0x20 MSTORE DUP1 PUSH1 0x0 MSTORE PUSH1 0x40 PUSH1 0x0 KECCAK256 PUSH1 0x0 SWAP2 POP SWAP1 POP SLOAD DUP2 JUMP JUMPDEST PUSH1 0x1 SLOAD DUP2 JUMP JUMPDEST PUSH1 0x4 PUSH1 0x0 SWAP1 SLOAD SWAP1 PUSH2 0x100 EXP SWAP1 DIV PUSH20 0xFFFFFFFFFFFFFFFFFFFFFFFFFFFFFFFFFFFFFFFF AND DUP2 JUMP JUMPDEST PUSH1 0x0 DUP1 SLOAD SWAP1 PUSH2 0x100 EXP SWAP1 DIV PUSH20 0xFFFFFFFFFFFFFFFFFFFFFFFFFFFFFFFFFFFFFFFF AND PUSH20 0xFFFFFFFFFFFFFFFFFFFFFFFFFFFFFFFFFFFFFFFF AND CALLER PUSH20 0xFFFFFFFFFFFFFFFFFFFFFFFFFFFFFFFFFFFFFFFF AND EQ PUSH2 0xC43 JUMPI PUSH1 0x40 MLOAD PUSH32 0x8C379A000000000000000000000000000000000000000000000000000000000 DUP2 MSTORE PUSH1 0x4 ADD PUSH2 0xC3A SWAP1 PUSH2 0x1252 JUMP JUMPDEST PUSH1 0x40 MLOAD DUP1 SWAP2 SUB SWAP1 REVERT JUMPDEST DUP1 PUSH1 0x9 PUSH1 0x0 PUSH2 0x100 EXP DUP2 SLOAD DUP2 PUSH1 0xFF MUL NOT AND SWAP1 DUP4 PUSH1 0x1 DUP2 GT ISZERO PUSH2 0xC8E JUMPI PUSH32 0x4E487B7100000000000000000000000000000000000000000000000000000000 PUSH1 0x0 MSTORE PUSH1 0x21 PUSH1 0x4 MSTORE PUSH1 0x24 PUSH1 0x0 REVERT JUMPDEST MUL OR SWAP1 SSTORE POP PUSH32 0x23AD33AB6A13A00AA7D06CD167B2ABD03DEC86AF3CF3CC91759DCD3AE8411887 DUP2 PUSH1 0x40 MLOAD PUSH2 0xCC2 SWAP2 SWAP1 PUSH2 0x112E JUMP JUMPDEST PUSH1 0x40 MLOAD DUP1 SWAP2 SUB SWAP1 LOG1 POP JUMP JUMPDEST PUSH1 0x2 SLOAD DUP2 JUMP JUMPDEST PUSH1 0x9 PUSH1 0x0 SWAP1 SLOAD SWAP1 PUSH2 0x100 EXP SWAP1 DIV PUSH1 0xFF AND DUP2 JUMP JUMPDEST PUSH1 0x3 SLOAD DUP2 JUMP JUMPDEST PUSH1 0x0 DUP1 SLOAD SWAP1 PUSH2 0x100 EXP SWAP1 DIV PUSH20 0xFFFFFFFFFFFFFFFFFFFFFFFFFFFFFFFFFFFFFFFF AND PUSH20 0xFFFFFFFFFFFFFFFFFFFFFFFFFFFFFFFFFFFFFFFF AND CALLER PUSH20 0xFFFFFFFFFFFFFFFFFFFFFFFFFFFFFFFFFFFFFFFF AND EQ PUSH2 0xD7A JUMPI PUSH1 0x40 MLOAD PUSH32 0x8C379A000000000000000000000000000000000000000000000000000000000 DUP2 MSTORE PUSH1 0x4 ADD PUSH2 0xD71 SWAP1 PUSH2 0x1252 JUMP JUMPDEST PUSH1 0x40 MLOAD DUP1 SWAP2 SUB SWAP1 REVERT JUMPDEST PUSH1 0x0 SELFBALANCE SWAP1 POP PUSH1 0x0 DUP2 GT PUSH2 0xDC2 JUMPI PUSH1 0x40 MLOAD PUSH32 0x8C379A000000000000000000000000000000000000000000000000000000000 DUP2 MSTORE PUSH1 0x4 ADD PUSH2 0xDB9 SWAP1 PUSH2 0x11D2 JUMP JUMPDEST PUSH1 0x40 MLOAD DUP1 SWAP2 SUB SWAP1 REVERT JUMPDEST PUSH1 0x0 DUP1 PUSH1 0x0 SWAP1 SLOAD SWAP1 PUSH2 0x100 EXP SWAP1 DIV PUSH20 0xFFFFFFFFFFFFFFFFFFFFFFFFFFFFFFFFFFFFFFFF AND PUSH20 0xFFFFFFFFFFFFFFFFFFFFFFFFFFFFFFFFFFFFFFFF AND DUP3 PUSH1 0x40 MLOAD PUSH2 0xE09 SWAP1 PUSH2 0x10BA JUMP JUMPDEST PUSH1 0x0 PUSH1 0x40 MLOAD DUP1 DUP4 SUB DUP2 DUP6 DUP8 GAS CALL SWAP3 POP POP POP RETURNDATASIZE DUP1 PUSH1 0x0 DUP2 EQ PUSH2 0xE46 JUMPI PUSH1 0x40 MLOAD SWAP2 POP PUSH1 0x1F NOT PUSH1 0x3F RETURNDATASIZE ADD AND DUP3 ADD PUSH1 0x40 MSTORE RETURNDATASIZE DUP3 MSTORE RETURNDATASIZE PUSH1 0x0 PUSH1 0x20 DUP5 ADD RETURNDATACOPY PUSH2 0xE4B JUMP JUMPDEST PUSH1 0x60 SWAP2 POP JUMPDEST POP POP SWAP1 POP DUP1 PUSH2 0xE8F JUMPI PUSH1 0x40 MLOAD PUSH32 0x8C379A000000000000000000000000000000000000000000000000000000000 DUP2 MSTORE PUSH1 0x4 ADD PUSH2 0xE86 SWAP1 PUSH2 0x11F2 JUMP JUMPDEST PUSH1 0x40 MLOAD DUP1 SWAP2 SUB SWAP1 REVERT JUMPDEST POP POP JUMP JUMPDEST PUSH1 0x0 DUP2 CALLDATALOAD SWAP1 POP PUSH2 0xEA2 DUP2 PUSH2 0x1614 JUMP JUMPDEST SWAP3 SWAP2 POP POP JUMP JUMPDEST PUSH1 0x0 DUP2 CALLDATALOAD SWAP1 POP PUSH2 0xEB7 DUP2 PUSH2 0x162B JUMP JUMPDEST SWAP3 SWAP2 POP POP JUMP JUMPDEST PUSH1 0x0 PUSH1 0x20 DUP3 DUP5 SUB SLT ISZERO PUSH2 0xECF JUMPI PUSH1 0x0 DUP1 REVERT JUMPDEST PUSH1 0x0 PUSH2 0xEDD DUP5 DUP3 DUP6 ADD PUSH2 0xE93 JUMP JUMPDEST SWAP2 POP POP SWAP3 SWAP2 POP POP JUMP JUMPDEST PUSH1 0x0 PUSH1 0x20 DUP3 DUP5 SUB SLT ISZERO PUSH2 0xEF8 JUMPI PUSH1 0x0 DUP1 REVERT JUMPDEST PUSH1 0x0 PUSH2 0xF06 DUP5 DUP3 DUP6 ADD PUSH2 0xEA8 JUMP JUMPDEST SWAP2 POP POP SWAP3 SWAP2 POP POP JUMP JUMPDEST PUSH2 0xF18 DUP2 PUSH2 0x134A JUMP JUMPDEST DUP3 MSTORE POP POP JUMP JUMPDEST PUSH2 0xF27 DUP2 PUSH2 0x135C JUMP JUMPDEST DUP3 MSTORE POP POP JUMP JUMPDEST PUSH2 0xF36 DUP2 PUSH2 0x13A5 JUMP JUMPDEST DUP3 MSTORE POP POP JUMP JUMPDEST PUSH2 0xF45 DUP2 PUSH2 0x13B7 JUMP JUMPDEST DUP3 MSTORE POP POP JUMP JUMPDEST PUSH2 0xF54 DUP2 PUSH2 0x13C9 JUMP JUMPDEST DUP3 MSTORE POP POP JUMP JUMPDEST PUSH1 0x0 PUSH2 0xF65 DUP3 PUSH2 0x12CD JUMP JUMPDEST PUSH2 0xF6F DUP2 DUP6 PUSH2 0x12E3 JUMP JUMPDEST SWAP4 POP PUSH2 0xF7F DUP2 DUP6 PUSH1 0x20 DUP7 ADD PUSH2 0x13DB JUMP JUMPDEST PUSH2 0xF88 DUP2 PUSH2 0x14CD JUMP JUMPDEST DUP5 ADD SWAP2 POP POP SWAP3 SWAP2 POP POP JUMP JUMPDEST PUSH1 0x0 PUSH2 0xFA0 PUSH1 0x1D DUP4 PUSH2 0x12E3 JUMP JUMPDEST SWAP2 POP PUSH2 0xFAB DUP3 PUSH2 0x14DE JUMP JUMPDEST PUSH1 0x20 DUP3 ADD SWAP1 POP SWAP2 SWAP1 POP JUMP JUMPDEST PUSH1 0x0 PUSH2 0xFC3 PUSH1 0xF DUP4 PUSH2 0x12E3 JUMP JUMPDEST SWAP2 POP PUSH2 0xFCE DUP3 PUSH2 0x1507 JUMP JUMPDEST PUSH1 0x20 DUP3 ADD SWAP1 POP SWAP2 SWAP1 POP JUMP JUMPDEST PUSH1 0x0 PUSH2 0xFE6 PUSH1 0x18 DUP4 PUSH2 0x12E3 JUMP JUMPDEST SWAP2 POP PUSH2 0xFF1 DUP3 PUSH2 0x1530 JUMP JUMPDEST PUSH1 0x20 DUP3 ADD SWAP1 POP SWAP2 SWAP1 POP JUMP JUMPDEST PUSH1 0x0 PUSH2 0x1009 PUSH1 0x14 DUP4 PUSH2 0x12E3 JUMP JUMPDEST SWAP2 POP PUSH2 0x1014 DUP3 PUSH2 0x1559 JUMP JUMPDEST PUSH1 0x20 DUP3 ADD SWAP1 POP SWAP2 SWAP1 POP JUMP JUMPDEST PUSH1 0x0 PUSH2 0x102C PUSH1 0x20 DUP4 PUSH2 0x12E3 JUMP JUMPDEST SWAP2 POP PUSH2 0x1037 DUP3 PUSH2 0x1582 JUMP JUMPDEST PUSH1 0x20 DUP3 ADD SWAP1 POP SWAP2 SWAP1 POP JUMP JUMPDEST PUSH1 0x0 PUSH2 0x104F PUSH1 0x11 DUP4 PUSH2 0x12E3 JUMP JUMPDEST SWAP2 POP PUSH2 0x105A DUP3 PUSH2 0x15AB JUMP JUMPDEST PUSH1 0x20 DUP3 ADD SWAP1 POP SWAP2 SWAP1 POP JUMP JUMPDEST PUSH1 0x0 PUSH2 0x1072 PUSH1 0x20 DUP4 PUSH2 0x12E3 JUMP JUMPDEST SWAP2 POP PUSH2 0x107D DUP3 PUSH2 0x15D4 JUMP JUMPDEST PUSH1 0x20 DUP3 ADD SWAP1 POP SWAP2 SWAP1 POP JUMP JUMPDEST PUSH1 0x0 PUSH2 0x1095 PUSH1 0x0 DUP4 PUSH2 0x12D8 JUMP JUMPDEST SWAP2 POP PUSH2 0x10A0 DUP3 PUSH2 0x15FD JUMP JUMPDEST PUSH1 0x0 DUP3 ADD SWAP1 POP SWAP2 SWAP1 POP JUMP JUMPDEST PUSH2 0x10B4 DUP2 PUSH2 0x139B JUMP JUMPDEST DUP3 MSTORE POP POP JUMP JUMPDEST PUSH1 0x0 PUSH2 0x10C5 DUP3 PUSH2 0x1088 JUMP JUMPDEST SWAP2 POP DUP2 SWAP1 POP SWAP2 SWAP1 POP JUMP JUMPDEST PUSH1 0x0 PUSH1 0x20 DUP3 ADD SWAP1 POP PUSH2 0x10E4 PUSH1 0x0 DUP4 ADD DUP5 PUSH2 0xF0F JUMP JUMPDEST SWAP3 SWAP2 POP POP JUMP JUMPDEST PUSH1 0x0 PUSH1 0x40 DUP3 ADD SWAP1 POP PUSH2 0x10FF PUSH1 0x0 DUP4 ADD DUP6 PUSH2 0xF0F JUMP JUMPDEST PUSH2 0x110C PUSH1 0x20 DUP4 ADD DUP5 PUSH2 0x10AB JUMP JUMPDEST SWAP4 SWAP3 POP POP POP JUMP JUMPDEST PUSH1 0x0 PUSH1 0x20 DUP3 ADD SWAP1 POP PUSH2 0x1128 PUSH1 0x0 DUP4 ADD DUP5 PUSH2 0xF1E JUMP JUMPDEST SWAP3 SWAP2 POP POP JUMP JUMPDEST PUSH1 0x0 PUSH1 0x20 DUP3 ADD SWAP1 POP PUSH2 0x1143 PUSH1 0x0 DUP4 ADD DUP5 PUSH2 0xF2D JUMP JUMPDEST SWAP3 SWAP2 POP POP JUMP JUMPDEST PUSH1 0x0 PUSH1 0x40 DUP3 ADD SWAP1 POP PUSH2 0x115E PUSH1 0x0 DUP4 ADD DUP6 PUSH2 0xF3C JUMP JUMPDEST PUSH2 0x116B PUSH1 0x20 DUP4 ADD DUP5 PUSH2 0x10AB JUMP JUMPDEST SWAP4 SWAP3 POP POP POP JUMP JUMPDEST PUSH1 0x0 PUSH1 0x40 DUP3 ADD SWAP1 POP PUSH2 0x1187 PUSH1 0x0 DUP4 ADD DUP6 PUSH2 0xF4B JUMP JUMPDEST PUSH2 0x1194 PUSH1 0x20 DUP4 ADD DUP5 PUSH2 0x10AB JUMP JUMPDEST SWAP4 SWAP3 POP POP POP JUMP JUMPDEST PUSH1 0x0 PUSH1 0x40 DUP3 ADD SWAP1 POP DUP2 DUP2 SUB PUSH1 0x0 DUP4 ADD MSTORE PUSH2 0x11B5 DUP2 DUP6 PUSH2 0xF5A JUMP JUMPDEST SWAP1 POP DUP2 DUP2 SUB PUSH1 0x20 DUP4 ADD MSTORE PUSH2 0x11C9 DUP2 DUP5 PUSH2 0xF5A JUMP JUMPDEST SWAP1 POP SWAP4 SWAP3 POP POP POP JUMP JUMPDEST PUSH1 0x0 PUSH1 0x20 DUP3 ADD SWAP1 POP DUP2 DUP2 SUB PUSH1 0x0 DUP4 ADD MSTORE PUSH2 0x11EB DUP2 PUSH2 0xF93 JUMP JUMPDEST SWAP1 POP SWAP2 SWAP1 POP JUMP JUMPDEST PUSH1 0x0 PUSH1 0x20 DUP3 ADD SWAP1 POP DUP2 DUP2 SUB PUSH1 0x0 DUP4 ADD MSTORE PUSH2 0x120B DUP2 PUSH2 0xFB6 JUMP JUMPDEST SWAP1 POP SWAP2 SWAP1 POP JUMP JUMPDEST PUSH1 0x0 PUSH1 0x20 DUP3 ADD SWAP1 POP DUP2 DUP2 SUB PUSH1 0x0 DUP4 ADD MSTORE PUSH2 0x122B DUP2 PUSH2 0xFD9 JUMP JUMPDEST SWAP1 POP SWAP2 SWAP1 POP JUMP JUMPDEST PUSH1 0x0 PUSH1 0x20 DUP3 ADD SWAP1 POP DUP2 DUP2 SUB PUSH1 0x0 DUP4 ADD MSTORE PUSH2 0x124B DUP2 PUSH2 0xFFC JUMP JUMPDEST SWAP1 POP SWAP2 SWAP1 POP JUMP JUMPDEST PUSH1 0x0 PUSH1 0x20 DUP3 ADD SWAP1 POP DUP2 DUP2 SUB PUSH1 0x0 DUP4 ADD MSTORE PUSH2 0x126B DUP2 PUSH2 0x101F JUMP JUMPDEST SWAP1 POP SWAP2 SWAP1 POP JUMP JUMPDEST PUSH1 0x0 PUSH1 0x20 DUP3 ADD SWAP1 POP DUP2 DUP2 SUB PUSH1 0x0 DUP4 ADD MSTORE PUSH2 0x128B DUP2 PUSH2 0x1042 JUMP JUMPDEST SWAP1 POP SWAP2 SWAP1 POP JUMP JUMPDEST PUSH1 0x0 PUSH1 0x20 DUP3 ADD SWAP1 POP DUP2 DUP2 SUB PUSH1 0x0 DUP4 ADD MSTORE PUSH2 0x12AB DUP2 PUSH2 0x1065 JUMP JUMPDEST SWAP1 POP SWAP2 SWAP1 POP JUMP JUMPDEST PUSH1 0x0 PUSH1 0x20 DUP3 ADD SWAP1 POP PUSH2 0x12C7 PUSH1 0x0 DUP4 ADD DUP5 PUSH2 0x10AB JUMP JUMPDEST SWAP3 SWAP2 POP POP JUMP JUMPDEST PUSH1 0x0 DUP2 MLOAD SWAP1 POP SWAP2 SWAP1 POP JUMP JUMPDEST PUSH1 0x0 DUP2 SWAP1 POP SWAP3 SWAP2 POP POP JUMP JUMPDEST PUSH1 0x0 DUP3 DUP3 MSTORE PUSH1 0x20 DUP3 ADD SWAP1 POP SWAP3 SWAP2 POP POP JUMP JUMPDEST PUSH1 0x0 PUSH2 0x12FF DUP3 PUSH2 0x139B JUMP JUMPDEST SWAP2 POP PUSH2 0x130A DUP4 PUSH2 0x139B JUMP JUMPDEST SWAP3 POP DUP3 PUSH32 0xFFFFFFFFFFFFFFFFFFFFFFFFFFFFFFFFFFFFFFFFFFFFFFFFFFFFFFFFFFFFFFFF SUB DUP3 GT ISZERO PUSH2 0x133F JUMPI PUSH2 0x133E PUSH2 0x1440 JUMP JUMPDEST JUMPDEST DUP3 DUP3 ADD SWAP1 POP SWAP3 SWAP2 POP POP JUMP JUMPDEST PUSH1 0x0 PUSH2 0x1355 DUP3 PUSH2 0x137B JUMP JUMPDEST SWAP1 POP SWAP2 SWAP1 POP JUMP JUMPDEST PUSH1 0x0 DUP2 ISZERO ISZERO SWAP1 POP SWAP2 SWAP1 POP JUMP JUMPDEST PUSH1 0x0 DUP2 SWAP1 POP PUSH2 0x1376 DUP3 PUSH2 0x1600 JUMP JUMPDEST SWAP2 SWAP1 POP JUMP JUMPDEST PUSH1 0x0 PUSH20 0xFFFFFFFFFFFFFFFFFFFFFFFFFFFFFFFFFFFFFFFF DUP3 AND SWAP1 POP SWAP2 SWAP1 POP JUMP JUMPDEST PUSH1 0x0 DUP2 SWAP1 POP SWAP2 SWAP1 POP JUMP JUMPDEST PUSH1 0x0 PUSH2 0x13B0 DUP3 PUSH2 0x1368 JUMP JUMPDEST SWAP1 POP SWAP2 SWAP1 POP JUMP JUMPDEST PUSH1 0x0 PUSH2 0x13C2 DUP3 PUSH2 0x139B JUMP JUMPDEST SWAP1 POP SWAP2 SWAP1 POP JUMP JUMPDEST PUSH1 0x0 PUSH2 0x13D4 DUP3 PUSH2 0x139B JUMP JUMPDEST SWAP1 POP SWAP2 SWAP1 POP JUMP JUMPDEST PUSH1 0x0 JUMPDEST DUP4 DUP2 LT ISZERO PUSH2 0x13F9 JUMPI DUP1 DUP3 ADD MLOAD DUP2 DUP5 ADD MSTORE PUSH1 0x20 DUP2 ADD SWAP1 POP PUSH2 0x13DE JUMP JUMPDEST DUP4 DUP2 GT ISZERO PUSH2 0x1408 JUMPI PUSH1 0x0 DUP5 DUP5 ADD MSTORE JUMPDEST POP POP POP POP JUMP JUMPDEST PUSH1 0x0 PUSH1 0x2 DUP3 DIV SWAP1 POP PUSH1 0x1 DUP3 AND DUP1 PUSH2 0x1426 JUMPI PUSH1 0x7F DUP3 AND SWAP2 POP JUMPDEST PUSH1 0x20 DUP3 LT DUP2 EQ ISZERO PUSH2 0x143A JUMPI PUSH2 0x1439 PUSH2 0x149E JUMP JUMPDEST JUMPDEST POP SWAP2 SWAP1 POP JUMP JUMPDEST PUSH32 0x4E487B7100000000000000000000000000000000000000000000000000000000 PUSH1 0x0 MSTORE PUSH1 0x11 PUSH1 0x4 MSTORE PUSH1 0x24 PUSH1 0x0 REVERT JUMPDEST PUSH32 0x4E487B7100000000000000000000000000000000000000000000000000000000 PUSH1 0x0 MSTORE PUSH1 0x21 PUSH1 0x4 MSTORE PUSH1 0x24 PUSH1 0x0 REVERT JUMPDEST PUSH32 0x4E487B7100000000000000000000000000000000000000000000000000000000 PUSH1 0x0 MSTORE PUSH1 0x22 PUSH1 0x4 MSTORE PUSH1 0x24 PUSH1 0x0 REVERT JUMPDEST PUSH1 0x0 PUSH1 0x1F NOT PUSH1 0x1F DUP4 ADD AND SWAP1 POP SWAP2 SWAP1 POP JUMP JUMPDEST PUSH32 0x4E6F2066756E6473206C65667420696E2074686520636F6E7472616374000000 PUSH1 0x0 DUP3 ADD MSTORE POP JUMP JUMPDEST PUSH32 0x5472616E73666572206661696C65640000000000000000000000000000000000 PUSH1 0x0 DUP3 ADD MSTORE POP JUMP JUMPDEST PUSH32 0x41756374696F6E206973207374696C6C206F6E676F696E670000000000000000 PUSH1 0x0 DUP3 ADD MSTORE POP JUMP JUMPDEST PUSH32 0x4E6F2066756E647320746F207769746864726177000000000000000000000000 PUSH1 0x0 DUP3 ADD MSTORE POP JUMP JUMPDEST PUSH32 0x4F6E6C792061756374696F6E206F776E65722063616E2063616C6C2074686973 PUSH1 0x0 DUP3 ADD MSTORE POP JUMP JUMPDEST PUSH32 0x41756374696F6E2068617320656E646564000000000000000000000000000000 PUSH1 0x0 DUP3 ADD MSTORE POP JUMP JUMPDEST PUSH32 0x596F752063616E2774206269642C206D616B6520612068696768657220626964 PUSH1 0x0 DUP3 ADD MSTORE POP JUMP JUMPDEST POP JUMP JUMPDEST PUSH1 0x2 DUP2 LT PUSH2 0x1611 JUMPI PUSH2 0x1610 PUSH2 0x146F JUMP JUMPDEST JUMPDEST POP JUMP JUMPDEST PUSH2 0x161D DUP2 PUSH2 0x134A JUMP JUMPDEST DUP2 EQ PUSH2 0x1628 JUMPI PUSH1 0x0 DUP1 REVERT JUMPDEST POP JUMP JUMPDEST PUSH1 0x2 DUP2 LT PUSH2 0x1638 JUMPI PUSH1 0x0 DUP1 REVERT JUMPDEST POP JUMP INVALID LOG2 PUSH5 0x6970667358 0x22 SLT KECCAK256 DUP16 0xF7 MOD ORIGIN LOG1 CALLVALUE CALLVALUE LOG2 PUSH3 0xECD1C2 PUSH13 0x3017FFE3D626A63694808C439D MOD 0xE PUSH6 0x668AE764736F PUSH13 0x63430008010033000000000000 "
		},
		"gasEstimates": {
			"creation": {
				"codeDepositCost": "1149000",
				"executionCost": "infinite",
				"totalCost": "infinite"
			},
			"external": {
				"Mycar()": "infinite",
				"STATE()": "1304",
				"auction_end()": "1151",
				"auction_start()": "1152",
				"bid()": "infinite",
				"bids(address)": "1603",
				"cancel_auction()": "infinite",
				"deactivateAuction()": "infinite",
				"get_owner()": "1268",
				"highestBid()": "1195",
				"highestBidder()": "1259",
				"updateAuctionState(uint8)": "23470",
				"withdraw()": "infinite",
				"withdrawRemainingFunds()": "infinite"
			}
		},
		"methodIdentifiers": {
			"Mycar()": "0216f202",
			"STATE()": "c486456c",
			"auction_end()": "c458b65a",
			"auction_start()": "78f45340",
			"bid()": "1998aeef",
			"bids(address)": "62ea82db",
			"cancel_auction()": "3ba88ca1",
			"deactivateAuction()": "389009f0",
			"get_owner()": "0ac298dc",
			"highestBid()": "d57bde79",
			"highestBidder()": "91f90157",
			"updateAuctionState(uint8)": "956534ed",
			"withdraw()": "3ccfd60b",
			"withdrawRemainingFunds()": "ef86ce8e"
		}
	},
	"abi": [
		{
			"inputs": [
				{
					"internalType": "uint256",
					"name": "_biddingTime",
					"type": "uint256"
				},
				{
					"internalType": "address",
					"name": "_owner",
					"type": "address"
				},
				{
					"internalType": "string",
					"name": "_brand",
					"type": "string"
				},
				{
					"internalType": "string",
					"name": "_Rnumber",
					"type": "string"
				}
			],
			"stateMutability": "nonpayable",
			"type": "constructor"
		},
		{
			"anonymous": false,
			"inputs": [
				{
					"indexed": true,
					"internalType": "address",
					"name": "highestBidder",
					"type": "address"
				},
				{
					"indexed": false,
					"internalType": "uint256",
					"name": "highestBid",
					"type": "uint256"
				}
			],
			"name": "BidEvent",
			"type": "event"
		},
		{
			"anonymous": false,
			"inputs": [
				{
					"indexed": false,
					"internalType": "uint256",
					"name": "message",
					"type": "uint256"
				},
				{
					"indexed": false,
					"internalType": "uint256",
					"name": "time",
					"type": "uint256"
				}
			],
			"name": "CanceledEvent",
			"type": "event"
		},
		{
			"anonymous": false,
			"inputs": [
				{
					"indexed": false,
					"internalType": "enum Auction.auction_state",
					"name": "newState",
					"type": "uint8"
				}
			],
			"name": "StateUpdated",
			"type": "event"
		},
		{
			"anonymous": false,
			"inputs": [
				{
					"indexed": false,
					"internalType": "address",
					"name": "withdrawer",
					"type": "address"
				},
				{
					"indexed": false,
					"internalType": "uint256",
					"name": "amount",
					"type": "uint256"
				}
			],
			"name": "WithdrawalEvent",
			"type": "event"
		},
		{
			"inputs": [],
			"name": "Mycar",
			"outputs": [
				{
					"internalType": "string",
					"name": "Brand",
					"type": "string"
				},
				{
					"internalType": "string",
					"name": "Rnumber",
					"type": "string"
				}
			],
			"stateMutability": "view",
			"type": "function"
		},
		{
			"inputs": [],
			"name": "STATE",
			"outputs": [
				{
					"internalType": "enum Auction.auction_state",
					"name": "",
					"type": "uint8"
				}
			],
			"stateMutability": "view",
			"type": "function"
		},
		{
			"inputs": [],
			"name": "auction_end",
			"outputs": [
				{
					"internalType": "uint256",
					"name": "",
					"type": "uint256"
				}
			],
			"stateMutability": "view",
			"type": "function"
		},
		{
			"inputs": [],
			"name": "auction_start",
			"outputs": [
				{
					"internalType": "uint256",
					"name": "",
					"type": "uint256"
				}
			],
			"stateMutability": "view",
			"type": "function"
		},
		{
			"inputs": [],
			"name": "bid",
			"outputs": [
				{
					"internalType": "bool",
					"name": "",
					"type": "bool"
				}
			],
			"stateMutability": "payable",
			"type": "function"
		},
		{
			"inputs": [
				{
					"internalType": "address",
					"name": "",
					"type": "address"
				}
			],
			"name": "bids",
			"outputs": [
				{
					"internalType": "uint256",
					"name": "",
					"type": "uint256"
				}
			],
			"stateMutability": "view",
			"type": "function"
		},
		{
			"inputs": [],
			"name": "cancel_auction",
			"outputs": [
				{
					"internalType": "bool",
					"name": "",
					"type": "bool"
				}
			],
			"stateMutability": "nonpayable",
			"type": "function"
		},
		{
			"inputs": [],
			"name": "deactivateAuction",
			"outputs": [],
			"stateMutability": "nonpayable",
			"type": "function"
		},
		{
			"inputs": [],
			"name": "get_owner",
			"outputs": [
				{
					"internalType": "address",
					"name": "",
					"type": "address"
				}
			],
			"stateMutability": "view",
			"type": "function"
		},
		{
			"inputs": [],
			"name": "highestBid",
			"outputs": [
				{
					"internalType": "uint256",
					"name": "",
					"type": "uint256"
				}
			],
			"stateMutability": "view",
			"type": "function"
		},
		{
			"inputs": [],
			"name": "highestBidder",
			"outputs": [
				{
					"internalType": "address",
					"name": "",
					"type": "address"
				}
			],
			"stateMutability": "view",
			"type": "function"
		},
		{
			"inputs": [
				{
					"internalType": "enum Auction.auction_state",
					"name": "newState",
					"type": "uint8"
				}
			],
			"name": "updateAuctionState",
			"outputs": [],
			"stateMutability": "nonpayable",
			"type": "function"
		},
		{
			"inputs": [],
			"name": "withdraw",
			"outputs": [
				{
					"internalType": "bool",
					"name": "",
					"type": "bool"
				}
			],
			"stateMutability": "nonpayable",
			"type": "function"
		},
		{
			"inputs": [],
			"name": "withdrawRemainingFunds",
			"outputs": [],
			"stateMutability": "nonpayable",
			"type": "function"
		}
	]
}