{
	"data": {
		"bytecode": {
			"linkReferences": {},
			"object": "608060405234801561001057600080fd5b506102d9806100206000396000f3fe608060405234801561001057600080fd5b506004361061002b5760003560e01c8063de29278914610030575b600080fd5b61003861004f565b60405161004692919061009b565b60405180910390f35b600080600060039050600060029050600f9350600a81836100709190610122565b61007a919061018c565b925050509091565b6000819050919050565b61009581610082565b82525050565b60006040820190506100b0600083018561008c565b6100bd602083018461008c565b9392505050565b7f4e487b7100000000000000000000000000000000000000000000000000000000600052601260045260246000fd5b7f4e487b7100000000000000000000000000000000000000000000000000000000600052601160045260246000fd5b600061012d82610082565b915061013883610082565b925082610148576101476100c4565b5b600160000383147f800000000000000000000000000000000000000000000000000000000000000083141615610181576101806100f3565b5b828205905092915050565b600061019782610082565b91506101a283610082565b9250827f7fffffffffffffffffffffffffffffffffffffffffffffffffffffffffffffff04821160008413600084131616156101e1576101e06100f3565b5b817f8000000000000000000000000000000000000000000000000000000000000000058312600084126000841316161561021e5761021d6100f3565b5b827f8000000000000000000000000000000000000000000000000000000000000000058212600084136000841216161561025b5761025a6100f3565b5b827f7fffffffffffffffffffffffffffffffffffffffffffffffffffffffffffffff0582126000841260008412161615610298576102976100f3565b5b82820290509291505056fea2646970667358221220980cd42d76c0847eb7aecd84c3aa1c2497cfbfd9125d0e0324c8baf86a546ad764736f6c63430008090033",
			"opcodes": "PUSH1 0x80 PUSH1 0x40 MSTORE CALLVALUE DUP1 ISZERO PUSH2 0x10 JUMPI PUSH1 0x0 DUP1 REVERT JUMPDEST POP PUSH2 0x2D9 DUP1 PUSH2 0x20 PUSH1 0x0 CODECOPY PUSH1 0x0 RETURN INVALID PUSH1 0x80 PUSH1 0x40 MSTORE CALLVALUE DUP1 ISZERO PUSH2 0x10 JUMPI PUSH1 0x0 DUP1 REVERT JUMPDEST POP PUSH1 0x4 CALLDATASIZE LT PUSH2 0x2B JUMPI PUSH1 0x0 CALLDATALOAD PUSH1 0xE0 SHR DUP1 PUSH4 0xDE292789 EQ PUSH2 0x30 JUMPI JUMPDEST PUSH1 0x0 DUP1 REVERT JUMPDEST PUSH2 0x38 PUSH2 0x4F JUMP JUMPDEST PUSH1 0x40 MLOAD PUSH2 0x46 SWAP3 SWAP2 SWAP1 PUSH2 0x9B JUMP JUMPDEST PUSH1 0x40 MLOAD DUP1 SWAP2 SUB SWAP1 RETURN JUMPDEST PUSH1 0x0 DUP1 PUSH1 0x0 PUSH1 0x3 SWAP1 POP PUSH1 0x0 PUSH1 0x2 SWAP1 POP PUSH1 0xF SWAP4 POP PUSH1 0xA DUP2 DUP4 PUSH2 0x70 SWAP2 SWAP1 PUSH2 0x122 JUMP JUMPDEST PUSH2 0x7A SWAP2 SWAP1 PUSH2 0x18C JUMP JUMPDEST SWAP3 POP POP POP SWAP1 SWAP2 JUMP JUMPDEST PUSH1 0x0 DUP2 SWAP1 POP SWAP2 SWAP1 POP JUMP JUMPDEST PUSH2 0x95 DUP2 PUSH2 0x82 JUMP JUMPDEST DUP3 MSTORE POP POP JUMP JUMPDEST PUSH1 0x0 PUSH1 0x40 DUP3 ADD SWAP1 POP PUSH2 0xB0 PUSH1 0x0 DUP4 ADD DUP6 PUSH2 0x8C JUMP JUMPDEST PUSH2 0xBD PUSH1 0x20 DUP4 ADD DUP5 PUSH2 0x8C JUMP JUMPDEST SWAP4 SWAP3 POP POP POP JUMP JUMPDEST PUSH32 0x4E487B7100000000000000000000000000000000000000000000000000000000 PUSH1 0x0 MSTORE PUSH1 0x12 PUSH1 0x4 MSTORE PUSH1 0x24 PUSH1 0x0 REVERT JUMPDEST PUSH32 0x4E487B7100000000000000000000000000000000000000000000000000000000 PUSH1 0x0 MSTORE PUSH1 0x11 PUSH1 0x4 MSTORE PUSH1 0x24 PUSH1 0x0 REVERT JUMPDEST PUSH1 0x0 PUSH2 0x12D DUP3 PUSH2 0x82 JUMP JUMPDEST SWAP2 POP PUSH2 0x138 DUP4 PUSH2 0x82 JUMP JUMPDEST SWAP3 POP DUP3 PUSH2 0x148 JUMPI PUSH2 0x147 PUSH2 0xC4 JUMP JUMPDEST JUMPDEST PUSH1 0x1 PUSH1 0x0 SUB DUP4 EQ PUSH32 0x8000000000000000000000000000000000000000000000000000000000000000 DUP4 EQ AND ISZERO PUSH2 0x181 JUMPI PUSH2 0x180 PUSH2 0xF3 JUMP JUMPDEST JUMPDEST DUP3 DUP3 SDIV SWAP1 POP SWAP3 SWAP2 POP POP JUMP JUMPDEST PUSH1 0x0 PUSH2 0x197 DUP3 PUSH2 0x82 JUMP JUMPDEST SWAP2 POP PUSH2 0x1A2 DUP4 PUSH2 0x82 JUMP JUMPDEST SWAP3 POP DUP3 PUSH32 0x7FFFFFFFFFFFFFFFFFFFFFFFFFFFFFFFFFFFFFFFFFFFFFFFFFFFFFFFFFFFFFFF DIV DUP3 GT PUSH1 0x0 DUP5 SGT PUSH1 0x0 DUP5 SGT AND AND ISZERO PUSH2 0x1E1 JUMPI PUSH2 0x1E0 PUSH2 0xF3 JUMP JUMPDEST JUMPDEST DUP2 PUSH32 0x8000000000000000000000000000000000000000000000000000000000000000 SDIV DUP4 SLT PUSH1 0x0 DUP5 SLT PUSH1 0x0 DUP5 SGT AND AND ISZERO PUSH2 0x21E JUMPI PUSH2 0x21D PUSH2 0xF3 JUMP JUMPDEST JUMPDEST DUP3 PUSH32 0x8000000000000000000000000000000000000000000000000000000000000000 SDIV DUP3 SLT PUSH1 0x0 DUP5 SGT PUSH1 0x0 DUP5 SLT AND AND ISZERO PUSH2 0x25B JUMPI PUSH2 0x25A PUSH2 0xF3 JUMP JUMPDEST JUMPDEST DUP3 PUSH32 0x7FFFFFFFFFFFFFFFFFFFFFFFFFFFFFFFFFFFFFFFFFFFFFFFFFFFFFFFFFFFFFFF SDIV DUP3 SLT PUSH1 0x0 DUP5 SLT PUSH1 0x0 DUP5 SLT AND AND ISZERO PUSH2 0x298 JUMPI PUSH2 0x297 PUSH2 0xF3 JUMP JUMPDEST JUMPDEST DUP3 DUP3 MUL SWAP1 POP SWAP3 SWAP2 POP POP JUMP INVALID LOG2 PUSH5 0x6970667358 0x22 SLT KECCAK256 SWAP9 0xC 0xD4 0x2D PUSH23 0xC0847EB7AECD84C3AA1C2497CFBFD9125D0E0324C8BAF8 PUSH11 0x546AD764736F6C63430008 MULMOD STOP CALLER "
		},
		"gasEstimates": {
			"creation": {
				"codeDepositCost": "145800",
				"executionCost": "190",
				"totalCost": "145990"
			},
			"external": {
				"getResult()": "infinite"
			}
		},
		"methodIdentifiers": {
			"getResult()": "de292789"
		}
	},
	"abi": [
		{
			"inputs": [],
			"name": "getResult",
			"outputs": [
				{
					"internalType": "int256",
					"name": "_return1",
					"type": "int256"
				},
				{
					"internalType": "int256",
					"name": "_return2",
					"type": "int256"
				}
			],
			"stateMutability": "pure",
			"type": "function"
		}
	]
}